:0100000000ff
:0100010000fe
:0100020000fd
:0100030000fc
:0100040000fb
:0100050001f9
:0100060001f8
:0100070001f7
:0100080001f6
:0100090001f5
:01000a0000f5
:01000b0000f4
:01000c0000f3
:01000d0000f2
:01000e0000f1
:01000f0000f0
:0100100000ef
:0100110000ee
:0100120001ec
:0100130001eb
:0100140002e9
:0100150002e8
:0100160002e7
:0100170002e6
:0100180002e5
:0100190001e5
:01001a0001e4
:01001b0000e4
:01001c0000e3
:01001d0000e2
:01001e0000e1
:01001f0000e0
:0100200001de
:0100210002dc
:0100220002db
:0100230002da
:0100240002d9
:0100250002d8
:0100260002d7
:0100270002d6
:0100280002d5
:0100290002d4
:01002a0001d4
:01002b0000d4
:01002c0000d3
:01002d0000d2
:01002e0001d0
:01002f0007c9
:0100300007c8
:0100310007c7
:0100320007c6
:0100330007c5
:0100340007c4
:0100350007c3
:0100360007c2
:0100370007c1
:0100380007c0
:0100390007bf
:01003a0001c4
:01003b0000c4
:01003c0000c3
:01003d0001c1
:01003e0007ba
:01003f0007b9
:0100400007b8
:0100410007b7
:0100420002bb
:0100430002ba
:0100440002b9
:0100450007b3
:0100460007b2
:0100470007b1
:0100480007b0
:0100490001b5
:01004a0000b5
:01004b0001b3
:01004c0007ac
:01004d0007ab
:01004e0007aa
:01004f0007a9
:0100500001ae
:0100510002ac
:0100520001ac
:0100530001ab
:0100540001aa
:0100550007a3
:0100560007a2
:0100570007a1
:0100580007a0
:0100590001a5
:01005a0001a4
:01005b00079d
:01005c00079c
:01005d00079b
:01005e00029f
:01005f00019f
:01006000029d
:01006100029c
:01006200029b
:01006300019b
:010064000299
:010065000793
:010066000792
:010067000791
:010068000196
:010069000195
:01006a00078e
:01006b00078d
:01006c00078c
:01006d000290
:01006e000190
:01006f00028e
:01007000018e
:01007100018d
:01007200018c
:01007300028a
:010074000784
:010075000783
:010076000782
:010077000187
:010078000186
:01007900077f
:01007a00077e
:01007b00077d
:01007c000281
:01007d000181
:01007e00027f
:01007f00027e
:01008000027d
:01008100017d
:01008200027b
:010083000775
:010084000774
:010085000773
:010086000178
:010087000177
:010088000770
:01008900076f
:01008a00076e
:01008b00076d
:01008c000172
:01008d000270
:01008e000170
:01008f00016f
:01009000016e
:010091000767
:010092000766
:010093000765
:010094000764
:010095000169
:010096000069
:010097000167
:010098000760
:01009900075f
:01009a00075e
:01009b00075d
:01009c000261
:01009d000260
:01009e00025f
:01009f000759
:0100a0000758
:0100a1000757
:0100a2000756
:0100a300015b
:0100a400005b
:0100a500005a
:0100a6000158
:0100a7000751
:0100a8000750
:0100a900074f
:0100aa00074e
:0100ab00074d
:0100ac00074c
:0100ad00074b
:0100ae00074a
:0100af000749
:0100b0000748
:0100b1000747
:0100b200014c
:0100b300004c
:0100b400004b
:0100b500004a
:0100b6000148
:0100b7000246
:0100b8000245
:0100b9000244
:0100ba000243
:0100bb000242
:0100bc000241
:0100bd000240
:0100be00023f
:0100bf00023e
:0100c000013e
:0100c100003e
:0100c200003d
:0100c300003c
:0100c400003b
:0100c500003a
:0100c6000138
:0100c7000137
:0100c8000235
:0100c9000234
:0100ca000233
:0100cb000232
:0100cc000231
:0100cd000131
:0100ce000130
:0100cf000030
:0100d000002f
:0100d100002e
:0100d200002d
:0100d300002c
:0100d400002b
:0100d500002a
:0100d6000029
:0100d7000127
:0100d8000126
:0100d9000125
:0100da000124
:0100db000123
:0100dc000023
:0100dd000022
:0100de000021
:0100df000020
:0100e000001f
:00000001ff