:0100000000ff
:0100010000fe
:0100020000fd
:0100030000fc
:0100040000fb
:0100050001f9
:0100060001f8
:0100070001f7
:0100080001f6
:0100090001f5
:01000a0000f5
:01000b0000f4
:01000c0000f3
:01000d0000f2
:01000e0000f1
:01000f0000f0
:0100100000ef
:0100110000ee
:0100120001ec
:0100130001eb
:0100140008e3
:0100150008e2
:0100160008e1
:0100170008e0
:0100180008df
:0100190001e5
:01001a0001e4
:01001b0000e4
:01001c0000e3
:01001d0000e2
:01001e0000e1
:01001f0000e0
:0100200001de
:0100210008d6
:0100220008d5
:0100230008d4
:0100240008d3
:0100250008d2
:0100260008d1
:0100270008d0
:0100280008cf
:0100290008ce
:01002a0001d4
:01002b0000d4
:01002c0000d3
:01002d0000d2
:01002e0001d0
:01002f0008c8
:0100300008c7
:0100310008c6
:0100320008c5
:0100330008c4
:0100340008c3
:0100350008c2
:0100360008c1
:0100370008c0
:0100380008bf
:0100390008be
:01003a0001c4
:01003b0000c4
:01003c0000c3
:01003d0001c1
:01003e0008b9
:01003f0008b8
:0100400008b7
:0100410008b6
:0100420002bb
:0100430002ba
:0100440002b9
:0100450008b2
:0100460008b1
:0100470008b0
:0100480008af
:0100490001b5
:01004a0000b5
:01004b0001b3
:01004c0008ab
:01004d0008aa
:01004e0008a9
:01004f0008a8
:0100500002ad
:0100510001ad
:0100520001ac
:0100530001ab
:0100540002a9
:0100550008a2
:0100560008a1
:0100570008a0
:01005800089f
:0100590001a5
:01005a0001a4
:01005b00089c
:01005c00089b
:01005d00089a
:01005e00029f
:01005f00029e
:01006000029d
:01006100029c
:01006200019c
:01006300029a
:010064000299
:010065000892
:010066000891
:010067000890
:010068000196
:010069000195
:01006a00088d
:01006b00088c
:01006c00088b
:01006d000290
:01006e00028f
:01006f00028e
:01007000018e
:01007100028c
:01007200028b
:01007300028a
:010074000883
:010075000882
:010076000881
:010077000187
:010078000186
:01007900087e
:01007a00087d
:01007b00087c
:01007c000281
:01007d000280
:01007e00027f
:01007f00017f
:01008000027d
:01008100027c
:01008200027b
:010083000874
:010084000873
:010085000872
:010086000178
:010087000177
:01008800086f
:01008900086e
:01008a00086d
:01008b00086c
:01008c000271
:01008d000270
:01008e000170
:01008f00026e
:01009000026d
:010091000866
:010092000865
:010093000864
:010094000863
:010095000169
:010096000069
:010097000167
:01009800085f
:01009900085e
:01009a00085d
:01009b00085c
:01009c000261
:01009d000260
:01009e00025f
:01009f000858
:0100a0000857
:0100a1000856
:0100a2000855
:0100a300015b
:0100a400005b
:0100a500005a
:0100a6000158
:0100a7000850
:0100a800084f
:0100a900084e
:0100aa00084d
:0100ab00084c
:0100ac00084b
:0100ad00084a
:0100ae000849
:0100af000848
:0100b0000847
:0100b1000846
:0100b200014c
:0100b300004c
:0100b400004b
:0100b500004a
:0100b6000148
:0100b7000840
:0100b800083f
:0100b900083e
:0100ba00083d
:0100bb00083c
:0100bc00083b
:0100bd00083a
:0100be000839
:0100bf000838
:0100c000013e
:0100c100003e
:0100c200003d
:0100c300003c
:0100c400003b
:0100c500003a
:0100c6000138
:0100c7000137
:0100c800082f
:0100c900082e
:0100ca00082d
:0100cb00082c
:0100cc00082b
:0100cd000131
:0100ce000130
:0100cf000030
:0100d000002f
:0100d100002e
:0100d200002d
:0100d300002c
:0100d400002b
:0100d500002a
:0100d6000029
:0100d7000127
:0100d8000126
:0100d9000125
:0100da000124
:0100db000123
:0100dc000023
:0100dd000022
:0100de000021
:0100df000020
:0100e000001f
:00000001ff