:0100000000ff
:0100010000fe
:0100020000fd
:0100030000fc
:0100040000fb
:0100050001f9
:0100060001f8
:0100070001f7
:0100080001f6
:0100090001f5
:01000a0000f5
:01000b0000f4
:01000c0000f3
:01000d0000f2
:01000e0000f1
:01000f0000f0
:0100100000ef
:0100110000ee
:0100120001ec
:0100130001eb
:0100140001ea
:0100150001e9
:0100160001e8
:0100170001e7
:0100180001e6
:0100190001e5
:01001a0001e4
:01001b0000e4
:01001c0000e3
:01001d0000e2
:01001e0000e1
:01001f0000e0
:0100200001de
:0100210001dd
:0100220001dc
:0100230001db
:0100240001da
:0100250001d9
:0100260001d8
:0100270001d7
:0100280001d6
:0100290001d5
:01002a0001d4
:01002b0000d4
:01002c0000d3
:01002d0000d2
:01002e0001d0
:01002f0001cf
:0100300001ce
:0100310001cd
:0100320001cc
:0100330001cb
:0100340001ca
:0100350001c9
:0100360001c8
:0100370001c7
:0100380001c6
:0100390001c5
:01003a0001c4
:01003b0000c4
:01003c0000c3
:01003d0001c1
:01003e0001c0
:01003f0001bf
:0100400001be
:0100410001bd
:0100420002bb
:0100430002ba
:0100440002b9
:0100450001b9
:0100460001b8
:0100470001b7
:0100480001b6
:0100490001b5
:01004a0000b5
:01004b0001b3
:01004c0001b2
:01004d0001b1
:01004e0001b0
:01004f0001af
:0100500002ad
:0100510001ad
:0100520001ac
:0100530001ab
:0100540002a9
:0100550001a9
:0100560001a8
:0100570001a7
:0100580001a6
:0100590001a5
:01005a0001a4
:01005b0001a3
:01005c0001a2
:01005d0001a1
:01005e00029f
:01005f00029e
:01006000019e
:01006100029c
:01006200019c
:01006300029a
:010064000299
:010065000199
:010066000198
:010067000197
:010068000196
:010069000195
:01006a000194
:01006b000193
:01006c000192
:01006d000290
:01006e00028f
:01006f00018f
:01007000018e
:01007100018d
:01007200028b
:01007300028a
:01007400018a
:010075000189
:010076000188
:010077000187
:010078000186
:010079000185
:01007a000184
:01007b000183
:01007c000281
:01007d000280
:01007e000180
:01007f00027e
:01008000017e
:01008100027c
:01008200027b
:01008300017b
:01008400017a
:010085000179
:010086000178
:010087000177
:010088000176
:010089000175
:01008a000174
:01008b000173
:01008c000271
:01008d000171
:01008e000170
:01008f00016f
:01009000026d
:01009100016d
:01009200016c
:01009300016b
:01009400016a
:010095000169
:010096000069
:010097000167
:010098000166
:010099000165
:01009a000164
:01009b000163
:01009c000261
:01009d000260
:01009e00025f
:01009f00015f
:0100a000015e
:0100a100015d
:0100a200015c
:0100a300015b
:0100a400005b
:0100a500005a
:0100a6000158
:0100a7000157
:0100a8000156
:0100a9000155
:0100aa000154
:0100ab000153
:0100ac000152
:0100ad000151
:0100ae000150
:0100af00014f
:0100b000014e
:0100b100014d
:0100b200014c
:0100b300004c
:0100b400004b
:0100b500004a
:0100b6000148
:0100b7000147
:0100b8000146
:0100b9000145
:0100ba000144
:0100bb000143
:0100bc000142
:0100bd000141
:0100be000140
:0100bf00013f
:0100c000013e
:0100c100003e
:0100c200003d
:0100c300003c
:0100c400003b
:0100c500003a
:0100c6000138
:0100c7000137
:0100c8000136
:0100c9000135
:0100ca000134
:0100cb000133
:0100cc000132
:0100cd000131
:0100ce000130
:0100cf000030
:0100d000002f
:0100d100002e
:0100d200002d
:0100d300002c
:0100d400002b
:0100d500002a
:0100d6000029
:0100d7000127
:0100d8000126
:0100d9000125
:0100da000124
:0100db000123
:0100dc000023
:0100dd000022
:0100de000021
:0100df000020
:0100e000001f
:00000001ff