:0100000000ff
:0100010000fe
:0100020000fd
:0100030000fc
:0100040000fb
:0100050001f9
:0100060001f8
:0100070001f7
:0100080001f6
:0100090001f5
:01000a0000f5
:01000b0000f4
:01000c0000f3
:01000d0000f2
:01000e0000f1
:01000f0000f0
:0100100000ef
:0100110000ee
:0100120001ec
:0100130001eb
:0100140004e7
:0100150004e6
:0100160004e5
:0100170004e4
:0100180004e3
:0100190001e5
:01001a0001e4
:01001b0000e4
:01001c0000e3
:01001d0000e2
:01001e0000e1
:01001f0000e0
:0100200001de
:0100210004da
:0100220004d9
:0100230004d8
:0100240004d7
:0100250004d6
:0100260004d5
:0100270004d4
:0100280004d3
:0100290004d2
:01002a0001d4
:01002b0000d4
:01002c0000d3
:01002d0000d2
:01002e0001d0
:01002f0004cc
:0100300004cb
:0100310004ca
:0100320004c9
:0100330004c8
:0100340004c7
:0100350004c6
:0100360004c5
:0100370004c4
:0100380004c3
:0100390004c2
:01003a0001c4
:01003b0000c4
:01003c0000c3
:01003d0001c1
:01003e0004bd
:01003f0004bc
:0100400004bb
:0100410004ba
:0100420002bb
:0100430002ba
:0100440002b9
:0100450004b6
:0100460004b5
:0100470004b4
:0100480004b3
:0100490001b5
:01004a0000b5
:01004b0001b3
:01004c0004af
:01004d0004ae
:01004e0004ad
:01004f0004ac
:0100500002ad
:0100510001ad
:0100520001ac
:0100530001ab
:0100540002a9
:0100550004a6
:0100560004a5
:0100570004a4
:0100580004a3
:0100590001a5
:01005a0001a4
:01005b0004a0
:01005c00049f
:01005d00049e
:01005e00029f
:01005f00029e
:01006000029d
:01006100029c
:01006200019c
:01006300029a
:010064000299
:010065000496
:010066000495
:010067000494
:010068000196
:010069000195
:01006a000491
:01006b000490
:01006c00048f
:01006d000290
:01006e00028f
:01006f00018f
:01007000018e
:01007100018d
:01007200028b
:01007300028a
:010074000487
:010075000486
:010076000485
:010077000187
:010078000186
:010079000482
:01007a000481
:01007b000480
:01007c000281
:01007d000280
:01007e000180
:01007f00027e
:01008000027d
:01008100027c
:01008200027b
:010083000478
:010084000477
:010085000476
:010086000178
:010087000177
:010088000473
:010089000472
:01008a000471
:01008b000470
:01008c000271
:01008d000171
:01008e000170
:01008f00016f
:01009000026d
:01009100046a
:010092000469
:010093000468
:010094000467
:010095000169
:010096000069
:010097000167
:010098000463
:010099000462
:01009a000461
:01009b000460
:01009c000261
:01009d000260
:01009e00025f
:01009f00045c
:0100a000045b
:0100a100045a
:0100a2000459
:0100a300015b
:0100a400005b
:0100a500005a
:0100a6000158
:0100a7000454
:0100a8000453
:0100a9000452
:0100aa000451
:0100ab000450
:0100ac00044f
:0100ad00044e
:0100ae00044d
:0100af00044c
:0100b000044b
:0100b100044a
:0100b200014c
:0100b300004c
:0100b400004b
:0100b500004a
:0100b6000148
:0100b7000444
:0100b8000443
:0100b9000442
:0100ba000441
:0100bb000440
:0100bc00043f
:0100bd00043e
:0100be00043d
:0100bf00043c
:0100c000013e
:0100c100003e
:0100c200003d
:0100c300003c
:0100c400003b
:0100c500003a
:0100c6000138
:0100c7000137
:0100c8000433
:0100c9000432
:0100ca000431
:0100cb000430
:0100cc00042f
:0100cd000131
:0100ce000130
:0100cf000030
:0100d000002f
:0100d100002e
:0100d200002d
:0100d300002c
:0100d400002b
:0100d500002a
:0100d6000029
:0100d7000127
:0100d8000126
:0100d9000125
:0100da000124
:0100db000123
:0100dc000023
:0100dd000022
:0100de000021
:0100df000020
:0100e000001f
:00000001ff