:0100000000ff
:0100010000fe
:0100020000fd
:0100030000fc
:0100040000fb
:0100050001f9
:0100060001f8
:0100070001f7
:0100080001f6
:0100090001f5
:01000a0000f5
:01000b0000f4
:01000c0000f3
:01000d0000f2
:01000e0000f1
:01000f0000f0
:0100100000ef
:0100110000ee
:0100120001ec
:0100130001eb
:0100140005e6
:0100150005e5
:0100160005e4
:0100170005e3
:0100180005e2
:0100190001e5
:01001a0001e4
:01001b0000e4
:01001c0000e3
:01001d0000e2
:01001e0000e1
:01001f0000e0
:0100200001de
:0100210005d9
:0100220005d8
:0100230005d7
:0100240005d6
:0100250005d5
:0100260005d4
:0100270005d3
:0100280005d2
:0100290005d1
:01002a0001d4
:01002b0000d4
:01002c0000d3
:01002d0000d2
:01002e0001d0
:01002f0005cb
:0100300005ca
:0100310005c9
:0100320005c8
:0100330005c7
:0100340005c6
:0100350005c5
:0100360005c4
:0100370005c3
:0100380005c2
:0100390005c1
:01003a0001c4
:01003b0000c4
:01003c0000c3
:01003d0001c1
:01003e0005bc
:01003f0005bb
:0100400005ba
:0100410005b9
:0100420002bb
:0100430002ba
:0100440002b9
:0100450005b5
:0100460005b4
:0100470005b3
:0100480005b2
:0100490001b5
:01004a0000b5
:01004b0001b3
:01004c0005ae
:01004d0005ad
:01004e0005ac
:01004f0005ab
:0100500002ad
:0100510001ad
:0100520001ac
:0100530001ab
:0100540002a9
:0100550005a5
:0100560005a4
:0100570005a3
:0100580005a2
:0100590001a5
:01005a0001a4
:01005b00059f
:01005c00059e
:01005d00059d
:01005e00029f
:01005f00029e
:01006000029d
:01006100029c
:01006200019c
:01006300029a
:010064000299
:010065000595
:010066000594
:010067000593
:010068000196
:010069000195
:01006a000590
:01006b00058f
:01006c00058e
:01006d000290
:01006e00028f
:01006f00018f
:01007000018e
:01007100018d
:01007200028b
:01007300028a
:010074000586
:010075000585
:010076000584
:010077000187
:010078000186
:010079000581
:01007a000580
:01007b00057f
:01007c000281
:01007d000280
:01007e00027f
:01007f00027e
:01008000017e
:01008100027c
:01008200027b
:010083000577
:010084000576
:010085000575
:010086000178
:010087000177
:010088000572
:010089000571
:01008a000570
:01008b00056f
:01008c000271
:01008d000171
:01008e000170
:01008f00016f
:01009000026d
:010091000569
:010092000568
:010093000567
:010094000566
:010095000169
:010096000069
:010097000167
:010098000562
:010099000561
:01009a000560
:01009b00055f
:01009c000261
:01009d000260
:01009e00025f
:01009f00055b
:0100a000055a
:0100a1000559
:0100a2000558
:0100a300015b
:0100a400005b
:0100a500005a
:0100a6000158
:0100a7000553
:0100a8000552
:0100a9000551
:0100aa000550
:0100ab00054f
:0100ac00054e
:0100ad00054d
:0100ae00054c
:0100af00054b
:0100b000054a
:0100b1000549
:0100b200014c
:0100b300004c
:0100b400004b
:0100b500004a
:0100b6000148
:0100b7000543
:0100b8000542
:0100b9000541
:0100ba000540
:0100bb00053f
:0100bc00053e
:0100bd00053d
:0100be00053c
:0100bf00053b
:0100c000013e
:0100c100003e
:0100c200003d
:0100c300003c
:0100c400003b
:0100c500003a
:0100c6000138
:0100c7000137
:0100c8000532
:0100c9000531
:0100ca000530
:0100cb00052f
:0100cc00052e
:0100cd000131
:0100ce000130
:0100cf000030
:0100d000002f
:0100d100002e
:0100d200002d
:0100d300002c
:0100d400002b
:0100d500002a
:0100d6000029
:0100d7000127
:0100d8000126
:0100d9000125
:0100da000124
:0100db000123
:0100dc000023
:0100dd000022
:0100de000021
:0100df000020
:0100e000001f
:00000001ff