:0100000000ff
:0100010000fe
:0100020000fd
:0100030000fc
:0100040000fb
:0100050001f9
:0100060001f8
:0100070001f7
:0100080001f6
:0100090001f5
:01000a0000f5
:01000b0000f4
:01000c0000f3
:01000d0000f2
:01000e0000f1
:01000f0000f0
:0100100000ef
:0100110000ee
:0100120001ec
:0100130001eb
:010014000be0
:010015000bdf
:010016000bde
:010017000bdd
:010018000bdc
:0100190001e5
:01001a0001e4
:01001b0000e4
:01001c0000e3
:01001d0000e2
:01001e0000e1
:01001f0000e0
:0100200001de
:010021000bd3
:010022000bd2
:010023000bd1
:010024000bd0
:010025000bcf
:010026000bce
:010027000bcd
:010028000bcc
:010029000bcb
:01002a0001d4
:01002b0000d4
:01002c0000d3
:01002d0000d2
:01002e0001d0
:01002f000bc5
:010030000bc4
:010031000bc3
:010032000bc2
:010033000bc1
:010034000bc0
:010035000bbf
:010036000bbe
:010037000bbd
:010038000bbc
:010039000bbb
:01003a0001c4
:01003b0000c4
:01003c0000c3
:01003d0001c1
:01003e000bb6
:01003f000bb5
:010040000bb4
:010041000bb3
:0100420002bb
:0100430002ba
:0100440002b9
:010045000baf
:010046000bae
:010047000bad
:010048000bac
:0100490001b5
:01004a0000b5
:01004b0001b3
:01004c000ba8
:01004d000ba7
:01004e000ba6
:01004f000ba5
:0100500002ad
:0100510001ad
:0100520001ac
:0100530001ab
:0100540002a9
:010055000b9f
:010056000b9e
:010057000b9d
:010058000b9c
:0100590001a5
:01005a0001a4
:01005b000b99
:01005c000b98
:01005d000b97
:01005e00029f
:01005f00029e
:01006000019e
:01006100029c
:01006200029b
:01006300029a
:010064000299
:010065000b8f
:010066000b8e
:010067000b8d
:010068000196
:010069000195
:01006a000b8a
:01006b000b89
:01006c000b88
:01006d000290
:01006e00028f
:01006f00018f
:01007000018e
:01007100018d
:01007200028b
:01007300028a
:010074000b80
:010075000b7f
:010076000b7e
:010077000187
:010078000186
:010079000b7b
:01007a000b7a
:01007b000b79
:01007c000281
:01007d000280
:01007e000180
:01007f00027e
:01008000017e
:01008100027c
:01008200027b
:010083000b71
:010084000b70
:010085000b6f
:010086000178
:010087000177
:010088000b6c
:010089000b6b
:01008a000b6a
:01008b000b69
:01008c000271
:01008d000171
:01008e000170
:01008f00016f
:01009000026d
:010091000b63
:010092000b62
:010093000b61
:010094000b60
:010095000169
:010096000069
:010097000167
:010098000b5c
:010099000b5b
:01009a000b5a
:01009b000b59
:01009c000261
:01009d000260
:01009e00025f
:01009f000b55
:0100a0000b54
:0100a1000b53
:0100a2000b52
:0100a300015b
:0100a400005b
:0100a500005a
:0100a6000158
:0100a7000b4d
:0100a8000b4c
:0100a9000b4b
:0100aa000b4a
:0100ab000b49
:0100ac000b48
:0100ad000b47
:0100ae000b46
:0100af000b45
:0100b0000b44
:0100b1000b43
:0100b200014c
:0100b300004c
:0100b400004b
:0100b500004a
:0100b6000148
:0100b7000b3d
:0100b8000b3c
:0100b9000b3b
:0100ba000b3a
:0100bb000b39
:0100bc000b38
:0100bd000b37
:0100be000b36
:0100bf000b35
:0100c000013e
:0100c100003e
:0100c200003d
:0100c300003c
:0100c400003b
:0100c500003a
:0100c6000138
:0100c7000137
:0100c8000b2c
:0100c9000b2b
:0100ca000b2a
:0100cb000b29
:0100cc000b28
:0100cd000131
:0100ce000130
:0100cf000030
:0100d000002f
:0100d100002e
:0100d200002d
:0100d300002c
:0100d400002b
:0100d500002a
:0100d6000029
:0100d7000127
:0100d8000126
:0100d9000125
:0100da000124
:0100db000123
:0100dc000023
:0100dd000022
:0100de000021
:0100df000020
:0100e000001f
:00000001ff