:0100000000ff
:0100010000fe
:0100020000fd
:0100030000fc
:0100040000fb
:0100050001f9
:0100060001f8
:0100070001f7
:0100080001f6
:0100090001f5
:01000a0000f5
:01000b0000f4
:01000c0000f3
:01000d0000f2
:01000e0000f1
:01000f0000f0
:0100100000ef
:0100110000ee
:0100120001ec
:0100130001eb
:0100140002e9
:0100150002e8
:0100160002e7
:0100170002e6
:0100180002e5
:0100190001e5
:01001a0001e4
:01001b0000e4
:01001c0000e3
:01001d0000e2
:01001e0000e1
:01001f0000e0
:0100200001de
:0100210002dc
:0100220002db
:0100230002da
:0100240002d9
:0100250002d8
:0100260002d7
:0100270002d6
:0100280002d5
:0100290002d4
:01002a0001d4
:01002b0000d4
:01002c0000d3
:01002d0000d2
:01002e0001d0
:01002f0003cd
:0100300003cc
:0100310003cb
:0100320003ca
:0100330003c9
:0100340003c8
:0100350003c7
:0100360003c6
:0100370003c5
:0100380003c4
:0100390003c3
:01003a0001c4
:01003b0000c4
:01003c0000c3
:01003d0001c1
:01003e0003be
:01003f0003bd
:0100400003bc
:0100410003bb
:0100420002bb
:0100430002ba
:0100440002b9
:0100450003b7
:0100460003b6
:0100470003b5
:0100480003b4
:0100490001b5
:01004a0000b5
:01004b0001b3
:01004c0003b0
:01004d0003af
:01004e0003ae
:01004f0003ad
:0100500002ad
:0100510001ad
:0100520001ac
:0100530001ab
:0100540002a9
:0100550003a7
:0100560003a6
:0100570003a5
:0100580003a4
:0100590001a5
:01005a0001a4
:01005b0003a1
:01005c0003a0
:01005d00039f
:01005e00029f
:01005f00029e
:01006000019e
:01006100029c
:01006200019c
:01006300029a
:010064000299
:010065000397
:010066000396
:010067000395
:010068000196
:010069000195
:01006a000392
:01006b000391
:01006c000390
:01006d000290
:01006e00028f
:01006f00018f
:01007000018e
:01007100018d
:01007200028b
:01007300028a
:010074000388
:010075000387
:010076000386
:010077000187
:010078000186
:010079000383
:01007a000382
:01007b000381
:01007c000281
:01007d000280
:01007e00027f
:01007f00027e
:01008000017e
:01008100027c
:01008200027b
:010083000379
:010084000378
:010085000377
:010086000178
:010087000177
:010088000374
:010089000373
:01008a000372
:01008b000371
:01008c000271
:01008d000171
:01008e000170
:01008f00016f
:01009000026d
:01009100036b
:01009200036a
:010093000369
:010094000368
:010095000169
:010096000069
:010097000167
:010098000364
:010099000363
:01009a000362
:01009b000361
:01009c000261
:01009d000260
:01009e00025f
:01009f00035d
:0100a000035c
:0100a100035b
:0100a200035a
:0100a300015b
:0100a400005b
:0100a500005a
:0100a6000158
:0100a7000355
:0100a8000354
:0100a9000353
:0100aa000352
:0100ab000351
:0100ac000350
:0100ad00034f
:0100ae00034e
:0100af00034d
:0100b000034c
:0100b100034b
:0100b200014c
:0100b300004c
:0100b400004b
:0100b500004a
:0100b6000148
:0100b7000246
:0100b8000245
:0100b9000244
:0100ba000243
:0100bb000242
:0100bc000241
:0100bd000240
:0100be00023f
:0100bf00023e
:0100c000013e
:0100c100003e
:0100c200003d
:0100c300003c
:0100c400003b
:0100c500003a
:0100c6000138
:0100c7000137
:0100c8000235
:0100c9000234
:0100ca000233
:0100cb000232
:0100cc000231
:0100cd000131
:0100ce000130
:0100cf000030
:0100d000002f
:0100d100002e
:0100d200002d
:0100d300002c
:0100d400002b
:0100d500002a
:0100d6000029
:0100d7000127
:0100d8000126
:0100d9000125
:0100da000124
:0100db000123
:0100dc000023
:0100dd000022
:0100de000021
:0100df000020
:0100e000001f
:00000001ff