:0100000001fe
:0100010009f5
:0100020001fc
:0100030001fb
:0100040009f2
:0100050001f9
:0100060001f8
:0100070009ef
:0100080001f6
:0100090001f5
:01000a0009ec
:01000b0001f3
:01000c0001f2
:01000d0009e9
:01000e0001f0
:01000f0001ef
:0100100009e6
:0100110001ed
:0100120001ec
:0100130009e3
:0100140001ea
:0100150001e9
:0100160009e0
:0100170001e7
:0100180001e6
:0100190009dd
:01001a0001e4
:01001b0001e3
:01001c0009da
:01001d0001e1
:01001e0001e0
:01001f0009d7
:0100200001de
:0100210001dd
:0100220009d4
:0100230001db
:0100240001da
:0100250009d1
:0100260001d8
:0100270001d7
:0100280009ce
:0100290001d5
:01002a0001d4
:01002b0009cb
:01002c0001d2
:01002d0001d1
:01002e0009c8
:01002f0001cf
:0100300001ce
:0100310009c5
:0100320001cc
:0100330001cb
:0100340009c2
:0100350001c9
:0100360001c8
:0100370009bf
:0100380001c6
:0100390001c5
:01003a0009bc
:01003b0001c3
:01003c0001c2
:01003d0009b9
:01003e0001c0
:01003f0001bf
:0100400009b6
:0100410001bd
:0100420001bc
:0100430009b3
:0100440001ba
:0100450001b9
:0100460009b0
:0100470001b7
:0100480001b6
:0100490009ad
:01004a0001b4
:01004b0001b3
:01004c0009aa
:01004d0001b1
:01004e0001b0
:01004f0009a7
:0100500001ae
:0100510001ad
:0100520009a4
:0100530001ab
:0100540001aa
:0100550009a1
:0100560001a8
:0100570001a7
:01005800099e
:0100590001a5
:01005a0001a4
:01005b00099b
:01005c0001a2
:01005d0001a1
:01005e000998
:01005f00019f
:01006000019e
:010061000995
:01006200019c
:01006300019b
:010064000992
:010065000199
:010066000198
:01006700098f
:010068000196
:010069000195
:01006a00098c
:01006b000193
:01006c000192
:01006d000989
:01006e000190
:01006f00018f
:010070000986
:01007100018d
:01007200018c
:010073000983
:01007400018a
:010075000189
:010076000980
:010077000187
:010078000186
:01007900097d
:01007a000184
:01007b000183
:01007c00097a
:01007d000181
:01007e000180
:01007f000d73
:01008000017e
:01008100017d
:01008200027b
:01008300017b
:01008400017a
:010085000278
:010086000178
:010087000177
:010088000275
:010089000175
:01008a000174
:01008b000272
:01008c000172
:01008d000171
:01008e00026f
:01008f00016f
:01009000016e
:01009100016d
:01009200016c
:01009300016b
:01009400016a
:010095000169
:00000001ff