:010000000df2
:010001000df1
:010002000df0
:010003000def
:010004000dee
:010005000ded
:010006000dec
:010007000deb
:010008000dea
:010009000de9
:01000a0000f5
:01000b0000f4
:01000c0000f3
:01000d0000f2
:01000e0001f0
:01000f0001ef
:0100100001ee
:0100110001ed
:0100120000ed
:0100130000ec
:0100140000eb
:0100150000ea
:0100160000e9
:0100170000e8
:0100180001e6
:0100190001e5
:01001a0002e3
:01001b0002e2
:01001c0002e1
:01001d0002e0
:01001e0001e0
:01001f0001df
:0100200000df
:0100210000de
:0100220000dd
:0100230001db
:0100240002d9
:0100250002d8
:0100260002d7
:0100270002d6
:0100280002d5
:0100290002d4
:01002a0002d3
:01002b0002d2
:01002c0001d2
:01002d0000d2
:01002e0000d1
:01002f0001cf
:0100300002cd
:0100310002cc
:0100320002cb
:0100330002ca
:0100340002c9
:0100350002c8
:0100360002c7
:0100370002c6
:0100380001c6
:0100390000c6
:01003a0001c4
:01003b0004c0
:01003c0004bf
:01003d0004be
:01003e0004bd
:01003f0004bc
:0100400004bb
:0100410004ba
:0100420004b9
:0100430004b8
:0100440004b7
:0100450001b9
:0100460001b8
:0100470004b4
:0100480004b3
:0100490004b2
:01004a0004b1
:01004b0004b0
:01004c0004af
:01004d0004ae
:01004e0004ad
:01004f0004ac
:0100500004ab
:0100510001ad
:0100520001ac
:0100530004a8
:0100540004a7
:0100550004a6
:0100560004a5
:0100570004a4
:0100580004a3
:0100590004a2
:01005a0004a1
:01005b0004a0
:01005c00049f
:01005d0001a1
:01005e0001a0
:01005f00049c
:01006000049b
:01006100049a
:010062000499
:010063000498
:010064000497
:010065000496
:010066000495
:010067000494
:010068000493
:010069000195
:01006a000095
:01006b000193
:01006c000291
:01006d000290
:01006e00028f
:01006f00028e
:01007000028d
:01007100028c
:01007200028b
:01007300028a
:01007400018a
:01007500008a
:010076000089
:010077000187
:010078000285
:010079000284
:01007a000283
:01007b000282
:01007c000281
:01007d000280
:01007e00027f
:01007f00027e
:01008000017e
:01008100007e
:01008200007d
:01008300007c
:01008400017a
:010085000179
:010086000277
:010087000276
:010088000275
:010089000274
:01008a000174
:01008b000173
:01008c000073
:01008d000072
:01008e000071
:01008f000070
:01009000006f
:01009100006e
:01009200016c
:01009300016b
:01009400016a
:010095000169
:010096000069
:010097000068
:010098000067
:010099000066
:00000001ff