:010000000df2
:010001000df1
:010002000df0
:010003000def
:010004000dee
:010005000ded
:010006000dec
:010007000deb
:010008000dea
:010009000de9
:01000a0000f5
:01000b0000f4
:01000c0000f3
:01000d0000f2
:01000e0001f0
:01000f0001ef
:0100100001ee
:0100110001ed
:0100120000ed
:0100130000ec
:0100140000eb
:0100150000ea
:0100160000e9
:0100170000e8
:0100180001e6
:0100190001e5
:01001a0002e3
:01001b0002e2
:01001c0002e1
:01001d0002e0
:01001e0001e0
:01001f0001df
:0100200000df
:0100210000de
:0100220000dd
:0100230001db
:0100240002d9
:0100250002d8
:0100260002d7
:0100270002d6
:0100280002d5
:0100290002d4
:01002a0002d3
:01002b0002d2
:01002c0001d2
:01002d0000d2
:01002e0000d1
:01002f0001cf
:0100300002cd
:0100310002cc
:0100320002cb
:0100330002ca
:0100340002c9
:0100350002c8
:0100360002c7
:0100370002c6
:0100380001c6
:0100390000c6
:01003a0001c4
:01003b000bb9
:01003c000bb8
:01003d000bb7
:01003e000bb6
:01003f000bb5
:010040000bb4
:010041000bb3
:010042000bb2
:010043000bb1
:010044000bb0
:0100450001b9
:0100460001b8
:010047000bad
:010048000bac
:010049000bab
:01004a000baa
:01004b000ba9
:01004c000ba8
:01004d000ba7
:01004e000ba6
:01004f000ba5
:010050000ba4
:0100510001ad
:0100520001ac
:010053000ba1
:010054000ba0
:010055000b9f
:010056000b9e
:010057000b9d
:010058000b9c
:010059000b9b
:01005a000b9a
:01005b000b99
:01005c000b98
:01005d0001a1
:01005e0001a0
:01005f000b95
:010060000b94
:010061000b93
:010062000b92
:010063000b91
:010064000b90
:010065000b8f
:010066000b8e
:010067000b8d
:010068000b8c
:010069000195
:01006a000095
:01006b000193
:01006c000291
:01006d000290
:01006e00028f
:01006f00028e
:01007000028d
:01007100028c
:01007200028b
:01007300028a
:01007400018a
:01007500008a
:010076000089
:010077000187
:010078000285
:010079000284
:01007a000283
:01007b000282
:01007c000281
:01007d000280
:01007e00027f
:01007f00027e
:01008000017e
:01008100007e
:01008200007d
:01008300007c
:01008400017a
:010085000179
:010086000277
:010087000276
:010088000275
:010089000274
:01008a000174
:01008b000173
:01008c000073
:01008d000072
:01008e000071
:01008f000070
:01009000006f
:01009100006e
:01009200016c
:01009300016b
:01009400016a
:010095000169
:010096000069
:010097000068
:010098000067
:010099000066
:00000001ff