:010000000df2
:010001000df1
:010002000df0
:010003000def
:010004000dee
:010005000ded
:010006000dec
:010007000deb
:010008000dea
:010009000de9
:01000a0000f5
:01000b0000f4
:01000c0000f3
:01000d0000f2
:01000e0001f0
:01000f0001ef
:0100100001ee
:0100110001ed
:0100120000ed
:0100130000ec
:0100140000eb
:0100150000ea
:0100160000e9
:0100170000e8
:0100180001e6
:0100190001e5
:01001a0006df
:01001b0006de
:01001c0006dd
:01001d0006dc
:01001e0001e0
:01001f0001df
:0100200000df
:0100210000de
:0100220000dd
:0100230001db
:0100240006d5
:0100250006d4
:0100260006d3
:0100270006d2
:0100280006d1
:0100290006d0
:01002a0006cf
:01002b0006ce
:01002c0001d2
:01002d0000d2
:01002e0000d1
:01002f0001cf
:0100300006c9
:0100310006c8
:0100320006c7
:0100330006c6
:0100340006c5
:0100350006c4
:0100360006c3
:0100370006c2
:0100380001c6
:0100390000c6
:01003a0001c4
:01003b0006be
:01003c0006bd
:01003d0006bc
:01003e0006bb
:01003f0006ba
:0100400006b9
:0100410006b8
:0100420006b7
:0100430006b6
:0100440006b5
:0100450001b9
:0100460001b8
:0100470006b2
:0100480006b1
:0100490006b0
:01004a0006af
:01004b0006ae
:01004c0006ad
:01004d0006ac
:01004e0006ab
:01004f0006aa
:0100500006a9
:0100510001ad
:0100520001ac
:0100530006a6
:0100540006a5
:0100550006a4
:0100560006a3
:0100570006a2
:0100580006a1
:0100590006a0
:01005a00069f
:01005b00069e
:01005c00069d
:01005d0001a1
:01005e0001a0
:01005f00069a
:010060000699
:010061000698
:010062000697
:010063000696
:010064000695
:010065000694
:010066000693
:010067000692
:010068000691
:010069000195
:01006a000095
:01006b000193
:01006c00068d
:01006d00068c
:01006e00068b
:01006f00068a
:010070000689
:010071000688
:010072000687
:010073000686
:01007400018a
:01007500008a
:010076000089
:010077000187
:010078000681
:010079000680
:01007a00067f
:01007b00067e
:01007c00067d
:01007d00067c
:01007e00067b
:01007f00067a
:01008000017e
:01008100007e
:01008200007d
:01008300007c
:01008400017a
:010085000179
:010086000673
:010087000672
:010088000671
:010089000670
:01008a000174
:01008b000173
:01008c000073
:01008d000072
:01008e000071
:01008f000070
:01009000006f
:01009100006e
:01009200016c
:01009300016b
:01009400016a
:010095000169
:010096000069
:010097000068
:010098000067
:010099000066
:00000001ff