:010000000df2
:010001000df1
:010002000df0
:010003000def
:010004000dee
:010005000ded
:010006000dec
:010007000deb
:010008000dea
:010009000de9
:01000a0000f5
:01000b0000f4
:01000c0000f3
:01000d0000f2
:01000e0001f0
:01000f0001ef
:0100100001ee
:0100110001ed
:0100120000ed
:0100130000ec
:0100140000eb
:0100150000ea
:0100160000e9
:0100170000e8
:0100180001e6
:0100190001e5
:01001a000bda
:01001b000bd9
:01001c000bd8
:01001d000bd7
:01001e0001e0
:01001f0001df
:0100200000df
:0100210000de
:0100220000dd
:0100230001db
:010024000bd0
:010025000bcf
:010026000bce
:010027000bcd
:010028000bcc
:010029000bcb
:01002a000bca
:01002b000bc9
:01002c0001d2
:01002d0000d2
:01002e0000d1
:01002f0001cf
:010030000bc4
:010031000bc3
:010032000bc2
:010033000bc1
:010034000bc0
:010035000bbf
:010036000bbe
:010037000bbd
:0100380001c6
:0100390000c6
:01003a0001c4
:01003b000bb9
:01003c000bb8
:01003d000bb7
:01003e000bb6
:01003f000bb5
:010040000bb4
:010041000bb3
:010042000bb2
:010043000bb1
:010044000bb0
:0100450001b9
:0100460001b8
:010047000bad
:010048000bac
:010049000bab
:01004a000baa
:01004b000ba9
:01004c000ba8
:01004d000ba7
:01004e000ba6
:01004f000ba5
:010050000ba4
:0100510001ad
:0100520001ac
:010053000ba1
:010054000ba0
:010055000b9f
:010056000b9e
:010057000b9d
:010058000b9c
:010059000b9b
:01005a000b9a
:01005b000b99
:01005c000b98
:01005d0001a1
:01005e0001a0
:01005f000b95
:010060000b94
:010061000b93
:010062000b92
:010063000b91
:010064000b90
:010065000b8f
:010066000b8e
:010067000b8d
:010068000b8c
:010069000195
:01006a000095
:01006b000193
:01006c000b88
:01006d000b87
:01006e000b86
:01006f000b85
:010070000b84
:010071000b83
:010072000b82
:010073000b81
:01007400018a
:01007500008a
:010076000089
:010077000187
:010078000b7c
:010079000b7b
:01007a000b7a
:01007b000b79
:01007c000b78
:01007d000b77
:01007e000b76
:01007f000b75
:01008000017e
:01008100007e
:01008200007d
:01008300007c
:01008400017a
:010085000179
:010086000b6e
:010087000b6d
:010088000b6c
:010089000b6b
:01008a000174
:01008b000173
:01008c000073
:01008d000072
:01008e000071
:01008f000070
:01009000006f
:01009100006e
:01009200016c
:01009300016b
:01009400016a
:010095000169
:010096000069
:010097000068
:010098000067
:010099000066
:00000001ff