:010000000df2
:010001000df1
:010002000df0
:010003000def
:010004000dee
:010005000ded
:010006000dec
:010007000deb
:010008000dea
:010009000de9
:01000a0000f5
:01000b0000f4
:01000c0000f3
:01000d0000f2
:01000e0001f0
:01000f0001ef
:0100100001ee
:0100110001ed
:0100120000ed
:0100130000ec
:0100140000eb
:0100150000ea
:0100160000e9
:0100170000e8
:0100180001e6
:0100190001e5
:01001a0008dd
:01001b0008dc
:01001c0008db
:01001d0008da
:01001e0001e0
:01001f0001df
:0100200000df
:0100210000de
:0100220000dd
:0100230001db
:0100240008d3
:0100250008d2
:0100260008d1
:0100270008d0
:0100280008cf
:0100290008ce
:01002a0008cd
:01002b0008cc
:01002c0001d2
:01002d0000d2
:01002e0000d1
:01002f0001cf
:0100300008c7
:0100310008c6
:0100320008c5
:0100330008c4
:0100340008c3
:0100350008c2
:0100360008c1
:0100370008c0
:0100380001c6
:0100390000c6
:01003a0001c4
:01003b0008bc
:01003c0008bb
:01003d0008ba
:01003e0008b9
:01003f0008b8
:0100400008b7
:0100410008b6
:0100420008b5
:0100430008b4
:0100440008b3
:0100450001b9
:0100460001b8
:0100470008b0
:0100480008af
:0100490008ae
:01004a0008ad
:01004b0008ac
:01004c0008ab
:01004d0008aa
:01004e0008a9
:01004f0008a8
:0100500008a7
:0100510001ad
:0100520001ac
:0100530008a4
:0100540008a3
:0100550008a2
:0100560008a1
:0100570008a0
:01005800089f
:01005900089e
:01005a00089d
:01005b00089c
:01005c00089b
:01005d0001a1
:01005e0001a0
:01005f000898
:010060000897
:010061000896
:010062000895
:010063000894
:010064000893
:010065000892
:010066000891
:010067000890
:01006800088f
:010069000195
:01006a000095
:01006b000193
:01006c00088b
:01006d00088a
:01006e000889
:01006f000888
:010070000887
:010071000886
:010072000885
:010073000884
:01007400018a
:01007500008a
:010076000089
:010077000187
:01007800087f
:01007900087e
:01007a00087d
:01007b00087c
:01007c00087b
:01007d00087a
:01007e000879
:01007f000878
:01008000017e
:01008100007e
:01008200007d
:01008300007c
:01008400017a
:010085000179
:010086000871
:010087000870
:01008800086f
:01008900086e
:01008a000174
:01008b000173
:01008c000073
:01008d000072
:01008e000071
:01008f000070
:01009000006f
:01009100006e
:01009200016c
:01009300016b
:01009400016a
:010095000169
:010096000069
:010097000068
:010098000067
:010099000066
:00000001ff