:010000000df2
:010001000df1
:010002000df0
:010003000def
:010004000dee
:010005000ded
:010006000dec
:010007000deb
:010008000dea
:010009000de9
:01000a0000f5
:01000b0000f4
:01000c0000f3
:01000d0000f2
:01000e0001f0
:01000f0001ef
:0100100001ee
:0100110001ed
:0100120000ed
:0100130000ec
:0100140000eb
:0100150000ea
:0100160000e9
:0100170000e8
:0100180001e6
:0100190001e5
:01001a0001e4
:01001b0001e3
:01001c0001e2
:01001d0001e1
:01001e0001e0
:01001f0001df
:0100200000df
:0100210000de
:0100220000dd
:0100230001db
:0100240001da
:0100250001d9
:0100260001d8
:0100270001d7
:0100280001d6
:0100290001d5
:01002a0001d4
:01002b0001d3
:01002c0001d2
:01002d0000d2
:01002e0000d1
:01002f0001cf
:0100300001ce
:0100310001cd
:0100320001cc
:0100330001cb
:0100340001ca
:0100350001c9
:0100360001c8
:0100370001c7
:0100380001c6
:0100390000c6
:01003a0001c4
:01003b0001c3
:01003c0001c2
:01003d0001c1
:01003e0001c0
:01003f0001bf
:0100400001be
:0100410001bd
:0100420001bc
:0100430001bb
:0100440001ba
:0100450001b9
:0100460001b8
:0100470001b7
:0100480001b6
:0100490001b5
:01004a0001b4
:01004b0001b3
:01004c0001b2
:01004d0001b1
:01004e0001b0
:01004f0001af
:0100500001ae
:0100510001ad
:0100520001ac
:0100530001ab
:0100540001aa
:0100550001a9
:0100560001a8
:0100570001a7
:0100580001a6
:0100590001a5
:01005a0001a4
:01005b0001a3
:01005c0001a2
:01005d0001a1
:01005e0001a0
:01005f00019f
:01006000019e
:01006100019d
:01006200019c
:01006300019b
:01006400019a
:010065000199
:010066000198
:010067000197
:010068000196
:010069000195
:01006a000095
:01006b000193
:01006c000192
:01006d000191
:01006e000190
:01006f00018f
:01007000018e
:01007100018d
:01007200018c
:01007300018b
:01007400018a
:01007500008a
:010076000089
:010077000187
:010078000186
:010079000185
:01007a000184
:01007b000183
:01007c000182
:01007d000181
:01007e000180
:01007f00017f
:01008000017e
:01008100007e
:01008200007d
:01008300007c
:01008400017a
:010085000179
:010086000178
:010087000177
:010088000176
:010089000175
:01008a000174
:01008b000173
:01008c000073
:01008d000072
:01008e000071
:01008f000070
:01009000006f
:01009100006e
:01009200016c
:01009300016b
:01009400016a
:010095000169
:010096000069
:010097000068
:010098000067
:010099000066
:00000001ff