:0100000000ff
:0100010000fe
:0100020001fc
:0100030001fb
:0100040001fa
:0100050001f9
:0100060000f9
:0100070000f8
:0100080000f7
:0100090000f6
:01000a0001f4
:01000b0001f3
:01000c0001f2
:01000d0001f1
:01000e0000f1
:01000f0000f0
:0100100000ef
:0100110000ee
:0100120001ec
:0100130002ea
:0100140002e9
:0100150001e9
:0100160000e9
:0100170000e8
:0100180000e7
:0100190000e6
:01001a0001e4
:01001b0002e2
:01001c0002e1
:01001d0001e1
:01001e0000e1
:01001f0000e0
:0100200000df
:0100210000de
:0100220001dc
:0100230002da
:0100240002d9
:0100250001d9
:0100260000d9
:0100270000d8
:0100280000d7
:0100290000d6
:01002a0001d4
:01002b0002d2
:01002c0002d1
:01002d0001d1
:01002e0000d1
:01002f0000d0
:0100300000cf
:0100310000ce
:0100320001cc
:0100330002ca
:0100340002c9
:0100350001c9
:0100360000c9
:0100370000c8
:0100380000c7
:0100390000c6
:01003a0001c4
:01003b000db7
:01003c0001c2
:01003d0001c1
:01003e0000c1
:01003f0000c0
:0100400000bf
:0100410000be
:0100420001bc
:0100430009b3
:0100440009b2
:0100450001b9
:0100460000b9
:0100470000b8
:0100480000b7
:0100490000b6
:01004a0001b4
:01004b0009ab
:01004c0009aa
:01004d0001b1
:01004e0000b1
:01004f0000b0
:0100500000af
:0100510000ae
:0100520001ac
:0100530009a3
:0100540009a2
:0100550001a9
:0100560000a9
:0100570000a8
:0100580000a7
:0100590000a6
:01005a0001a4
:01005b00099b
:01005c00099a
:01005d0001a1
:01005e0000a1
:01005f0000a0
:01006000009f
:01006100009e
:01006200019c
:010063000993
:010064000992
:010065000199
:010066000099
:010067000098
:010068000097
:010069000096
:01006a000194
:01006b00098b
:01006c00098a
:01006d000191
:01006e000091
:01006f000090
:01007000008f
:01007100008e
:01007200018c
:010073000983
:010074000982
:010075000189
:010076000089
:010077000088
:010078000087
:010079000086
:01007a000184
:01007b00097b
:01007c00097a
:01007d000181
:01007e000081
:01007f000080
:01008000007f
:01008100007e
:01008200017c
:010083000973
:010084000972
:010085000179
:010086000079
:010087000078
:010088000077
:010089000076
:01008a000174
:01008b00096b
:01008c00096a
:01008d000171
:01008e000071
:01008f000070
:01009000006f
:01009100006e
:01009200016c
:010093000963
:010094000962
:010095000169
:010096000069
:010097000068
:010098000067
:010099000066
:01009a000164
:01009b00095b
:01009c00095a
:01009d000161
:01009e000061
:01009f000060
:0100a000005f
:0100a100005e
:0100a200015c
:0100a3000953
:0100a4000952
:0100a5000159
:0100a6000059
:0100a7000058
:0100a8000057
:0100a9000056
:0100aa000154
:0100ab00094b
:0100ac00094a
:0100ad000151
:0100ae000051
:0100af000050
:0100b000004f
:0100b100004e
:0100b200014c
:0100b3000943
:0100b4000942
:0100b5000149
:0100b6000049
:0100b7000048
:0100b8000047
:0100b9000046
:0100ba000144
:0100bb00093b
:0100bc00093a
:0100bd000141
:0100be000041
:0100bf000040
:0100c000003f
:0100c100003e
:0100c200013c
:0100c3000933
:0100c4000932
:0100c5000139
:0100c6000039
:0100c7000038
:0100c8000037
:0100c9000036
:0100ca000134
:0100cb00092b
:0100cc00092a
:0100cd000131
:0100ce000031
:0100cf000030
:0100d000002f
:0100d100002e
:0100d200012c
:0100d3000923
:0100d4000922
:0100d5000129
:0100d6000029
:0100d7000028
:0100d8000027
:0100d9000026
:0100da000124
:0100db00091b
:0100dc00091a
:0100dd000121
:0100de000021
:0100df000020
:0100e000001f
:0100e100001e
:0100e200011c
:0100e3000913
:0100e4000912
:0100e5000119
:0100e6000019
:0100e7000018
:0100e8000017
:0100e9000016
:0100ea000114
:0100eb00090b
:0100ec00090a
:0100ed000111
:0100ee000011
:0100ef000010
:0100f000000f
:0100f100000e
:0100f200010c
:0100f3000903
:0100f4000902
:0100f5000109
:0100f6000009
:0100f7000008
:0100f8000007
:0100f9000006
:0100fa000104
:0100fb0009fb
:0100fc0009fa
:0100fd000101
:0100fe000001
:0100ff000000
:0101000000fe
:0101010000fd
:0101020001fb
:0101030009f2
:0101040009f1
:0101050001f8
:0101060000f8
:0101070000f7
:0101080000f6
:0101090000f5
:01010a0001f3
:01010b0009ea
:01010c0009e9
:01010d0001f0
:01010e0000f0
:01010f0000ef
:0101100000ee
:0101110000ed
:0101120001eb
:0101130009e2
:0101140009e1
:0101150001e8
:0101160000e8
:0101170000e7
:0101180000e6
:0101190000e5
:01011a0001e3
:01011b0009da
:01011c0009d9
:01011d0001e0
:01011e0000e0
:01011f0000df
:0101200000de
:0101210000dd
:0101220001db
:0101230009d2
:0101240009d1
:0101250001d8
:0101260000d8
:0101270000d7
:0101280000d6
:0101290000d5
:01012a0001d3
:01012b0009ca
:01012c0009c9
:01012d0001d0
:01012e0000d0
:01012f0000cf
:0101300000ce
:0101310000cd
:0101320001cb
:0101330009c2
:0101340009c1
:0101350001c8
:0101360000c8
:0101370000c7
:0101380000c6
:0101390000c5
:01013a0001c3
:01013b0009ba
:01013c0009b9
:01013d0001c0
:01013e0000c0
:01013f0000bf
:0101400000be
:0101410000bd
:0101420001bb
:0101430009b2
:0101440009b1
:0101450001b8
:0101460000b8
:0101470000b7
:0101480000b6
:0101490000b5
:01014a0001b3
:01014b0009aa
:01014c0009a9
:01014d0001b0
:01014e0000b0
:01014f0000af
:0101500000ae
:0101510000ad
:0101520001ab
:0101530009a2
:0101540009a1
:0101550001a8
:0101560000a8
:0101570000a7
:0101580000a6
:0101590000a5
:01015a0001a3
:01015b00099a
:01015c000999
:01015d0001a0
:01015e0000a0
:01015f00009f
:01016000009e
:01016100009d
:01016200019b
:010163000992
:010164000991
:010165000198
:010166000098
:010167000097
:010168000096
:010169000095
:01016a000193
:01016b00098a
:01016c000989
:01016d000190
:01016e000090
:01016f00008f
:01017000008e
:01017100008d
:01017200018b
:010173000982
:010174000981
:010175000188
:010176000088
:010177000087
:010178000086
:010179000085
:01017a000183
:01017b00097a
:01017c000979
:01017d000180
:01017e000080
:01017f00007f
:01018000007e
:01018100007d
:01018200017b
:010183000972
:010184000971
:010185000178
:010186000078
:010187000077
:010188000076
:010189000075
:01018a000173
:01018b00096a
:01018c000969
:01018d000170
:01018e000070
:01018f00006f
:01019000006e
:01019100006d
:01019200016b
:010193000962
:010194000961
:010195000168
:010196000068
:010197000067
:010198000066
:010199000065
:01019a000163
:01019b00095a
:01019c000959
:01019d000160
:01019e000060
:01019f00005f
:0101a000005e
:0101a100005d
:0101a200015b
:0101a3000952
:0101a4000951
:0101a5000158
:0101a6000058
:0101a7000057
:0101a8000056
:0101a9000055
:0101aa000153
:0101ab00094a
:0101ac000949
:0101ad000150
:0101ae000050
:0101af00004f
:0101b000004e
:0101b100004d
:0101b200014b
:0101b3000942
:0101b4000941
:0101b5000148
:0101b6000048
:0101b7000047
:0101b8000046
:0101b9000045
:0101ba000143
:0101bb00093a
:0101bc000939
:0101bd000140
:0101be000040
:0101bf00003f
:0101c000003e
:0101c100003d
:0101c200013b
:0101c3000932
:0101c4000931
:0101c5000138
:0101c6000038
:0101c7000037
:0101c8000036
:0101c9000035
:0101ca000133
:0101cb00092a
:0101cc000929
:0101cd000130
:0101ce000030
:0101cf00002f
:0101d000002e
:0101d100002d
:0101d200012b
:0101d3000922
:0101d4000921
:0101d5000128
:0101d6000028
:0101d7000027
:0101d8000026
:0101d9000025
:0101da000123
:0101db00091a
:0101dc000919
:0101dd000120
:0101de000020
:0101df00001f
:0101e000001e
:0101e100001d
:0101e200011b
:0101e3000912
:0101e4000911
:0101e5000118
:0101e6000018
:0101e7000017
:0101e8000016
:0101e9000015
:0101ea000113
:0101eb00090a
:0101ec000909
:0101ed000110
:0101ee000010
:0101ef00000f
:0101f000000e
:0101f100000d
:0101f200010b
:0101f3000902
:0101f4000901
:0101f5000108
:0101f6000008
:0101f7000007
:0101f8000006
:0101f9000005
:0101fa000103
:0101fb0009fa
:0101fc0009f9
:0101fd000100
:0101fe000000
:0101ff0000ff
:0102000000fd
:0102010000fc
:0102020001fa
:0102030009f1
:0102040009f0
:0102050001f7
:0102060000f7
:0102070000f6
:0102080000f5
:0102090000f4
:01020a0001f2
:01020b0009e9
:01020c0009e8
:01020d0001ef
:01020e0000ef
:01020f0000ee
:0102100000ed
:0102110000ec
:0102120001ea
:0102130009e1
:0102140009e0
:0102150001e7
:0102160000e7
:0102170000e6
:0102180000e5
:0102190000e4
:01021a0001e2
:01021b0009d9
:01021c0009d8
:01021d0001df
:01021e0000df
:01021f0000de
:0102200000dd
:0102210000dc
:0102220001da
:0102230009d1
:0102240009d0
:0102250001d7
:0102260000d7
:0102270000d6
:0102280000d5
:0102290000d4
:01022a0001d2
:01022b0009c9
:01022c0009c8
:01022d0001cf
:01022e0000cf
:01022f0000ce
:0102300000cd
:0102310000cc
:0102320001ca
:0102330009c1
:0102340009c0
:0102350001c7
:0102360000c7
:0102370000c6
:0102380000c5
:0102390000c4
:01023a0001c2
:01023b0009b9
:01023c0009b8
:01023d0001bf
:01023e0000bf
:01023f0000be
:0102400000bd
:0102410000bc
:0102420001ba
:0102430009b1
:0102440009b0
:0102450001b7
:0102460000b7
:0102470000b6
:0102480000b5
:0102490000b4
:01024a0001b2
:01024b0009a9
:01024c0009a8
:01024d0001af
:01024e0000af
:01024f0000ae
:0102500000ad
:0102510000ac
:0102520001aa
:0102530009a1
:0102540009a0
:0102550001a7
:0102560000a7
:0102570000a6
:0102580000a5
:0102590000a4
:01025a0001a2
:01025b000999
:01025c000998
:01025d00019f
:01025e00009f
:01025f00009e
:01026000009d
:01026100009c
:01026200019a
:010263000991
:010264000990
:010265000197
:010266000097
:010267000096
:010268000095
:010269000094
:01026a000192
:01026b000989
:01026c000988
:01026d00018f
:01026e00008f
:01026f00008e
:01027000008d
:01027100008c
:01027200018a
:010273000981
:010274000980
:010275000187
:010276000087
:010277000086
:010278000085
:010279000084
:01027a000182
:01027b000979
:01027c000978
:01027d00017f
:01027e00007f
:01027f00007e
:01028000007d
:01028100007c
:01028200017a
:010283000971
:010284000970
:010285000177
:010286000077
:010287000076
:010288000075
:010289000074
:01028a000172
:01028b000969
:01028c000968
:01028d00016f
:01028e00006f
:01028f00006e
:01029000006d
:01029100006c
:01029200016a
:010293000961
:010294000960
:010295000167
:010296000067
:010297000066
:010298000065
:010299000064
:01029a000162
:01029b000959
:01029c000958
:01029d00015f
:01029e00005f
:01029f00005e
:0102a000005d
:0102a100005c
:0102a200015a
:0102a3000951
:0102a4000950
:0102a5000157
:0102a6000057
:0102a7000056
:0102a8000055
:0102a9000054
:0102aa000152
:0102ab000949
:0102ac000948
:0102ad00014f
:0102ae00004f
:0102af00004e
:0102b000004d
:0102b100004c
:0102b200014a
:0102b3000941
:0102b4000940
:0102b5000147
:0102b6000047
:0102b7000046
:0102b8000045
:0102b9000044
:0102ba000142
:0102bb000939
:0102bc000938
:0102bd00013f
:0102be00003f
:0102bf00003e
:0102c000003d
:0102c100003c
:0102c200013a
:0102c3000931
:0102c4000930
:0102c5000137
:0102c6000037
:0102c7000036
:0102c8000035
:0102c9000034
:0102ca000132
:0102cb000929
:0102cc000928
:0102cd00012f
:0102ce00002f
:0102cf00002e
:0102d000002d
:0102d100002c
:0102d200012a
:0102d3000921
:0102d4000920
:0102d5000127
:0102d6000027
:0102d7000026
:0102d8000025
:0102d9000024
:0102da000122
:0102db000919
:0102dc000918
:0102dd00011f
:0102de00001f
:0102df00001e
:0102e000001d
:0102e100001c
:0102e200011a
:0102e3000911
:0102e4000910
:0102e5000117
:0102e6000017
:0102e7000016
:0102e8000015
:0102e9000014
:0102ea000112
:0102eb000909
:0102ec000908
:0102ed00010f
:0102ee00000f
:0102ef00000e
:0102f000000d
:0102f100000c
:0102f200010a
:0102f3000901
:0102f4000900
:0102f5000107
:0102f6000007
:0102f7000006
:0102f8000005
:0102f9000004
:0102fa000102
:0102fb0009f9
:0102fc0009f8
:0102fd0001ff
:0102fe0000ff
:0102ff0000fe
:0103000000fc
:0103010000fb
:0103020001f9
:0103030009f0
:0103040009ef
:0103050001f6
:0103060000f6
:0103070000f5
:0103080000f4
:0103090000f3
:01030a0001f1
:01030b0009e8
:01030c0009e7
:01030d0001ee
:01030e0000ee
:01030f0000ed
:0103100000ec
:0103110000eb
:0103120001e9
:0103130009e0
:0103140009df
:0103150001e6
:0103160000e6
:0103170000e5
:0103180000e4
:0103190000e3
:01031a0001e1
:01031b0009d8
:01031c0009d7
:01031d0001de
:01031e0000de
:01031f0000dd
:0103200000dc
:0103210000db
:0103220001d9
:0103230009d0
:0103240009cf
:0103250001d6
:0103260000d6
:0103270000d5
:0103280000d4
:0103290000d3
:01032a0001d1
:01032b0009c8
:01032c0009c7
:01032d0001ce
:01032e0000ce
:01032f0000cd
:0103300000cc
:0103310000cb
:0103320001c9
:0103330009c0
:0103340009bf
:0103350001c6
:0103360000c6
:0103370000c5
:0103380000c4
:0103390000c3
:01033a0001c1
:01033b0009b8
:01033c0009b7
:01033d0001be
:01033e0000be
:01033f0000bd
:0103400000bc
:0103410000bb
:0103420001b9
:0103430009b0
:0103440009af
:0103450001b6
:0103460000b6
:0103470000b5
:0103480000b4
:0103490000b3
:01034a0001b1
:01034b0009a8
:01034c0009a7
:01034d0001ae
:01034e0000ae
:01034f0000ad
:0103500000ac
:0103510000ab
:0103520001a9
:0103530009a0
:01035400099f
:0103550001a6
:0103560000a6
:0103570000a5
:0103580000a4
:0103590000a3
:01035a0001a1
:01035b000998
:01035c000997
:01035d00019e
:01035e00009e
:01035f00009d
:01036000009c
:01036100009b
:010362000199
:010363000990
:01036400098f
:010365000196
:010366000096
:010367000095
:010368000094
:010369000093
:01036a000191
:01036b000988
:01036c000987
:01036d00018e
:01036e00008e
:01036f00008d
:01037000008c
:01037100008b
:010372000189
:010373000980
:01037400097f
:010375000186
:010376000086
:010377000085
:010378000084
:010379000083
:01037a000181
:01037b000978
:01037c000977
:01037d00017e
:01037e00007e
:01037f00007d
:01038000007c
:01038100007b
:010382000179
:010383000970
:01038400096f
:010385000176
:010386000076
:010387000075
:010388000074
:010389000073
:01038a000171
:01038b000968
:01038c000967
:01038d00016e
:01038e00006e
:01038f00006d
:01039000006c
:01039100006b
:010392000169
:010393000960
:01039400095f
:010395000166
:010396000066
:010397000065
:010398000064
:010399000063
:01039a000161
:01039b000958
:01039c000957
:01039d00015e
:01039e00005e
:01039f00005d
:0103a000005c
:0103a100005b
:0103a2000159
:0103a3000950
:0103a400094f
:0103a5000156
:0103a6000056
:0103a7000055
:0103a8000054
:0103a9000053
:0103aa000151
:0103ab000948
:0103ac000947
:0103ad00014e
:0103ae00004e
:0103af00004d
:0103b000004c
:0103b100004b
:0103b2000149
:0103b3000940
:0103b400093f
:0103b5000146
:0103b6000046
:0103b7000045
:0103b8000044
:0103b9000043
:0103ba000141
:0103bb000938
:0103bc000937
:0103bd00013e
:0103be00003e
:0103bf00003d
:0103c000003c
:0103c100003b
:0103c2000139
:0103c3000930
:0103c400092f
:0103c5000136
:0103c6000036
:0103c7000035
:0103c8000034
:0103c9000033
:0103ca000131
:0103cb000928
:0103cc000927
:0103cd00012e
:0103ce00002e
:0103cf00002d
:0103d000002c
:0103d100002b
:0103d2000129
:0103d3000920
:0103d400091f
:0103d5000126
:0103d6000026
:0103d7000025
:0103d8000024
:0103d9000023
:0103da000121
:0103db000918
:0103dc000917
:0103dd00011e
:0103de00001e
:0103df00001d
:0103e000001c
:0103e100001b
:0103e2000119
:0103e3000910
:0103e400090f
:0103e5000116
:0103e6000016
:0103e7000015
:0103e8000014
:0103e9000013
:0103ea000111
:0103eb000908
:0103ec000907
:0103ed00010e
:0103ee00000e
:0103ef00000d
:0103f000000c
:0103f100000b
:0103f2000109
:0103f3000900
:0103f40009ff
:0103f5000106
:0103f6000006
:0103f7000005
:0103f8000004
:0103f9000003
:0103fa000101
:0103fb0009f8
:0103fc0009f7
:0103fd0001fe
:0103fe0000fe
:0103ff0000fd
:0104000000fb
:0104010000fa
:0104020001f8
:0104030009ef
:0104040009ee
:0104050001f5
:0104060000f5
:0104070000f4
:0104080000f3
:0104090000f2
:01040a0001f0
:01040b0009e7
:01040c0009e6
:01040d0001ed
:01040e0000ed
:01040f0000ec
:0104100000eb
:0104110000ea
:0104120001e8
:0104130009df
:0104140009de
:0104150001e5
:0104160000e5
:0104170000e4
:0104180000e3
:0104190000e2
:01041a0001e0
:01041b0009d7
:01041c0009d6
:01041d0001dd
:01041e0000dd
:01041f0000dc
:0104200000db
:0104210000da
:0104220001d8
:0104230009cf
:0104240009ce
:0104250001d5
:0104260000d5
:0104270000d4
:0104280000d3
:0104290000d2
:01042a0001d0
:01042b0009c7
:01042c0009c6
:01042d0001cd
:01042e0000cd
:01042f0000cc
:0104300000cb
:0104310000ca
:0104320001c8
:0104330009bf
:0104340009be
:0104350001c5
:0104360000c5
:0104370000c4
:0104380000c3
:0104390000c2
:01043a0001c0
:01043b0009b7
:01043c0009b6
:01043d0001bd
:01043e0000bd
:01043f0000bc
:0104400000bb
:0104410000ba
:0104420001b8
:0104430009af
:0104440009ae
:0104450001b5
:0104460000b5
:0104470000b4
:0104480000b3
:0104490000b2
:01044a0001b0
:01044b0009a7
:01044c0009a6
:01044d0001ad
:01044e0000ad
:01044f0000ac
:0104500000ab
:0104510000aa
:0104520001a8
:01045300099f
:01045400099e
:0104550001a5
:0104560000a5
:0104570000a4
:0104580000a3
:0104590000a2
:01045a0001a0
:01045b000997
:01045c000996
:01045d00019d
:01045e00009d
:01045f00009c
:01046000009b
:01046100009a
:010462000198
:01046300098f
:01046400098e
:010465000195
:010466000095
:010467000094
:010468000093
:010469000092
:01046a000190
:01046b000987
:01046c000986
:01046d00018d
:01046e00008d
:01046f00008c
:01047000008b
:01047100008a
:010472000188
:01047300097f
:01047400097e
:010475000185
:010476000085
:010477000084
:010478000083
:010479000082
:01047a000180
:01047b000977
:01047c000976
:01047d00017d
:01047e00007d
:01047f00007c
:01048000007b
:01048100007a
:010482000178
:01048300096f
:01048400096e
:010485000175
:010486000075
:010487000074
:010488000073
:010489000072
:01048a000170
:01048b000967
:01048c000966
:01048d00016d
:01048e00006d
:01048f00006c
:01049000006b
:01049100006a
:010492000168
:01049300095f
:01049400095e
:010495000165
:010496000065
:010497000064
:010498000063
:010499000062
:01049a000160
:01049b000957
:01049c000956
:01049d00015d
:01049e00005d
:01049f00005c
:0104a000005b
:0104a100005a
:0104a2000158
:0104a300094f
:0104a400094e
:0104a5000155
:0104a6000055
:0104a7000054
:0104a8000053
:0104a9000052
:0104aa000150
:0104ab000947
:0104ac000946
:0104ad00014d
:0104ae00004d
:0104af00004c
:0104b000004b
:0104b100004a
:0104b2000148
:0104b300093f
:0104b400093e
:0104b5000145
:0104b6000045
:0104b7000044
:0104b8000043
:0104b9000042
:0104ba000140
:0104bb000937
:0104bc000936
:0104bd00013d
:0104be00003d
:0104bf00003c
:0104c000003b
:0104c100003a
:0104c2000138
:0104c300092f
:0104c400092e
:0104c5000135
:0104c6000035
:0104c7000034
:0104c8000033
:0104c9000032
:0104ca000130
:0104cb000927
:0104cc000926
:0104cd00012d
:0104ce00002d
:0104cf00002c
:0104d000002b
:0104d100002a
:0104d2000128
:0104d300091f
:0104d400091e
:0104d5000125
:0104d6000025
:0104d7000024
:0104d8000023
:0104d9000022
:0104da000120
:0104db000917
:0104dc000916
:0104dd00011d
:0104de00001d
:0104df00001c
:0104e000001b
:0104e100001a
:0104e2000118
:0104e300090f
:0104e400090e
:0104e5000115
:0104e6000015
:0104e7000014
:0104e8000013
:0104e9000012
:0104ea000110
:0104eb000907
:0104ec000906
:0104ed00010d
:0104ee00000d
:0104ef00000c
:0104f000000b
:0104f100000a
:0104f2000108
:0104f30009ff
:0104f40009fe
:0104f5000105
:0104f6000005
:0104f7000004
:0104f8000003
:0104f9000002
:0104fa000100
:0104fb0009f7
:0104fc0009f6
:0104fd0001fd
:0104fe0000fd
:0104ff0000fc
:0105000000fa
:0105010000f9
:0105020001f7
:0105030009ee
:0105040009ed
:0105050001f4
:0105060000f4
:0105070000f3
:0105080000f2
:0105090000f1
:01050a0001ef
:01050b0009e6
:01050c0009e5
:01050d0001ec
:01050e0000ec
:01050f0000eb
:0105100000ea
:0105110000e9
:0105120001e7
:0105130009de
:0105140009dd
:0105150001e4
:0105160000e4
:0105170000e3
:0105180000e2
:0105190000e1
:01051a0001df
:01051b0009d6
:01051c0009d5
:01051d0001dc
:01051e0000dc
:01051f0000db
:0105200000da
:0105210000d9
:0105220001d7
:0105230009ce
:0105240009cd
:0105250001d4
:0105260000d4
:0105270000d3
:0105280000d2
:0105290000d1
:01052a0001cf
:01052b0009c6
:01052c0009c5
:01052d0001cc
:01052e0000cc
:01052f0000cb
:0105300000ca
:0105310000c9
:0105320001c7
:0105330009be
:0105340009bd
:0105350001c4
:0105360000c4
:0105370000c3
:0105380000c2
:0105390000c1
:01053a0001bf
:01053b0009b6
:01053c0009b5
:01053d0001bc
:01053e0000bc
:01053f0000bb
:0105400000ba
:0105410000b9
:0105420001b7
:0105430009ae
:0105440009ad
:0105450001b4
:0105460000b4
:0105470000b3
:0105480000b2
:0105490000b1
:01054a0001af
:01054b0009a6
:01054c0009a5
:01054d0001ac
:01054e0000ac
:01054f0000ab
:0105500000aa
:0105510000a9
:0105520001a7
:01055300099e
:01055400099d
:0105550001a4
:0105560000a4
:0105570000a3
:0105580000a2
:0105590000a1
:01055a00019f
:01055b000996
:01055c000995
:01055d00019c
:01055e00009c
:01055f00009b
:01056000009a
:010561000099
:010562000197
:01056300098e
:01056400098d
:010565000194
:010566000094
:010567000093
:010568000092
:010569000091
:01056a00018f
:01056b000986
:01056c000985
:01056d00018c
:01056e00008c
:01056f00008b
:01057000008a
:010571000089
:010572000187
:01057300097e
:01057400097d
:010575000184
:010576000084
:010577000083
:010578000082
:010579000081
:01057a00017f
:01057b000976
:01057c000975
:01057d00017c
:01057e00007c
:01057f00007b
:01058000007a
:010581000079
:010582000177
:01058300096e
:01058400096d
:010585000174
:010586000074
:010587000073
:010588000072
:010589000071
:01058a00016f
:01058b000966
:01058c000965
:01058d00016c
:01058e00006c
:01058f00006b
:01059000006a
:010591000069
:010592000167
:01059300095e
:01059400095d
:010595000164
:010596000064
:010597000063
:010598000062
:010599000061
:01059a00015f
:01059b000956
:01059c000955
:01059d00015c
:01059e00005c
:01059f00005b
:0105a000005a
:0105a1000059
:0105a2000157
:0105a300094e
:0105a400094d
:0105a5000154
:0105a6000054
:0105a7000053
:0105a8000052
:0105a9000051
:0105aa00014f
:0105ab000946
:0105ac000945
:0105ad00014c
:0105ae00004c
:0105af00004b
:0105b000004a
:0105b1000049
:0105b2000147
:0105b300093e
:0105b400093d
:0105b5000144
:0105b6000044
:0105b7000043
:0105b8000042
:0105b9000041
:0105ba00013f
:0105bb000936
:0105bc000935
:0105bd00013c
:0105be00003c
:0105bf00003b
:0105c000003a
:0105c1000039
:0105c2000137
:0105c300092e
:0105c400092d
:0105c5000134
:0105c6000034
:0105c7000033
:0105c8000032
:0105c9000031
:0105ca00012f
:0105cb000926
:0105cc000925
:0105cd00012c
:0105ce00002c
:0105cf00002b
:0105d000002a
:0105d1000029
:0105d2000127
:0105d300091e
:0105d400091d
:0105d5000124
:0105d6000024
:0105d7000023
:0105d8000022
:0105d9000021
:0105da00011f
:0105db000916
:0105dc000915
:0105dd00011c
:0105de00001c
:0105df00001b
:0105e000001a
:0105e1000019
:0105e2000117
:0105e300090e
:0105e400090d
:0105e5000114
:0105e6000014
:0105e7000013
:0105e8000012
:0105e9000011
:0105ea00010f
:0105eb000906
:0105ec000905
:0105ed00010c
:0105ee00000c
:0105ef00000b
:0105f000000a
:0105f1000009
:0105f2000107
:0105f30009fe
:0105f40009fd
:0105f5000104
:0105f6000004
:0105f7000003
:0105f8000002
:0105f9000001
:0105fa0001ff
:0105fb0009f6
:0105fc0009f5
:0105fd0001fc
:0105fe0000fc
:0105ff0000fb
:0106000000f9
:0106010000f8
:0106020001f6
:0106030009ed
:0106040009ec
:0106050001f3
:0106060000f3
:0106070000f2
:0106080000f1
:0106090000f0
:01060a0001ee
:01060b0009e5
:01060c0009e4
:01060d0001eb
:01060e0000eb
:01060f0000ea
:0106100000e9
:0106110000e8
:0106120001e6
:0106130009dd
:0106140009dc
:0106150001e3
:0106160000e3
:0106170000e2
:0106180000e1
:0106190000e0
:01061a0001de
:01061b0009d5
:01061c0009d4
:01061d0001db
:01061e0000db
:01061f0000da
:0106200000d9
:0106210000d8
:0106220001d6
:0106230009cd
:0106240009cc
:0106250001d3
:0106260000d3
:0106270000d2
:0106280000d1
:0106290000d0
:01062a0001ce
:01062b0009c5
:01062c0009c4
:01062d0001cb
:01062e0000cb
:01062f0000ca
:0106300000c9
:0106310000c8
:0106320001c6
:0106330009bd
:0106340009bc
:0106350001c3
:0106360000c3
:0106370000c2
:0106380000c1
:0106390000c0
:01063a0001be
:01063b0009b5
:01063c0009b4
:01063d0001bb
:01063e0000bb
:01063f0000ba
:0106400000b9
:0106410001b7
:0106420001b6
:0106430001b5
:0106440001b4
:0106450001b3
:0106460001b2
:0106470000b2
:0106480000b1
:0106490001af
:01064a0005aa
:01064b0005a9
:01064c0005a8
:01064d0005a7
:01064e0001aa
:01064f0000aa
:0106500000a9
:0106510001a7
:0106520005a2
:0106530005a1
:0106540005a0
:01065500059f
:0106560001a2
:0106570000a2
:0106580000a1
:01065900019f
:01065a00059a
:01065b000599
:01065c000598
:01065d000597
:01065e00019a
:01065f00009a
:010660000099
:010661000197
:010662000592
:010663000591
:010664000590
:01066500058f
:010666000192
:010667000092
:010668000091
:01066900018f
:01066a00058a
:01066b000589
:01066c000588
:01066d000587
:01066e00018a
:01066f00008a
:010670000089
:010671000187
:010672000582
:010673000581
:010674000580
:01067500057f
:010676000182
:010677000082
:010678000081
:01067900017f
:01067a00057a
:01067b000579
:01067c000578
:01067d000577
:01067e00017a
:01067f00007a
:010680000079
:010681000177
:010682000572
:010683000571
:010684000570
:01068500056f
:010686000172
:010687000072
:010688000071
:01068900016f
:01068a00056a
:01068b000569
:01068c000568
:01068d000567
:01068e00016a
:01068f00006a
:010690000069
:010691000167
:010692000562
:010693000561
:010694000560
:01069500055f
:010696000162
:010697000062
:010698000061
:01069900015f
:01069a00055a
:01069b000559
:01069c000558
:01069d000557
:01069e00015a
:01069f00005a
:0106a0000059
:0106a1000157
:0106a2000552
:0106a3000551
:0106a4000550
:0106a500054f
:0106a6000152
:0106a7000052
:0106a8000051
:0106a900014f
:0106aa00054a
:0106ab000549
:0106ac000548
:0106ad000547
:0106ae00014a
:0106af00004a
:0106b0000049
:0106b1000147
:0106b2000542
:0106b3000541
:0106b4000540
:0106b500053f
:0106b6000142
:0106b7000042
:0106b8000041
:0106b900013f
:0106ba00053a
:0106bb000539
:0106bc000538
:0106bd000537
:0106be00013a
:0106bf00003a
:0106c0000039
:0106c1000137
:0106c2000532
:0106c3000531
:0106c4000530
:0106c500052f
:0106c6000132
:0106c7000032
:0106c8000031
:0106c900012f
:0106ca00052a
:0106cb000529
:0106cc000528
:0106cd000527
:0106ce00012a
:0106cf00002a
:0106d0000029
:0106d1000127
:0106d2000522
:0106d3000521
:0106d4000520
:0106d500051f
:0106d6000122
:0106d7000022
:0106d8000021
:0106d900011f
:0106da00051a
:0106db000519
:0106dc000518
:0106dd000517
:0106de00011a
:0106df00001a
:0106e0000019
:0106e1000117
:0106e2000512
:0106e3000511
:0106e4000510
:0106e500050f
:0106e6000112
:0106e7000012
:0106e8000011
:0106e900010f
:0106ea00050a
:0106eb000509
:0106ec000508
:0106ed000507
:0106ee00010a
:0106ef00000a
:0106f0000009
:0106f1000107
:0106f2000502
:0106f3000501
:0106f4000500
:0106f50005ff
:0106f6000102
:0106f7000002
:0106f8000001
:0106f90001ff
:0106fa0005fa
:0106fb0005f9
:0106fc0005f8
:0106fd0005f7
:0106fe0001fa
:0106ff0000fa
:0107000000f8
:0107010001f6
:0107020005f1
:0107030005f0
:0107040005ef
:0107050005ee
:0107060001f1
:0107070000f1
:0107080000f0
:0107090001ee
:01070a0005e9
:01070b0005e8
:01070c0005e7
:01070d0005e6
:01070e0001e9
:01070f0000e9
:0107100000e8
:0107110001e6
:0107120005e1
:0107130005e0
:0107140005df
:0107150005de
:0107160001e1
:0107170000e1
:0107180000e0
:0107190001de
:01071a0005d9
:01071b0005d8
:01071c0005d7
:01071d0005d6
:01071e0001d9
:01071f0000d9
:0107200000d8
:0107210001d6
:0107220005d1
:0107230005d0
:0107240005cf
:0107250005ce
:0107260001d1
:0107270000d1
:0107280000d0
:0107290001ce
:01072a0005c9
:01072b0005c8
:01072c0005c7
:01072d0005c6
:01072e0001c9
:01072f0000c9
:0107300000c8
:0107310001c6
:0107320005c1
:0107330005c0
:0107340005bf
:0107350005be
:0107360001c1
:0107370000c1
:0107380000c0
:0107390001be
:01073a0005b9
:01073b0005b8
:01073c0005b7
:01073d0005b6
:01073e0001b9
:01073f0000b9
:0107400000b8
:0107410001b6
:0107420005b1
:0107430005b0
:0107440005af
:0107450005ae
:0107460001b1
:0107470000b1
:0107480000b0
:0107490001ae
:01074a0005a9
:01074b0005a8
:01074c0005a7
:01074d0005a6
:01074e0001a9
:01074f0000a9
:0107500000a8
:0107510001a6
:0107520005a1
:0107530005a0
:01075400059f
:01075500059e
:0107560001a1
:0107570000a1
:0107580000a0
:01075900019e
:01075a000599
:01075b000598
:01075c000597
:01075d000596
:01075e000199
:01075f000099
:010760000098
:010761000196
:010762000591
:010763000590
:01076400058f
:01076500058e
:010766000191
:010767000091
:010768000090
:01076900018e
:01076a000589
:01076b000588
:01076c000587
:01076d000586
:01076e000189
:01076f000089
:010770000088
:010771000186
:010772000581
:010773000580
:01077400057f
:01077500057e
:010776000181
:010777000081
:010778000080
:01077900017e
:01077a000579
:01077b000578
:01077c000577
:01077d000576
:01077e000179
:01077f000079
:010780000078
:010781000176
:010782000571
:010783000570
:01078400056f
:01078500056e
:010786000171
:010787000071
:01078800016f
:01078900016e
:01078a00016d
:01078b00016c
:01078c00016b
:01078d00016a
:01078e000169
:01078f000168
:010790000167
:01079100085f
:01079200085e
:01079300085d
:01079400085c
:01079500085b
:01079600085a
:010797000160
:01079800015f
:01079900015e
:01079a00015d
:01079b00015c
:01079c00015b
:01079d00015a
:01079e000159
:01079f000158
:0107a0000157
:0107a100084f
:0107a200084e
:0107a300084d
:0107a400084c
:0107a500084b
:0107a600084a
:0107a7000150
:0107a800014f
:0107a900014e
:0107aa00014d
:0107ab00014c
:0107ac00014b
:0107ad00014a
:0107ae000149
:0107af000148
:0107b0000147
:0107b100083f
:0107b200083e
:0107b300083d
:0107b400083c
:0107b500083b
:0107b600083a
:0107b7000140
:0107b800013f
:0107b900013e
:0107ba00013d
:0107bb00013c
:0107bc00013b
:0107bd00013a
:0107be000139
:0107bf000138
:0107c0000137
:0107c100082f
:0107c200082e
:0107c300082d
:0107c400082c
:0107c500082b
:0107c600082a
:0107c7000130
:0107c800012f
:0107c900012e
:0107ca00012d
:0107cb00012c
:0107cc00012b
:0107cd00012a
:0107ce000129
:0107cf000128
:0107d0000127
:0107d100081f
:0107d200081e
:0107d300081d
:0107d400081c
:0107d500081b
:0107d600081a
:0107d7000120
:0107d800011f
:0107d900011e
:0107da00011d
:0107db00011c
:0107dc00011b
:0107dd00011a
:0107de000119
:0107df000118
:0107e0000117
:0107e100080f
:0107e200080e
:0107e300080d
:0107e400080c
:0107e500080b
:0107e600080a
:0107e7000110
:0107e800010f
:0107e900010e
:0107ea00010d
:0107eb00010c
:0107ec00010b
:0107ed00010a
:0107ee000109
:0107ef000108
:0107f0000107
:0107f10008ff
:0107f20008fe
:0107f30008fd
:0107f40008fc
:0107f50008fb
:0107f60008fa
:0107f7000100
:0107f80001ff
:0107f90001fe
:0107fa0001fd
:0107fb0001fc
:0107fc0001fb
:0107fd0001fa
:0107fe0001f9
:0107ff0001f8
:0108000001f6
:0108010008ee
:0108020008ed
:0108030008ec
:0108040008eb
:0108050008ea
:0108060008e9
:0108070001ef
:0108080001ee
:0108090001ed
:01080a0001ec
:01080b0001eb
:01080c0001ea
:01080d0001e9
:01080e0001e8
:01080f0001e7
:0108100001e6
:0108110008de
:0108120008dd
:0108130008dc
:0108140008db
:0108150008da
:0108160008d9
:0108170001df
:0108180001de
:0108190001dd
:01081a0001dc
:01081b0001db
:01081c0001da
:01081d0001d9
:01081e0001d8
:01081f0001d7
:0108200001d6
:0108210008ce
:0108220008cd
:0108230008cc
:0108240008cb
:0108250008ca
:0108260008c9
:0108270001cf
:0108280001ce
:0108290001cd
:01082a0001cc
:01082b0001cb
:01082c0001ca
:01082d0001c9
:01082e0001c8
:01082f0001c7
:0108300001c6
:0108310008be
:0108320008bd
:0108330008bc
:0108340008bb
:0108350008ba
:0108360008b9
:0108370001bf
:0108380001be
:0108390001bd
:01083a0001bc
:01083b0001bb
:01083c0001ba
:01083d0001b9
:01083e0001b8
:01083f0001b7
:0108400001b6
:0108410008ae
:0108420008ad
:0108430008ac
:0108440008ab
:0108450008aa
:0108460008a9
:0108470001af
:0108480001ae
:0108490001ad
:01084a0001ac
:01084b0001ab
:01084c0001aa
:01084d0001a9
:01084e0001a8
:01084f0001a7
:0108500001a6
:01085100089e
:01085200089d
:01085300089c
:01085400089b
:01085500089a
:010856000899
:01085700019f
:01085800019e
:01085900019d
:01085a00019c
:01085b00019b
:01085c00019a
:01085d000199
:01085e000198
:01085f000197
:010860000196
:01086100088e
:01086200088d
:01086300088c
:01086400088b
:01086500088a
:010866000889
:01086700018f
:01086800018e
:01086900018d
:01086a00018c
:01086b00018b
:01086c00018a
:01086d000189
:01086e000188
:01086f000187
:010870000186
:01087100087e
:01087200087d
:01087300087c
:01087400087b
:01087500087a
:010876000879
:01087700017f
:01087800017e
:01087900017d
:01087a00017c
:01087b00017b
:01087c00017a
:01087d000179
:01087e000178
:01087f000177
:010880000176
:01088100086e
:01088200086d
:01088300086c
:01088400086b
:01088500086a
:010886000869
:01088700016f
:01088800016e
:01088900016d
:01088a00016c
:01088b00016b
:01088c00016a
:01088d000169
:01088e000168
:01088f000167
:010890000166
:01089100085e
:01089200085d
:01089300085c
:01089400085b
:01089500085a
:010896000859
:01089700015f
:01089800015e
:01089900015d
:01089a00015c
:01089b00015b
:01089c00015a
:01089d000159
:01089e000158
:01089f000157
:0108a0000156
:0108a100084e
:0108a200084d
:0108a300084c
:0108a400084b
:0108a500084a
:0108a6000849
:0108a700014f
:0108a800014e
:0108a900014d
:0108aa00014c
:0108ab00014b
:0108ac00014a
:0108ad000149
:0108ae000148
:0108af000147
:0108b0000146
:0108b100083e
:0108b200083d
:0108b300083c
:0108b400083b
:0108b500083a
:0108b6000839
:0108b700013f
:0108b800013e
:0108b900013d
:0108ba00013c
:0108bb00013b
:0108bc00013a
:0108bd000139
:0108be000138
:0108bf000137
:0108c0000136
:0108c1000531
:0108c2000530
:0108c300052f
:0108c400052e
:0108c500052d
:0108c600052c
:0108c700012f
:0108c800012e
:0108c9000529
:0108ca000528
:0108cb000527
:0108cc000526
:0108cd000525
:0108ce000524
:0108cf000127
:0108d0000126
:0108d1000521
:0108d2000520
:0108d300051f
:0108d400051e
:0108d500051d
:0108d600051c
:0108d700011f
:0108d800011e
:0108d9000519
:0108da000518
:0108db000517
:0108dc000516
:0108dd000515
:0108de000514
:0108df000117
:0108e0000116
:0108e1000511
:0108e2000510
:0108e300050f
:0108e400050e
:0108e500050d
:0108e600050c
:0108e700010f
:0108e800010e
:0108e9000509
:0108ea000508
:0108eb000507
:0108ec000506
:0108ed000505
:0108ee000504
:0108ef000107
:0108f0000106
:0108f1000501
:0108f2000500
:0108f30005ff
:0108f40005fe
:0108f50005fd
:0108f60005fc
:0108f70001ff
:0108f80001fe
:0108f90005f9
:0108fa0005f8
:0108fb0005f7
:0108fc0005f6
:0108fd0005f5
:0108fe0005f4
:0108ff0001f7
:0109000001f5
:0109010005f0
:0109020005ef
:0109030005ee
:0109040005ed
:0109050005ec
:0109060005eb
:0109070001ee
:0109080001ed
:0109090005e8
:01090a0005e7
:01090b0005e6
:01090c0005e5
:01090d0005e4
:01090e0005e3
:01090f0001e6
:0109100001e5
:0109110005e0
:0109120005df
:0109130005de
:0109140005dd
:0109150005dc
:0109160005db
:0109170001de
:0109180001dd
:0109190005d8
:01091a0005d7
:01091b0005d6
:01091c0005d5
:01091d0005d4
:01091e0005d3
:01091f0001d6
:0109200001d5
:0109210005d0
:0109220005cf
:0109230005ce
:0109240005cd
:0109250005cc
:0109260005cb
:0109270001ce
:0109280001cd
:0109290005c8
:01092a0005c7
:01092b0005c6
:01092c0005c5
:01092d0005c4
:01092e0005c3
:01092f0001c6
:0109300001c5
:0109310005c0
:0109320005bf
:0109330005be
:0109340005bd
:0109350005bc
:0109360005bb
:0109370001be
:0109380001bd
:0109390005b8
:01093a0005b7
:01093b0005b6
:01093c0005b5
:01093d0005b4
:01093e0005b3
:01093f0001b6
:0109400001b5
:0109410005b0
:0109420005af
:0109430005ae
:0109440005ad
:0109450005ac
:0109460005ab
:0109470001ae
:0109480001ad
:0109490005a8
:01094a0005a7
:01094b0005a6
:01094c0005a5
:01094d0005a4
:01094e0005a3
:01094f0001a6
:0109500001a5
:0109510005a0
:01095200059f
:01095300059e
:01095400059d
:01095500059c
:01095600059b
:01095700019e
:01095800009e
:01095900019c
:01095a00019b
:01095b00019a
:01095c000199
:01095d000198
:01095e000197
:01095f000097
:010960000096
:010961000095
:010962000193
:010963000192
:010964000191
:010965000190
:010966000090
:01096700008f
:00000001ff