:0100000000ff
:0100010000fe
:0100020000fd
:0100030000fc
:0100040000fb
:0100050000fa
:0100060000f9
:0100070000f8
:0100080000f7
:0100090000f6
:01000a0000f5
:01000b0000f4
:01000c0000f3
:01000d0000f2
:01000e0000f1
:01000f0000f0
:0100100000ef
:0100110000ee
:0100120000ed
:0100130000ec
:0100140000eb
:0100150000ea
:0100160000e9
:0100170000e8
:0100180000e7
:0100190000e6
:01001a0000e5
:01001b0000e4
:01001c0000e3
:01001d0000e2
:01001e0000e1
:01001f0000e0
:0100200000df
:0100210000de
:0100220000dd
:0100230000dc
:0100240000db
:0100250000da
:0100260000d9
:0100270000d8
:0100280000d7
:0100290000d6
:01002a0000d5
:01002b0000d4
:01002c0000d3
:01002d0000d2
:01002e0000d1
:01002f0000d0
:0100300000cf
:0100310000ce
:0100320000cd
:0100330000cc
:0100340000cb
:0100350000ca
:0100360000c9
:0100370000c8
:0100380000c7
:0100390000c6
:01003a0000c5
:01003b0000c4
:01003c0000c3
:01003d0000c2
:01003e0000c1
:01003f0000c0
:0100400000bf
:0100410000be
:0100420000bd
:0100430000bc
:0100440000bb
:0100450000ba
:0100460000b9
:0100470000b8
:0100480000b7
:0100490000b6
:01004a0000b5
:01004b0000b4
:01004c0000b3
:01004d0000b2
:01004e0000b1
:01004f0000b0
:0100500000af
:0100510000ae
:0100520000ad
:0100530000ac
:0100540000ab
:0100550000aa
:0100560000a9
:0100570000a8
:0100580000a7
:0100590000a6
:01005a0000a5
:01005b0000a4
:01005c0000a3
:01005d0000a2
:01005e0000a1
:01005f0000a0
:01006000009f
:01006100009e
:01006200009d
:01006300009c
:01006400009b
:01006500009a
:010066000099
:010067000098
:010068000097
:010069000096
:01006a000095
:01006b000094
:01006c000093
:01006d000092
:01006e000091
:01006f000090
:01007000008f
:01007100008e
:01007200008d
:01007300008c
:01007400008b
:01007500008a
:010076000089
:010077000088
:010078000087
:010079000086
:01007a000085
:01007b000084
:01007c000083
:01007d000082
:01007e000081
:01007f000080
:01008000007f
:01008100007e
:01008200007d
:01008300007c
:01008400007b
:01008500007a
:010086000079
:010087000078
:010088000077
:010089000076
:01008a000075
:01008b000074
:01008c000073
:01008d000072
:01008e000071
:01008f000070
:01009000006f
:01009100006e
:01009200006d
:01009300006c
:01009400006b
:01009500006a
:010096000069
:010097000068
:010098000067
:010099000066
:01009a000065
:01009b000064
:01009c000063
:01009d000062
:01009e000061
:01009f000060
:0100a000005f
:0100a100005e
:0100a200005d
:0100a300005c
:0100a400005b
:0100a500005a
:0100a6000059
:0100a7000058
:0100a8000057
:0100a9000056
:0100aa000055
:0100ab000054
:0100ac000053
:0100ad000052
:0100ae000051
:0100af000050
:0100b000004f
:0100b100004e
:0100b200004d
:0100b300004c
:0100b400004b
:0100b500004a
:0100b6000049
:0100b7000048
:0100b8000047
:0100b9000046
:0100ba000045
:0100bb000044
:0100bc000043
:0100bd000042
:0100be000041
:0100bf000040
:0100c000003f
:0100c100003e
:0100c200003d
:0100c300003c
:0100c400003b
:0100c500003a
:0100c6000039
:0100c7000038
:0100c8000037
:0100c9000036
:0100ca000035
:0100cb000034
:0100cc000033
:0100cd000032
:0100ce000031
:0100cf000030
:0100d000002f
:0100d100002e
:0100d200002d
:0100d300002c
:0100d400002b
:0100d500002a
:0100d6000029
:0100d7000028
:0100d8000027
:0100d9000026
:0100da000025
:0100db000024
:0100dc000023
:0100dd000022
:0100de000021
:0100df000020
:0100e000001f
:0100e100001e
:0100e200001d
:0100e300001c
:0100e400001b
:0100e500001a
:0100e6000019
:0100e7000018
:0100e8000017
:0100e9000016
:0100ea000015
:0100eb000014
:0100ec000013
:0100ed000012
:0100ee000011
:0100ef000010
:0100f000000f
:0100f100000e
:0100f200000d
:0100f300000c
:0100f400000b
:0100f500000a
:0100f6000009
:0100f7000008
:0100f8000007
:0100f9000006
:0100fa000005
:0100fb000004
:0100fc000003
:0100fd000002
:0100fe000001
:0100ff000000
:0101000000fe
:0101010000fd
:0101020000fc
:0101030000fb
:0101040000fa
:0101050000f9
:0101060000f8
:0101070000f7
:0101080000f6
:0101090000f5
:01010a0000f4
:01010b0000f3
:01010c0000f2
:01010d0000f1
:01010e0000f0
:01010f0000ef
:0101100000ee
:0101110000ed
:0101120000ec
:0101130000eb
:0101140000ea
:0101150000e9
:0101160000e8
:0101170000e7
:0101180000e6
:0101190000e5
:01011a0000e4
:01011b0000e3
:01011c0000e2
:01011d0000e1
:01011e0000e0
:01011f0000df
:0101200000de
:0101210000dd
:0101220000dc
:0101230000db
:0101240000da
:0101250000d9
:0101260000d8
:0101270000d7
:0101280000d6
:0101290000d5
:01012a0000d4
:01012b0000d3
:01012c0000d2
:01012d0000d1
:01012e0000d0
:01012f0000cf
:0101300000ce
:0101310000cd
:0101320000cc
:0101330000cb
:0101340000ca
:0101350000c9
:0101360000c8
:0101370000c7
:0101380000c6
:0101390000c5
:01013a0000c4
:01013b0000c3
:01013c0000c2
:01013d0000c1
:01013e0000c0
:01013f0000bf
:0101400000be
:0101410000bd
:0101420000bc
:0101430000bb
:0101440000ba
:0101450000b9
:0101460000b8
:0101470000b7
:0101480000b6
:0101490000b5
:01014a0000b4
:01014b0000b3
:01014c0000b2
:01014d0000b1
:01014e0000b0
:01014f0000af
:0101500000ae
:0101510000ad
:0101520000ac
:0101530000ab
:0101540000aa
:0101550000a9
:0101560000a8
:0101570000a7
:0101580000a6
:0101590000a5
:01015a0000a4
:01015b0000a3
:01015c0000a2
:01015d0000a1
:01015e0000a0
:01015f00009f
:01016000009e
:01016100009d
:01016200009c
:01016300009b
:01016400009a
:010165000099
:010166000098
:010167000097
:010168000096
:010169000095
:01016a000094
:01016b000093
:01016c000092
:01016d000091
:01016e000090
:01016f00008f
:01017000008e
:01017100008d
:01017200008c
:01017300008b
:01017400008a
:010175000089
:010176000088
:010177000087
:010178000086
:010179000085
:01017a000084
:01017b000083
:01017c000082
:01017d000081
:01017e000080
:01017f00007f
:01018000007e
:01018100007d
:01018200007c
:01018300007b
:01018400007a
:010185000079
:010186000078
:010187000077
:010188000076
:010189000075
:01018a000074
:01018b000073
:01018c000072
:01018d000071
:01018e000070
:01018f00006f
:01019000006e
:01019100006d
:01019200006c
:01019300006b
:01019400006a
:010195000069
:010196000068
:010197000067
:010198000066
:010199000065
:01019a000064
:01019b000063
:01019c000062
:01019d000061
:01019e000060
:01019f00005f
:0101a000005e
:0101a100005d
:0101a200005c
:0101a300005b
:0101a400005a
:0101a5000059
:0101a6000058
:0101a7000057
:0101a8000056
:0101a9000055
:0101aa000054
:0101ab000053
:0101ac000052
:0101ad000051
:0101ae000050
:0101af00004f
:0101b000004e
:0101b100004d
:0101b200004c
:0101b300004b
:0101b400004a
:0101b5000049
:0101b6000048
:0101b7000047
:0101b8000046
:0101b9000045
:0101ba000044
:0101bb000043
:0101bc000042
:0101bd000041
:0101be000040
:0101bf00003f
:0101c000003e
:0101c100003d
:0101c200003c
:0101c300003b
:0101c400003a
:0101c5000039
:0101c6000038
:0101c7000037
:0101c8000036
:0101c9000035
:0101ca000034
:0101cb000033
:0101cc000032
:0101cd000031
:0101ce000030
:0101cf00002f
:0101d000002e
:0101d100002d
:0101d200002c
:0101d300002b
:0101d400002a
:0101d5000029
:0101d6000028
:0101d7000027
:0101d8000026
:0101d9000025
:0101da000024
:0101db000023
:0101dc000022
:0101dd000021
:0101de000020
:0101df00001f
:0101e000001e
:0101e100001d
:0101e200001c
:0101e300001b
:0101e400001a
:0101e5000019
:0101e6000018
:0101e7000017
:0101e8000016
:0101e9000015
:0101ea000014
:0101eb000013
:0101ec000012
:0101ed000011
:0101ee000010
:0101ef00000f
:0101f000000e
:0101f100000d
:0101f200000c
:0101f300000b
:0101f400000a
:0101f5000009
:0101f6000008
:0101f7000007
:0101f8000006
:0101f9000005
:0101fa000004
:0101fb000003
:0101fc000002
:0101fd000001
:0101fe000000
:0101ff0000ff
:0102000000fd
:0102010000fc
:0102020000fb
:0102030000fa
:0102040000f9
:0102050000f8
:0102060000f7
:0102070000f6
:0102080000f5
:0102090000f4
:01020a0000f3
:01020b0000f2
:01020c0000f1
:01020d0000f0
:01020e0000ef
:01020f0000ee
:0102100000ed
:0102110000ec
:0102120000eb
:0102130000ea
:0102140000e9
:0102150000e8
:0102160000e7
:0102170000e6
:0102180000e5
:0102190000e4
:01021a0000e3
:01021b0000e2
:01021c0000e1
:01021d0000e0
:01021e0000df
:01021f0000de
:0102200000dd
:0102210000dc
:0102220000db
:0102230000da
:0102240000d9
:0102250000d8
:0102260000d7
:0102270000d6
:0102280000d5
:0102290000d4
:01022a0000d3
:01022b0000d2
:01022c0000d1
:01022d0000d0
:01022e0000cf
:01022f0000ce
:0102300000cd
:0102310000cc
:0102320000cb
:0102330000ca
:0102340000c9
:0102350000c8
:0102360000c7
:0102370000c6
:0102380000c5
:0102390000c4
:01023a0000c3
:01023b0000c2
:01023c0000c1
:01023d0000c0
:01023e0000bf
:01023f0000be
:0102400000bd
:0102410000bc
:0102420000bb
:0102430000ba
:0102440000b9
:0102450000b8
:0102460000b7
:0102470000b6
:0102480000b5
:0102490000b4
:01024a0000b3
:01024b0000b2
:01024c0000b1
:01024d0000b0
:01024e0000af
:01024f0000ae
:0102500000ad
:0102510000ac
:0102520000ab
:0102530000aa
:0102540000a9
:0102550000a8
:0102560000a7
:0102570000a6
:0102580000a5
:0102590000a4
:01025a0000a3
:01025b0000a2
:01025c0000a1
:01025d0000a0
:01025e00009f
:01025f00009e
:01026000009d
:01026100009c
:01026200009b
:01026300009a
:010264000099
:010265000098
:010266000097
:010267000096
:010268000095
:010269000094
:01026a000093
:01026b000092
:01026c000091
:01026d000090
:01026e00008f
:01026f00008e
:01027000008d
:01027100008c
:01027200008b
:01027300008a
:010274000089
:010275000088
:010276000087
:010277000086
:010278000085
:010279000084
:01027a000083
:01027b000082
:01027c000081
:01027d000080
:01027e00007f
:01027f00007e
:01028000007d
:01028100007c
:01028200007b
:01028300007a
:010284000079
:010285000078
:010286000077
:010287000076
:010288000075
:010289000074
:01028a000073
:01028b000072
:01028c000170
:01028d000070
:01028e00006f
:01028f00006e
:01029000006d
:01029100006c
:01029200006b
:01029300006a
:010294000069
:010295000068
:010296000067
:010297000066
:010298000065
:010299000064
:01029a000063
:01029b000062
:01029c000061
:01029d000060
:01029e00005f
:01029f00005e
:0102a000005d
:0102a100005c
:0102a200005b
:0102a300005a
:0102a4000059
:0102a5000058
:0102a6000057
:0102a7000056
:0102a8000055
:0102a9000054
:0102aa000053
:0102ab000052
:0102ac000051
:0102ad000050
:0102ae00004f
:0102af00004e
:0102b000004d
:0102b100004c
:0102b200004b
:0102b300004a
:0102b4000049
:0102b5000048
:0102b6000047
:0102b7000046
:0102b8000045
:0102b9000044
:0102ba000043
:0102bb000042
:0102bc000041
:0102bd000040
:0102be00003f
:0102bf00003e
:0102c000003d
:0102c100003c
:0102c200003b
:0102c300003a
:0102c4000039
:0102c5000038
:0102c6000037
:0102c7000036
:0102c8000035
:0102c9000034
:0102ca000033
:0102cb000032
:0102cc000031
:0102cd000030
:0102ce00002f
:0102cf00002e
:0102d000002d
:0102d100002c
:0102d200002b
:0102d300002a
:0102d4000029
:0102d5000028
:0102d6000027
:0102d7000026
:0102d8000025
:0102d9000024
:0102da000023
:0102db000022
:0102dc000021
:0102dd000020
:0102de00001f
:0102df00001e
:0102e000001d
:0102e100001c
:0102e200001b
:0102e300001a
:0102e4000019
:0102e5000018
:0102e6000017
:0102e7000016
:0102e8000015
:0102e9000014
:0102ea000013
:0102eb000012
:0102ec000011
:0102ed000010
:0102ee00000f
:0102ef00000e
:0102f000000d
:0102f100000c
:0102f200000b
:0102f300000a
:0102f4000009
:0102f5000008
:0102f6000007
:0102f7000006
:0102f8000005
:0102f9000004
:0102fa000003
:0102fb000002
:0102fc000001
:0102fd000000
:0102fe0000ff
:0102ff0000fe
:0103000000fc
:0103010000fb
:0103020000fa
:0103030000f9
:0103040000f8
:0103050000f7
:0103060000f6
:0103070000f5
:0103080000f4
:0103090000f3
:01030a0000f2
:01030b0000f1
:01030c0000f0
:01030d0000ef
:01030e0000ee
:01030f0000ed
:0103100000ec
:0103110000eb
:0103120000ea
:0103130000e9
:0103140000e8
:0103150000e7
:0103160000e6
:0103170000e5
:0103180000e4
:0103190000e3
:01031a0000e2
:01031b0000e1
:01031c0000e0
:01031d0000df
:01031e0000de
:01031f0000dd
:0103200000dc
:0103210000db
:0103220000da
:0103230000d9
:0103240000d8
:0103250000d7
:0103260000d6
:0103270000d5
:0103280000d4
:0103290000d3
:01032a0000d2
:01032b0000d1
:01032c0000d0
:01032d0000cf
:01032e0000ce
:01032f0000cd
:0103300000cc
:0103310000cb
:0103320000ca
:0103330000c9
:0103340000c8
:0103350000c7
:0103360000c6
:0103370000c5
:0103380000c4
:0103390000c3
:01033a0000c2
:01033b0000c1
:01033c0000c0
:01033d0000bf
:01033e0000be
:01033f0000bd
:0103400000bc
:0103410000bb
:0103420000ba
:0103430000b9
:0103440000b8
:0103450000b7
:0103460000b6
:0103470000b5
:0103480000b4
:0103490000b3
:01034a0000b2
:01034b0000b1
:01034c0000b0
:01034d0000af
:01034e0000ae
:01034f0000ad
:0103500000ac
:0103510000ab
:0103520000aa
:0103530000a9
:0103540000a8
:0103550000a7
:0103560000a6
:0103570000a5
:0103580000a4
:0103590000a3
:01035a0000a2
:01035b0000a1
:01035c0000a0
:01035d00009f
:01035e00009e
:01035f00009d
:01036000009c
:01036100009b
:01036200009a
:010363000099
:010364000098
:010365000097
:010366000195
:010367000194
:010368000193
:010369000093
:01036a000092
:01036b000091
:01036c000090
:01036d00008f
:01036e00008e
:01036f00008d
:01037000008c
:01037100008b
:01037200008a
:010373000089
:010374000088
:010375000087
:010376000086
:010377000085
:010378000084
:010379000083
:01037a000082
:01037b000081
:01037c000080
:01037d00007f
:01037e00007e
:01037f00007d
:01038000007c
:01038100007b
:01038200007a
:010383000079
:010384000078
:010385000077
:010386000076
:010387000075
:010388000074
:010389000073
:01038a000072
:01038b000071
:01038c000070
:01038d00006f
:01038e00006e
:01038f00006d
:01039000006c
:01039100006b
:01039200006a
:010393000069
:010394000068
:010395000067
:010396000066
:010397000065
:010398000064
:010399000063
:01039a000062
:01039b000061
:01039c000060
:01039d00005f
:01039e00005e
:01039f00005d
:0103a000005c
:0103a100005b
:0103a200005a
:0103a3000059
:0103a4000058
:0103a5000057
:0103a6000056
:0103a7000055
:0103a8000054
:0103a9000053
:0103aa000052
:0103ab000051
:0103ac000050
:0103ad00004f
:0103ae00004e
:0103af00004d
:0103b000004c
:0103b100004b
:0103b200004a
:0103b3000049
:0103b4000048
:0103b5000047
:0103b6000046
:0103b7000045
:0103b8000044
:0103b9000043
:0103ba000042
:0103bb000041
:0103bc000040
:0103bd00003f
:0103be00003e
:0103bf00003d
:0103c000003c
:0103c100003b
:0103c200003a
:0103c3000039
:0103c4000038
:0103c5000037
:0103c6000036
:0103c7000035
:0103c8000034
:0103c9000033
:0103ca000032
:0103cb000031
:0103cc000030
:0103cd00002f
:0103ce00002e
:0103cf00002d
:0103d000002c
:0103d100002b
:0103d200002a
:0103d3000029
:0103d4000028
:0103d5000027
:0103d6000026
:0103d7000025
:0103d8000024
:0103d9000023
:0103da000022
:0103db000021
:0103dc000020
:0103dd00001f
:0103de00001e
:0103df00001d
:0103e000001c
:0103e100001b
:0103e200001a
:0103e3000019
:0103e4000018
:0103e5000017
:0103e6000016
:0103e7000015
:0103e8000014
:0103e9000013
:0103ea000012
:0103eb000011
:0103ec000010
:0103ed00000f
:0103ee00000e
:0103ef00000d
:0103f000000c
:0103f100000b
:0103f200000a
:0103f3000009
:0103f4000008
:0103f5000007
:0103f6000006
:0103f7000005
:0103f8000004
:0103f9000003
:0103fa000002
:0103fb000001
:0103fc000000
:0103fd0000ff
:0103fe0000fe
:0103ff0000fd
:0104000000fb
:0104010000fa
:0104020000f9
:0104030000f8
:0104040000f7
:0104050000f6
:0104060000f5
:0104070000f4
:0104080000f3
:0104090000f2
:01040a0000f1
:01040b0000f0
:01040c0000ef
:01040d0000ee
:01040e0000ed
:01040f0000ec
:0104100000eb
:0104110000ea
:0104120000e9
:0104130000e8
:0104140000e7
:0104150000e6
:0104160000e5
:0104170000e4
:0104180000e3
:0104190000e2
:01041a0000e1
:01041b0000e0
:01041c0000df
:01041d0000de
:01041e0000dd
:01041f0000dc
:0104200000db
:0104210000da
:0104220000d9
:0104230000d8
:0104240000d7
:0104250000d6
:0104260000d5
:0104270000d4
:0104280000d3
:0104290000d2
:01042a0000d1
:01042b0000d0
:01042c0000cf
:01042d0000ce
:01042e0000cd
:01042f0000cc
:0104300000cb
:0104310000ca
:0104320000c9
:0104330000c8
:0104340000c7
:0104350000c6
:0104360000c5
:0104370000c4
:0104380000c3
:0104390000c2
:01043a0000c1
:01043b0000c0
:01043c0000bf
:01043d0000be
:01043e0000bd
:01043f0000bc
:0104400001ba
:0104410001b9
:0104420001b8
:0104430001b7
:0104440001b6
:0104450000b6
:0104460000b5
:0104470000b4
:0104480000b3
:0104490000b2
:01044a0000b1
:01044b0000b0
:01044c0000af
:01044d0000ae
:01044e0000ad
:01044f0000ac
:0104500000ab
:0104510000aa
:0104520000a9
:0104530000a8
:0104540000a7
:0104550000a6
:0104560000a5
:0104570000a4
:0104580000a3
:0104590000a2
:01045a0000a1
:01045b0000a0
:01045c00009f
:01045d00009e
:01045e00009d
:01045f00009c
:01046000009b
:01046100009a
:010462000099
:010463000098
:010464000097
:010465000096
:010466000095
:010467000094
:010468000093
:010469000092
:01046a000091
:01046b000090
:01046c00008f
:01046d00008e
:01046e00008d
:01046f00008c
:01047000008b
:01047100008a
:010472000089
:010473000088
:010474000087
:010475000086
:010476000085
:010477000084
:010478000083
:010479000082
:01047a000081
:01047b000080
:01047c00007f
:01047d00007e
:01047e00007d
:01047f00007c
:01048000007b
:01048100007a
:010482000079
:010483000078
:010484000077
:010485000076
:010486000075
:010487000074
:010488000073
:010489000072
:01048a000071
:01048b000070
:01048c00006f
:01048d00006e
:01048e00006d
:01048f00006c
:01049000006b
:01049100006a
:010492000069
:010493000068
:010494000067
:010495000066
:010496000065
:010497000064
:010498000063
:010499000062
:01049a000061
:01049b000060
:01049c00005f
:01049d00005e
:01049e00005d
:01049f00005c
:0104a000005b
:0104a100005a
:0104a2000059
:0104a3000058
:0104a4000057
:0104a5000056
:0104a6000055
:0104a7000054
:0104a8000053
:0104a9000052
:0104aa000051
:0104ab000050
:0104ac00004f
:0104ad00004e
:0104ae00004d
:0104af00004c
:0104b000004b
:0104b100004a
:0104b2000049
:0104b3000048
:0104b4000047
:0104b5000046
:0104b6000045
:0104b7000044
:0104b8000043
:0104b9000042
:0104ba000041
:0104bb000040
:0104bc00003f
:0104bd00003e
:0104be00003d
:0104bf00003c
:0104c000003b
:0104c100003a
:0104c2000039
:0104c3000038
:0104c4000037
:0104c5000036
:0104c6000035
:0104c7000034
:0104c8000033
:0104c9000032
:0104ca000031
:0104cb000030
:0104cc00002f
:0104cd00002e
:0104ce00002d
:0104cf00002c
:0104d000002b
:0104d100002a
:0104d2000029
:0104d3000028
:0104d4000027
:0104d5000026
:0104d6000025
:0104d7000024
:0104d8000023
:0104d9000022
:0104da000021
:0104db000020
:0104dc00001f
:0104dd00001e
:0104de00001d
:0104df00001c
:0104e000001b
:0104e100001a
:0104e2000019
:0104e3000018
:0104e4000017
:0104e5000016
:0104e6000015
:0104e7000014
:0104e8000013
:0104e9000012
:0104ea000011
:0104eb000010
:0104ec00000f
:0104ed00000e
:0104ee00000d
:0104ef00000c
:0104f000000b
:0104f100000a
:0104f2000009
:0104f3000008
:0104f4000007
:0104f5000006
:0104f6000005
:0104f7000004
:0104f8000003
:0104f9000002
:0104fa000001
:0104fb000000
:0104fc0000ff
:0104fd0000fe
:0104fe0000fd
:0104ff0000fc
:0105000000fa
:0105010000f9
:0105020000f8
:0105030000f7
:0105040000f6
:0105050000f5
:0105060000f4
:0105070000f3
:0105080000f2
:0105090000f1
:01050a0000f0
:01050b0000ef
:01050c0000ee
:01050d0000ed
:01050e0000ec
:01050f0000eb
:0105100000ea
:0105110000e9
:0105120000e8
:0105130000e7
:0105140000e6
:0105150000e5
:0105160000e4
:0105170000e3
:0105180000e2
:0105190000e1
:01051a0001df
:01051b0001de
:01051c0002dc
:01051d0002db
:01051e0001db
:01051f0001da
:0105200000da
:0105210000d9
:0105220000d8
:0105230000d7
:0105240000d6
:0105250000d5
:0105260000d4
:0105270000d3
:0105280000d2
:0105290000d1
:01052a0000d0
:01052b0000cf
:01052c0000ce
:01052d0000cd
:01052e0000cc
:01052f0000cb
:0105300000ca
:0105310000c9
:0105320000c8
:0105330000c7
:0105340000c6
:0105350000c5
:0105360000c4
:0105370000c3
:0105380000c2
:0105390000c1
:01053a0000c0
:01053b0000bf
:01053c0000be
:01053d0000bd
:01053e0000bc
:01053f0000bb
:0105400000ba
:0105410000b9
:0105420000b8
:0105430000b7
:0105440000b6
:0105450000b5
:0105460000b4
:0105470000b3
:0105480000b2
:0105490000b1
:01054a0000b0
:01054b0000af
:01054c0000ae
:01054d0000ad
:01054e0000ac
:01054f0000ab
:0105500000aa
:0105510000a9
:0105520000a8
:0105530000a7
:0105540000a6
:0105550000a5
:0105560000a4
:0105570000a3
:0105580000a2
:0105590000a1
:01055a0000a0
:01055b00009f
:01055c00009e
:01055d00009d
:01055e00009c
:01055f00009b
:01056000009a
:010561000099
:010562000098
:010563000097
:010564000096
:010565000095
:010566000094
:010567000093
:010568000092
:010569000091
:01056a000090
:01056b00008f
:01056c00008e
:01056d00008d
:01056e00008c
:01056f00008b
:01057000008a
:010571000089
:010572000088
:010573000087
:010574000086
:010575000085
:010576000084
:010577000083
:010578000082
:010579000081
:01057a000080
:01057b00007f
:01057c00007e
:01057d00007d
:01057e00007c
:01057f00007b
:01058000007a
:010581000079
:010582000078
:010583000077
:010584000076
:010585000075
:010586000074
:010587000073
:010588000072
:010589000071
:01058a000070
:01058b00006f
:01058c00006e
:01058d00006d
:01058e00006c
:01058f00006b
:01059000006a
:010591000069
:010592000068
:010593000067
:010594000066
:010595000065
:010596000064
:010597000063
:010598000062
:010599000061
:01059a000060
:01059b00005f
:01059c00005e
:01059d00005d
:01059e00005c
:01059f00005b
:0105a000005a
:0105a1000059
:0105a2000058
:0105a3000057
:0105a4000056
:0105a5000055
:0105a6000054
:0105a7000053
:0105a8000052
:0105a9000051
:0105aa000050
:0105ab00004f
:0105ac00004e
:0105ad00004d
:0105ae00004c
:0105af00004b
:0105b000004a
:0105b1000049
:0105b2000048
:0105b3000047
:0105b4000046
:0105b5000045
:0105b6000044
:0105b7000043
:0105b8000042
:0105b9000041
:0105ba000040
:0105bb00003f
:0105bc00003e
:0105bd00003d
:0105be00003c
:0105bf00003b
:0105c000003a
:0105c1000039
:0105c2000038
:0105c3000037
:0105c4000036
:0105c5000035
:0105c6000034
:0105c7000033
:0105c8000032
:0105c9000031
:0105ca000030
:0105cb00002f
:0105cc00002e
:0105cd00002d
:0105ce00002c
:0105cf00002b
:0105d000002a
:0105d1000029
:0105d2000028
:0105d3000027
:0105d4000026
:0105d5000025
:0105d6000024
:0105d7000023
:0105d8000022
:0105d9000021
:0105da000020
:0105db00001f
:0105dc00001e
:0105dd00001d
:0105de00001c
:0105df00001b
:0105e000001a
:0105e1000019
:0105e2000018
:0105e3000017
:0105e4000016
:0105e5000015
:0105e6000014
:0105e7000013
:0105e8000012
:0105e9000011
:0105ea000010
:0105eb00000f
:0105ec00000e
:0105ed00000d
:0105ee00000c
:0105ef00000b
:0105f000000a
:0105f1000009
:0105f2000008
:0105f3000007
:0105f4000105
:0105f5000104
:0105f6000202
:0105f7000201
:0105f8000101
:0105f9000100
:0105fa000000
:0105fb0000ff
:0105fc0000fe
:0105fd0000fd
:0105fe0000fc
:0105ff0000fb
:0106000000f9
:0106010000f8
:0106020000f7
:0106030000f6
:0106040000f5
:0106050000f4
:0106060000f3
:0106070000f2
:0106080000f1
:0106090000f0
:01060a0000ef
:01060b0000ee
:01060c0000ed
:01060d0000ec
:01060e0000eb
:01060f0000ea
:0106100000e9
:0106110000e8
:0106120000e7
:0106130000e6
:0106140000e5
:0106150000e4
:0106160000e3
:0106170000e2
:0106180000e1
:0106190000e0
:01061a0000df
:01061b0000de
:01061c0000dd
:01061d0000dc
:01061e0000db
:01061f0000da
:0106200000d9
:0106210000d8
:0106220000d7
:0106230000d6
:0106240000d5
:0106250000d4
:0106260000d3
:0106270000d2
:0106280000d1
:0106290000d0
:01062a0000cf
:01062b0000ce
:01062c0000cd
:01062d0000cc
:01062e0000cb
:01062f0000ca
:0106300000c9
:0106310000c8
:0106320000c7
:0106330000c6
:0106340000c5
:0106350000c4
:0106360000c3
:0106370000c2
:0106380000c1
:0106390000c0
:01063a0000bf
:01063b0000be
:01063c0000bd
:01063d0000bc
:01063e0000bb
:01063f0000ba
:0106400000b9
:0106410000b8
:0106420000b7
:0106430000b6
:0106440000b5
:0106450000b4
:0106460000b3
:0106470000b2
:0106480000b1
:0106490000b0
:01064a0000af
:01064b0000ae
:01064c0000ad
:01064d0000ac
:01064e0000ab
:01064f0000aa
:0106500000a9
:0106510000a8
:0106520000a7
:0106530000a6
:0106540000a5
:0106550000a4
:0106560000a3
:0106570000a2
:0106580000a1
:0106590000a0
:01065a00009f
:01065b00009e
:01065c00009d
:01065d00009c
:01065e00009b
:01065f00009a
:010660000099
:010661000098
:010662000097
:010663000096
:010664000095
:010665000094
:010666000093
:010667000092
:010668000091
:010669000090
:01066a00008f
:01066b00008e
:01066c00008d
:01066d00008c
:01066e00008b
:01066f00008a
:010670000089
:010671000088
:010672000087
:010673000086
:010674000085
:010675000084
:010676000083
:010677000082
:010678000081
:010679000080
:01067a00007f
:01067b00007e
:01067c00007d
:01067d00007c
:01067e00007b
:01067f00007a
:010680000079
:010681000078
:010682000077
:010683000076
:010684000075
:010685000074
:010686000073
:010687000072
:010688000071
:010689000070
:01068a00006f
:01068b00006e
:01068c00006d
:01068d00006c
:01068e00006b
:01068f00006a
:010690000069
:010691000068
:010692000067
:010693000066
:010694000065
:010695000064
:010696000063
:010697000062
:010698000061
:010699000060
:01069a00005f
:01069b00005e
:01069c00005d
:01069d00005c
:01069e00005b
:01069f00005a
:0106a0000059
:0106a1000058
:0106a2000057
:0106a3000056
:0106a4000055
:0106a5000054
:0106a6000053
:0106a7000052
:0106a8000051
:0106a9000050
:0106aa00004f
:0106ab00004e
:0106ac00004d
:0106ad00004c
:0106ae00004b
:0106af00004a
:0106b0000049
:0106b1000048
:0106b2000047
:0106b3000046
:0106b4000045
:0106b5000044
:0106b6000043
:0106b7000042
:0106b8000041
:0106b9000040
:0106ba00003f
:0106bb00003e
:0106bc00003d
:0106bd00003c
:0106be00003b
:0106bf00003a
:0106c0000039
:0106c1000038
:0106c2000037
:0106c3000036
:0106c4000035
:0106c5000034
:0106c6000033
:0106c7000032
:0106c8000031
:0106c9000030
:0106ca00002f
:0106cb00002e
:0106cc00002d
:0106cd00002c
:0106ce00012a
:0106cf000129
:0106d0000227
:0106d1000226
:0106d2000126
:0106d3000125
:0106d4000025
:0106d5000024
:0106d6000023
:0106d7000022
:0106d8000021
:0106d9000020
:0106da00001f
:0106db00001e
:0106dc00001d
:0106dd00001c
:0106de00001b
:0106df00001a
:0106e0000019
:0106e1000018
:0106e2000017
:0106e3000016
:0106e4000015
:0106e5000014
:0106e6000013
:0106e7000012
:0106e8000011
:0106e9000010
:0106ea00000f
:0106eb00000e
:0106ec00000d
:0106ed00000c
:0106ee00000b
:0106ef00000a
:0106f0000009
:0106f1000008
:0106f2000007
:0106f3000006
:0106f4000005
:0106f5000004
:0106f6000003
:0106f7000002
:0106f8000001
:0106f9000000
:0106fa0000ff
:0106fb0000fe
:0106fc0000fd
:0106fd0000fc
:0106fe0000fb
:0106ff0000fa
:0107000000f8
:0107010000f7
:0107020000f6
:0107030000f5
:0107040000f4
:0107050000f3
:0107060000f2
:0107070000f1
:0107080000f0
:0107090000ef
:01070a0000ee
:01070b0000ed
:01070c0000ec
:01070d0000eb
:01070e0000ea
:01070f0000e9
:0107100000e8
:0107110000e7
:0107120000e6
:0107130000e5
:0107140000e4
:0107150000e3
:0107160000e2
:0107170000e1
:0107180000e0
:0107190000df
:01071a0000de
:01071b0000dd
:01071c0000dc
:01071d0000db
:01071e0000da
:01071f0000d9
:0107200000d8
:0107210000d7
:0107220000d6
:0107230000d5
:0107240000d4
:0107250000d3
:0107260000d2
:0107270000d1
:0107280000d0
:0107290000cf
:01072a0000ce
:01072b0000cd
:01072c0000cc
:01072d0000cb
:01072e0000ca
:01072f0000c9
:0107300000c8
:0107310000c7
:0107320000c6
:0107330000c5
:0107340000c4
:0107350000c3
:0107360000c2
:0107370000c1
:0107380000c0
:0107390000bf
:01073a0000be
:01073b0000bd
:01073c0000bc
:01073d0000bb
:01073e0000ba
:01073f0000b9
:0107400000b8
:0107410000b7
:0107420000b6
:0107430000b5
:0107440000b4
:0107450000b3
:0107460000b2
:0107470000b1
:0107480000b0
:0107490000af
:01074a0000ae
:01074b0000ad
:01074c0000ac
:01074d0000ab
:01074e0000aa
:01074f0000a9
:0107500000a8
:0107510000a7
:0107520000a6
:0107530000a5
:0107540000a4
:0107550000a3
:0107560000a2
:0107570000a1
:0107580000a0
:01075900009f
:01075a00009e
:01075b00009d
:01075c00009c
:01075d00009b
:01075e00009a
:01075f000099
:010760000098
:010761000097
:010762000096
:010763000095
:010764000094
:010765000093
:010766000092
:010767000091
:010768000090
:01076900008f
:01076a00008e
:01076b00008d
:01076c00008c
:01076d00008b
:01076e00008a
:01076f000089
:010770000088
:010771000087
:010772000086
:010773000085
:010774000084
:010775000083
:010776000082
:010777000081
:010778000080
:01077900007f
:01077a00007e
:01077b00007d
:01077c00007c
:01077d00007b
:01077e00007a
:01077f000079
:010780000078
:010781000077
:010782000076
:010783000075
:010784000074
:010785000073
:010786000072
:010787000071
:010788000070
:01078900006f
:01078a00006e
:01078b00006d
:01078c00006c
:01078d00006b
:01078e00006a
:01078f000069
:010790000068
:010791000067
:010792000066
:010793000065
:010794000064
:010795000063
:010796000062
:010797000061
:010798000060
:01079900005f
:01079a00005e
:01079b00005d
:01079c00005c
:01079d00005b
:01079e00005a
:01079f000059
:0107a0000058
:0107a1000057
:0107a2000056
:0107a3000055
:0107a4000054
:0107a5000053
:0107a6000052
:0107a7000051
:0107a800014f
:0107a900014e
:0107aa000d41
:0107ab00024b
:0107ac00014b
:0107ad00014a
:0107ae00004a
:0107af000049
:0107b0000048
:0107b1000047
:0107b2000046
:0107b3000045
:0107b4000044
:0107b5000043
:0107b6000042
:0107b7000041
:0107b8000040
:0107b900003f
:0107ba00003e
:0107bb00003d
:0107bc00003c
:0107bd00003b
:0107be00003a
:0107bf000039
:0107c0000038
:0107c1000037
:0107c2000036
:0107c3000035
:0107c4000034
:0107c5000033
:0107c6000032
:0107c7000031
:0107c8000030
:0107c900002f
:0107ca00002e
:0107cb00002d
:0107cc00002c
:0107cd00002b
:0107ce00002a
:0107cf000029
:0107d0000028
:0107d1000027
:0107d2000026
:0107d3000025
:0107d4000024
:0107d5000023
:0107d6000022
:0107d7000021
:0107d8000020
:0107d900001f
:0107da00001e
:0107db00001d
:0107dc00001c
:0107dd00001b
:0107de00001a
:0107df000019
:0107e0000018
:0107e1000017
:0107e2000016
:0107e3000015
:0107e4000014
:0107e5000013
:0107e6000012
:0107e7000011
:0107e8000010
:0107e900000f
:0107ea00000e
:0107eb00000d
:0107ec00000c
:0107ed00000b
:0107ee00000a
:0107ef000009
:0107f0000008
:0107f1000007
:0107f2000006
:0107f3000005
:0107f4000004
:0107f5000003
:0107f6000002
:0107f7000001
:0107f8000000
:0107f90000ff
:0107fa0000fe
:0107fb0000fd
:0107fc0000fc
:0107fd0000fb
:0107fe0000fa
:0107ff0000f9
:0108000000f7
:0108010000f6
:0108020000f5
:0108030000f4
:0108040000f3
:0108050000f2
:0108060000f1
:0108070000f0
:0108080000ef
:0108090000ee
:01080a0000ed
:01080b0000ec
:01080c0000eb
:01080d0000ea
:01080e0000e9
:01080f0000e8
:0108100000e7
:0108110000e6
:0108120000e5
:0108130000e4
:0108140000e3
:0108150000e2
:0108160000e1
:0108170000e0
:0108180000df
:0108190000de
:01081a0000dd
:01081b0000dc
:01081c0000db
:01081d0000da
:01081e0000d9
:01081f0000d8
:0108200000d7
:0108210000d6
:0108220000d5
:0108230000d4
:0108240000d3
:0108250000d2
:0108260000d1
:0108270000d0
:0108280000cf
:0108290000ce
:01082a0000cd
:01082b0000cc
:01082c0000cb
:01082d0000ca
:01082e0000c9
:01082f0000c8
:0108300000c7
:0108310000c6
:0108320000c5
:0108330000c4
:0108340000c3
:0108350000c2
:0108360000c1
:0108370000c0
:0108380000bf
:0108390000be
:01083a0000bd
:01083b0000bc
:01083c0000bb
:01083d0000ba
:01083e0000b9
:01083f0000b8
:0108400000b7
:0108410000b6
:0108420000b5
:0108430000b4
:0108440000b3
:0108450000b2
:0108460000b1
:0108470000b0
:0108480000af
:0108490000ae
:01084a0000ad
:01084b0000ac
:01084c0000ab
:01084d0000aa
:01084e0000a9
:01084f0000a8
:0108500000a7
:0108510000a6
:0108520000a5
:0108530000a4
:0108540000a3
:0108550000a2
:0108560000a1
:0108570000a0
:01085800009f
:01085900009e
:01085a00009d
:01085b00009c
:01085c00009b
:01085d00009a
:01085e000099
:01085f000098
:010860000097
:010861000096
:010862000095
:010863000094
:010864000093
:010865000092
:010866000091
:010867000090
:01086800008f
:01086900008e
:01086a00008d
:01086b00008c
:01086c00008b
:01086d00008a
:01086e000089
:01086f000088
:010870000087
:010871000086
:010872000085
:010873000084
:010874000083
:010875000082
:010876000081
:010877000080
:01087800007f
:01087900007e
:01087a00007d
:01087b00007c
:01087c00007b
:01087d00007a
:01087e000079
:01087f000078
:010880000077
:010881000076
:010882000174
:010883000173
:01088400096a
:010885000969
:010886000170
:01088700016f
:01088800006f
:01088900006e
:01088a00006d
:01088b00006c
:01088c00006b
:01088d00006a
:01088e000069
:01088f000068
:010890000067
:010891000066
:010892000065
:010893000064
:010894000063
:010895000062
:010896000061
:010897000060
:01089800005f
:01089900005e
:01089a00005d
:01089b00005c
:01089c00005b
:01089d00005a
:01089e000059
:01089f000058
:0108a0000057
:0108a1000056
:0108a2000055
:0108a3000054
:0108a4000053
:0108a5000052
:0108a6000051
:0108a7000050
:0108a800004f
:0108a900004e
:0108aa00004d
:0108ab00004c
:0108ac00004b
:0108ad00004a
:0108ae000049
:0108af000048
:0108b0000047
:0108b1000046
:0108b2000045
:0108b3000044
:0108b4000043
:0108b5000042
:0108b6000041
:0108b7000040
:0108b800003f
:0108b900003e
:0108ba00003d
:0108bb00003c
:0108bc00003b
:0108bd00003a
:0108be000039
:0108bf000038
:0108c0000037
:0108c1000036
:0108c2000035
:0108c3000034
:0108c4000033
:0108c5000032
:0108c6000031
:0108c7000030
:0108c800002f
:0108c900002e
:0108ca00002d
:0108cb00002c
:0108cc00002b
:0108cd00002a
:0108ce000029
:0108cf000028
:0108d0000027
:0108d1000026
:0108d2000025
:0108d3000024
:0108d4000023
:0108d5000022
:0108d6000021
:0108d7000020
:0108d800001f
:0108d900001e
:0108da00001d
:0108db00001c
:0108dc00001b
:0108dd00001a
:0108de000019
:0108df000018
:0108e0000017
:0108e1000016
:0108e2000015
:0108e3000014
:0108e4000013
:0108e5000012
:0108e6000011
:0108e7000010
:0108e800000f
:0108e900000e
:0108ea00000d
:0108eb00000c
:0108ec00000b
:0108ed00000a
:0108ee000009
:0108ef000008
:0108f0000007
:0108f1000006
:0108f2000005
:0108f3000004
:0108f4000003
:0108f5000002
:0108f6000001
:0108f7000000
:0108f80000ff
:0108f90000fe
:0108fa0000fd
:0108fb0000fc
:0108fc0000fb
:0108fd0000fa
:0108fe0000f9
:0108ff0000f8
:0109000000f6
:0109010000f5
:0109020000f4
:0109030000f3
:0109040000f2
:0109050000f1
:0109060000f0
:0109070000ef
:0109080000ee
:0109090000ed
:01090a0000ec
:01090b0000eb
:01090c0000ea
:01090d0000e9
:01090e0000e8
:01090f0000e7
:0109100000e6
:0109110000e5
:0109120000e4
:0109130000e3
:0109140000e2
:0109150000e1
:0109160000e0
:0109170000df
:0109180000de
:0109190000dd
:01091a0000dc
:01091b0000db
:01091c0000da
:01091d0000d9
:01091e0000d8
:01091f0000d7
:0109200000d6
:0109210000d5
:0109220000d4
:0109230000d3
:0109240000d2
:0109250000d1
:0109260000d0
:0109270000cf
:0109280000ce
:0109290000cd
:01092a0000cc
:01092b0000cb
:01092c0000ca
:01092d0000c9
:01092e0000c8
:01092f0000c7
:0109300000c6
:0109310000c5
:0109320000c4
:0109330000c3
:0109340000c2
:0109350000c1
:0109360000c0
:0109370000bf
:0109380000be
:0109390000bd
:01093a0000bc
:01093b0000bb
:01093c0000ba
:01093d0000b9
:01093e0000b8
:01093f0000b7
:0109400000b6
:0109410000b5
:0109420000b4
:0109430000b3
:0109440000b2
:0109450000b1
:0109460000b0
:0109470000af
:0109480000ae
:0109490000ad
:01094a0000ac
:01094b0000ab
:01094c0000aa
:01094d0000a9
:01094e0000a8
:01094f0000a7
:0109500000a6
:0109510000a5
:0109520000a4
:0109530000a3
:0109540000a2
:0109550000a1
:0109560000a0
:01095700009f
:01095800009e
:01095900009d
:01095a00009c
:01095b00009b
:01095c000199
:01095d000198
:01095e00098f
:01095f00098e
:010960000195
:010961000194
:010962000094
:010963000093
:010964000092
:010965000091
:010966000090
:01096700008f
:01096800008e
:01096900008d
:01096a00008c
:01096b00008b
:01096c00008a
:01096d000089
:01096e000088
:01096f000087
:010970000086
:010971000085
:010972000084
:010973000083
:010974000082
:010975000081
:010976000080
:01097700007f
:01097800007e
:01097900007d
:01097a00007c
:01097b00007b
:01097c00007a
:01097d000079
:01097e000078
:01097f000077
:010980000076
:010981000075
:010982000074
:010983000073
:010984000072
:010985000071
:010986000070
:01098700006f
:01098800006e
:01098900006d
:01098a00006c
:01098b00006b
:01098c00006a
:01098d000069
:01098e000068
:01098f000067
:010990000066
:010991000065
:010992000064
:010993000063
:010994000062
:010995000061
:010996000060
:01099700005f
:01099800005e
:01099900005d
:01099a00005c
:01099b00005b
:01099c00005a
:01099d000059
:01099e000058
:01099f000057
:0109a0000056
:0109a1000055
:0109a2000054
:0109a3000053
:0109a4000052
:0109a5000051
:0109a6000050
:0109a700004f
:0109a800004e
:0109a900004d
:0109aa00004c
:0109ab00004b
:0109ac00004a
:0109ad000049
:0109ae000048
:0109af000047
:0109b0000046
:0109b1000045
:0109b2000044
:0109b3000043
:0109b4000042
:0109b5000041
:0109b6000040
:0109b700003f
:0109b800003e
:0109b900003d
:0109ba00003c
:0109bb00003b
:0109bc00003a
:0109bd000039
:0109be000038
:0109bf000037
:0109c0000036
:0109c1000035
:0109c2000034
:0109c3000033
:0109c4000032
:0109c5000031
:0109c6000030
:0109c700002f
:0109c800002e
:0109c900002d
:0109ca00002c
:0109cb00002b
:0109cc00002a
:0109cd000029
:0109ce000028
:0109cf000027
:0109d0000026
:0109d1000025
:0109d2000024
:0109d3000023
:0109d4000022
:0109d5000021
:0109d6000020
:0109d700001f
:0109d800001e
:0109d900001d
:0109da00001c
:0109db00001b
:0109dc00001a
:0109dd000019
:0109de000018
:0109df000017
:0109e0000016
:0109e1000015
:0109e2000014
:0109e3000013
:0109e4000012
:0109e5000011
:0109e6000010
:0109e700000f
:0109e800000e
:0109e900000d
:0109ea00000c
:0109eb00000b
:0109ec00000a
:0109ed000009
:0109ee000008
:0109ef000007
:0109f0000006
:0109f1000005
:0109f2000004
:0109f3000003
:0109f4000002
:0109f5000001
:0109f6000000
:0109f70000ff
:0109f80000fe
:0109f90000fd
:0109fa0000fc
:0109fb0000fb
:0109fc0000fa
:0109fd0000f9
:0109fe0000f8
:0109ff0000f7
:010a000000f5
:010a010000f4
:010a020000f3
:010a030000f2
:010a040000f1
:010a050000f0
:010a060000ef
:010a070000ee
:010a080000ed
:010a090000ec
:010a0a0000eb
:010a0b0000ea
:010a0c0000e9
:010a0d0000e8
:010a0e0000e7
:010a0f0000e6
:010a100000e5
:010a110000e4
:010a120000e3
:010a130000e2
:010a140000e1
:010a150000e0
:010a160000df
:010a170000de
:010a180000dd
:010a190000dc
:010a1a0000db
:010a1b0000da
:010a1c0000d9
:010a1d0000d8
:010a1e0000d7
:010a1f0000d6
:010a200000d5
:010a210000d4
:010a220000d3
:010a230000d2
:010a240000d1
:010a250000d0
:010a260000cf
:010a270000ce
:010a280000cd
:010a290000cc
:010a2a0000cb
:010a2b0000ca
:010a2c0000c9
:010a2d0000c8
:010a2e0000c7
:010a2f0000c6
:010a300000c5
:010a310000c4
:010a320000c3
:010a330000c2
:010a340000c1
:010a350000c0
:010a360001be
:010a370001bd
:010a380009b4
:010a390009b3
:010a3a0001ba
:010a3b0001b9
:010a3c0000b9
:010a3d0000b8
:010a3e0000b7
:010a3f0000b6
:010a400000b5
:010a410000b4
:010a420000b3
:010a430000b2
:010a440000b1
:010a450000b0
:010a460000af
:010a470000ae
:010a480000ad
:010a490000ac
:010a4a0000ab
:010a4b0000aa
:010a4c0000a9
:010a4d0000a8
:010a4e0000a7
:010a4f0000a6
:010a500000a5
:010a510000a4
:010a520000a3
:010a530000a2
:010a540000a1
:010a550000a0
:010a5600009f
:010a5700009e
:010a5800009d
:010a5900009c
:010a5a00009b
:010a5b00009a
:010a5c000099
:010a5d000098
:010a5e000097
:010a5f000096
:010a60000095
:010a61000094
:010a62000093
:010a63000092
:010a64000091
:010a65000090
:010a6600008f
:010a6700008e
:010a6800008d
:010a6900008c
:010a6a00008b
:010a6b00008a
:010a6c000089
:010a6d000088
:010a6e000087
:010a6f000086
:010a70000085
:010a71000084
:010a72000083
:010a73000082
:010a74000081
:010a75000080
:010a7600007f
:010a7700007e
:010a7800007d
:010a7900007c
:010a7a00007b
:010a7b00007a
:010a7c000079
:010a7d000078
:010a7e000077
:010a7f000076
:010a80000075
:010a81000074
:010a82000073
:010a83000072
:010a84000071
:010a85000070
:010a8600006f
:010a8700006e
:010a8800006d
:010a8900006c
:010a8a00006b
:010a8b00006a
:010a8c000069
:010a8d000068
:010a8e000067
:010a8f000066
:010a90000065
:010a91000064
:010a92000063
:010a93000062
:010a94000061
:010a95000060
:010a9600005f
:010a9700005e
:010a9800005d
:010a9900005c
:010a9a00005b
:010a9b00005a
:010a9c000059
:010a9d000058
:010a9e000057
:010a9f000056
:010aa0000055
:010aa1000054
:010aa2000053
:010aa3000052
:010aa4000051
:010aa5000050
:010aa600004f
:010aa700004e
:010aa800004d
:010aa900004c
:010aaa00004b
:010aab00004a
:010aac000049
:010aad000048
:010aae000047
:010aaf000046
:010ab0000045
:010ab1000044
:010ab2000043
:010ab3000042
:010ab4000041
:010ab5000040
:010ab600003f
:010ab700003e
:010ab800003d
:010ab900003c
:010aba00003b
:010abb00003a
:010abc000039
:010abd000038
:010abe000037
:010abf000036
:010ac0000035
:010ac1000034
:010ac2000033
:010ac3000032
:010ac4000031
:010ac5000030
:010ac600002f
:010ac700002e
:010ac800002d
:010ac900002c
:010aca00002b
:010acb00002a
:010acc000029
:010acd000028
:010ace000027
:010acf000026
:010ad0000025
:010ad1000024
:010ad2000023
:010ad3000022
:010ad4000021
:010ad5000020
:010ad600001f
:010ad700001e
:010ad800001d
:010ad900001c
:010ada00001b
:010adb00001a
:010adc000019
:010add000018
:010ade000017
:010adf000016
:010ae0000015
:010ae1000014
:010ae2000013
:010ae3000012
:010ae4000011
:010ae5000010
:010ae600000f
:010ae700000e
:010ae800000d
:010ae900000c
:010aea00000b
:010aeb00000a
:010aec000009
:010aed000008
:010aee000007
:010aef000006
:010af0000005
:010af1000004
:010af2000003
:010af3000002
:010af4000001
:010af5000000
:010af60000ff
:010af70000fe
:010af80000fd
:010af90000fc
:010afa0000fb
:010afb0000fa
:010afc0000f9
:010afd0000f8
:010afe0000f7
:010aff0000f6
:010b000000f4
:010b010000f3
:010b020000f2
:010b030000f1
:010b040000f0
:010b050000ef
:010b060000ee
:010b070000ed
:010b080000ec
:010b090000eb
:010b0a0000ea
:010b0b0000e9
:010b0c0000e8
:010b0d0000e7
:010b0e0000e6
:010b0f0000e5
:010b100001e3
:010b110001e2
:010b120009d9
:010b130009d8
:010b140001df
:010b150001de
:010b160000de
:010b170000dd
:010b180000dc
:010b190000db
:010b1a0000da
:010b1b0000d9
:010b1c0000d8
:010b1d0000d7
:010b1e0000d6
:010b1f0000d5
:010b200000d4
:010b210000d3
:010b220000d2
:010b230000d1
:010b240000d0
:010b250000cf
:010b260000ce
:010b270000cd
:010b280000cc
:010b290000cb
:010b2a0000ca
:010b2b0000c9
:010b2c0000c8
:010b2d0000c7
:010b2e0000c6
:010b2f0000c5
:010b300000c4
:010b310000c3
:010b320000c2
:010b330000c1
:010b340000c0
:010b350000bf
:010b360000be
:010b370000bd
:010b380000bc
:010b390000bb
:010b3a0000ba
:010b3b0000b9
:010b3c0000b8
:010b3d0000b7
:010b3e0000b6
:010b3f0000b5
:010b400000b4
:010b410000b3
:010b420000b2
:010b430000b1
:010b440000b0
:010b450000af
:010b460000ae
:010b470000ad
:010b480000ac
:010b490000ab
:010b4a0000aa
:010b4b0000a9
:010b4c0000a8
:010b4d0000a7
:010b4e0000a6
:010b4f0000a5
:010b500000a4
:010b510000a3
:010b520000a2
:010b530000a1
:010b540000a0
:010b5500009f
:010b5600009e
:010b5700009d
:010b5800009c
:010b5900009b
:010b5a00009a
:010b5b000099
:010b5c000098
:010b5d000097
:010b5e000096
:010b5f000095
:010b60000094
:010b61000093
:010b62000092
:010b63000091
:010b64000090
:010b6500008f
:010b6600008e
:010b6700008d
:010b6800008c
:010b6900008b
:010b6a00008a
:010b6b000089
:010b6c000088
:010b6d000087
:010b6e000086
:010b6f000085
:010b70000084
:010b71000083
:010b72000082
:010b73000081
:010b74000080
:010b7500007f
:010b7600007e
:010b7700007d
:010b7800007c
:010b7900007b
:010b7a00007a
:010b7b000079
:010b7c000078
:010b7d000077
:010b7e000076
:010b7f000075
:010b80000074
:010b81000073
:010b82000072
:010b83000071
:010b84000070
:010b8500006f
:010b8600006e
:010b8700006d
:010b8800006c
:010b8900006b
:010b8a00006a
:010b8b000069
:010b8c000068
:010b8d000067
:010b8e000066
:010b8f000065
:010b90000064
:010b91000063
:010b92000062
:010b93000061
:010b94000060
:010b9500005f
:010b9600005e
:010b9700005d
:010b9800005c
:010b9900005b
:010b9a00005a
:010b9b000059
:010b9c000058
:010b9d000057
:010b9e000056
:010b9f000055
:010ba0000054
:010ba1000053
:010ba2000052
:010ba3000051
:010ba4000050
:010ba500004f
:010ba600004e
:010ba700004d
:010ba800004c
:010ba900004b
:010baa00004a
:010bab000049
:010bac000048
:010bad000047
:010bae000046
:010baf000045
:010bb0000044
:010bb1000043
:010bb2000042
:010bb3000041
:010bb4000040
:010bb500003f
:010bb600003e
:010bb700003d
:010bb800003c
:010bb900003b
:010bba00003a
:010bbb000039
:010bbc000038
:010bbd000037
:010bbe000036
:010bbf000035
:010bc0000034
:010bc1000033
:010bc2000032
:010bc3000031
:010bc4000030
:010bc500002f
:010bc600002e
:010bc700002d
:010bc800002c
:010bc900002b
:010bca00002a
:010bcb000029
:010bcc000028
:010bcd000027
:010bce000026
:010bcf000025
:010bd0000024
:010bd1000023
:010bd2000022
:010bd3000021
:010bd4000020
:010bd500001f
:010bd600001e
:010bd700001d
:010bd800001c
:010bd900001b
:010bda00001a
:010bdb000019
:010bdc000018
:010bdd000017
:010bde000016
:010bdf000015
:010be0000014
:010be1000013
:010be2000012
:010be3000011
:010be4000010
:010be500000f
:010be600000e
:010be700000d
:010be800000c
:010be900000b
:010bea000109
:010beb000108
:010bec0009ff
:010bed0009fe
:010bee000105
:010bef000104
:010bf0000004
:010bf1000003
:010bf2000002
:010bf3000001
:010bf4000000
:010bf50000ff
:010bf60000fe
:010bf70000fd
:010bf80000fc
:010bf90000fb
:010bfa0000fa
:010bfb0000f9
:010bfc0000f8
:010bfd0000f7
:010bfe0000f6
:010bff0000f5
:010c000000f3
:010c010000f2
:010c020000f1
:010c030000f0
:010c040000ef
:010c050000ee
:010c060000ed
:010c070000ec
:010c080000eb
:010c090000ea
:010c0a0000e9
:010c0b0000e8
:010c0c0000e7
:010c0d0000e6
:010c0e0000e5
:010c0f0000e4
:010c100000e3
:010c110000e2
:010c120000e1
:010c130000e0
:010c140000df
:010c150000de
:010c160000dd
:010c170000dc
:010c180000db
:010c190000da
:010c1a0000d9
:010c1b0000d8
:010c1c0000d7
:010c1d0000d6
:010c1e0000d5
:010c1f0000d4
:010c200000d3
:010c210000d2
:010c220000d1
:010c230000d0
:010c240000cf
:010c250000ce
:010c260000cd
:010c270000cc
:010c280000cb
:010c290000ca
:010c2a0000c9
:010c2b0000c8
:010c2c0000c7
:010c2d0000c6
:010c2e0000c5
:010c2f0000c4
:010c300000c3
:010c310000c2
:010c320000c1
:010c330000c0
:010c340000bf
:010c350000be
:010c360000bd
:010c370000bc
:010c380000bb
:010c390000ba
:010c3a0000b9
:010c3b0000b8
:010c3c0000b7
:010c3d0000b6
:010c3e0000b5
:010c3f0000b4
:010c400000b3
:010c410000b2
:010c420000b1
:010c430000b0
:010c440000af
:010c450000ae
:010c460000ad
:010c470000ac
:010c480000ab
:010c490000aa
:010c4a0000a9
:010c4b0000a8
:010c4c0000a7
:010c4d0000a6
:010c4e0000a5
:010c4f0000a4
:010c500000a3
:010c510000a2
:010c520000a1
:010c530000a0
:010c5400009f
:010c5500009e
:010c5600009d
:010c5700009c
:010c5800009b
:010c5900009a
:010c5a000099
:010c5b000098
:010c5c000097
:010c5d000096
:010c5e000095
:010c5f000094
:010c60000093
:010c61000092
:010c62000091
:010c63000090
:010c6400008f
:010c6500008e
:010c6600008d
:010c6700008c
:010c6800008b
:010c6900008a
:010c6a000089
:010c6b000088
:010c6c000087
:010c6d000086
:010c6e000085
:010c6f000084
:010c70000083
:010c71000082
:010c72000081
:010c73000080
:010c7400007f
:010c7500007e
:010c7600007d
:010c7700007c
:010c7800007b
:010c7900007a
:010c7a000079
:010c7b000078
:010c7c000077
:010c7d000076
:010c7e000075
:010c7f000074
:010c80000073
:010c81000072
:010c82000071
:010c83000070
:010c8400006f
:010c8500006e
:010c8600006d
:010c8700006c
:010c8800006b
:010c8900006a
:010c8a000069
:010c8b000068
:010c8c000067
:010c8d000066
:010c8e000065
:010c8f000064
:010c90000063
:010c91000062
:010c92000061
:010c93000060
:010c9400005f
:010c9500005e
:010c9600005d
:010c9700005c
:010c9800005b
:010c9900005a
:010c9a000059
:010c9b000058
:010c9c000057
:010c9d000056
:010c9e000055
:010c9f000054
:010ca0000053
:010ca1000052
:010ca2000051
:010ca3000050
:010ca400004f
:010ca500004e
:010ca600004d
:010ca700004c
:010ca800004b
:010ca900004a
:010caa000049
:010cab000048
:010cac000047
:010cad000046
:010cae000045
:010caf000044
:010cb0000043
:010cb1000042
:010cb2000041
:010cb3000040
:010cb400003f
:010cb500003e
:010cb600003d
:010cb700003c
:010cb800003b
:010cb900003a
:010cba000039
:010cbb000038
:010cbc000037
:010cbd000036
:010cbe000035
:010cbf000034
:010cc0000033
:010cc1000032
:010cc2000031
:010cc3000030
:010cc400012e
:010cc500012d
:010cc6000924
:010cc7000923
:010cc800012a
:010cc9000129
:010cca000029
:010ccb000028
:010ccc000027
:010ccd000026
:010cce000025
:010ccf000024
:010cd0000023
:010cd1000022
:010cd2000021
:010cd3000020
:010cd400001f
:010cd500001e
:010cd600001d
:010cd700001c
:010cd800001b
:010cd900001a
:010cda000019
:010cdb000018
:010cdc000017
:010cdd000016
:010cde000015
:010cdf000014
:010ce0000013
:010ce1000012
:010ce2000011
:010ce3000010
:010ce400000f
:010ce500000e
:010ce600000d
:010ce700000c
:010ce800000b
:010ce900000a
:010cea000009
:010ceb000008
:010cec000007
:010ced000006
:010cee000005
:010cef000004
:010cf0000003
:010cf1000002
:010cf2000001
:010cf3000000
:010cf40000ff
:010cf50000fe
:010cf60000fd
:010cf70000fc
:010cf80000fb
:010cf90000fa
:010cfa0000f9
:010cfb0000f8
:010cfc0000f7
:010cfd0000f6
:010cfe0000f5
:010cff0000f4
:010d000000f2
:010d010000f1
:010d020000f0
:010d030000ef
:010d040000ee
:010d050000ed
:010d060000ec
:010d070000eb
:010d080000ea
:010d090000e9
:010d0a0000e8
:010d0b0000e7
:010d0c0000e6
:010d0d0000e5
:010d0e0000e4
:010d0f0000e3
:010d100000e2
:010d110000e1
:010d120000e0
:010d130000df
:010d140000de
:010d150000dd
:010d160000dc
:010d170000db
:010d180000da
:010d190000d9
:010d1a0000d8
:010d1b0000d7
:010d1c0000d6
:010d1d0000d5
:010d1e0000d4
:010d1f0000d3
:010d200000d2
:010d210000d1
:010d220000d0
:010d230000cf
:010d240000ce
:010d250000cd
:010d260000cc
:010d270000cb
:010d280000ca
:010d290000c9
:010d2a0000c8
:010d2b0000c7
:010d2c0000c6
:010d2d0000c5
:010d2e0000c4
:010d2f0000c3
:010d300000c2
:010d310000c1
:010d320000c0
:010d330000bf
:010d340000be
:010d350000bd
:010d360000bc
:010d370000bb
:010d380000ba
:010d390000b9
:010d3a0000b8
:010d3b0000b7
:010d3c0000b6
:010d3d0000b5
:010d3e0000b4
:010d3f0000b3
:010d400000b2
:010d410000b1
:010d420000b0
:010d430000af
:010d440000ae
:010d450000ad
:010d460000ac
:010d470000ab
:010d480000aa
:010d490000a9
:010d4a0000a8
:010d4b0000a7
:010d4c0000a6
:010d4d0000a5
:010d4e0000a4
:010d4f0000a3
:010d500000a2
:010d510000a1
:010d520000a0
:010d5300009f
:010d5400009e
:010d5500009d
:010d5600009c
:010d5700009b
:010d5800009a
:010d59000099
:010d5a000098
:010d5b000097
:010d5c000096
:010d5d000095
:010d5e000094
:010d5f000093
:010d60000092
:010d61000091
:010d62000090
:010d6300008f
:010d6400008e
:010d6500008d
:010d6600008c
:010d6700008b
:010d6800008a
:010d69000089
:010d6a000088
:010d6b000087
:010d6c000086
:010d6d000085
:010d6e000084
:010d6f000083
:010d70000082
:010d71000081
:010d72000080
:010d7300007f
:010d7400007e
:010d7500007d
:010d7600007c
:010d7700007b
:010d7800007a
:010d79000079
:010d7a000078
:010d7b000077
:010d7c000076
:010d7d000075
:010d7e000074
:010d7f000073
:010d80000072
:010d81000071
:010d82000070
:010d8300006f
:010d8400006e
:010d8500006d
:010d8600006c
:010d8700006b
:010d8800006a
:010d89000069
:010d8a000068
:010d8b000067
:010d8c000066
:010d8d000065
:010d8e000064
:010d8f000063
:010d90000062
:010d91000061
:010d92000060
:010d9300005f
:010d9400005e
:010d9500005d
:010d9600005c
:010d9700005b
:010d9800005a
:010d99000059
:010d9a000058
:010d9b000057
:010d9c000056
:010d9d000055
:010d9e000153
:010d9f000152
:010da0000949
:010da1000948
:010da200014f
:010da300014e
:010da400004e
:010da500004d
:010da600004c
:010da700004b
:010da800004a
:010da9000049
:010daa000048
:010dab000047
:010dac000046
:010dad000045
:010dae000044
:010daf000043
:010db0000042
:010db1000041
:010db2000040
:010db300003f
:010db400003e
:010db500003d
:010db600003c
:010db700003b
:010db800003a
:010db9000039
:010dba000038
:010dbb000037
:010dbc000036
:010dbd000035
:010dbe000034
:010dbf000033
:010dc0000032
:010dc1000031
:010dc2000030
:010dc300002f
:010dc400002e
:010dc500002d
:010dc600002c
:010dc700002b
:010dc800002a
:010dc9000029
:010dca000028
:010dcb000027
:010dcc000026
:010dcd000025
:010dce000024
:010dcf000023
:010dd0000022
:010dd1000021
:010dd2000020
:010dd300001f
:010dd400001e
:010dd500001d
:010dd600001c
:010dd700001b
:010dd800001a
:010dd9000019
:010dda000018
:010ddb000017
:010ddc000016
:010ddd000015
:010dde000014
:010ddf000013
:010de0000012
:010de1000011
:010de2000010
:010de300000f
:010de400000e
:010de500000d
:010de600000c
:010de700000b
:010de800000a
:010de9000009
:010dea000008
:010deb000007
:010dec000006
:010ded000005
:010dee000004
:010def000003
:010df0000002
:010df1000001
:010df2000000
:010df30000ff
:010df40000fe
:010df50000fd
:010df60000fc
:010df70000fb
:010df80000fa
:010df90000f9
:010dfa0000f8
:010dfb0000f7
:010dfc0000f6
:010dfd0000f5
:010dfe0000f4
:010dff0000f3
:010e000000f1
:010e010000f0
:010e020000ef
:010e030000ee
:010e040000ed
:010e050000ec
:010e060000eb
:010e070000ea
:010e080000e9
:010e090000e8
:010e0a0000e7
:010e0b0000e6
:010e0c0000e5
:010e0d0000e4
:010e0e0000e3
:010e0f0000e2
:010e100000e1
:010e110000e0
:010e120000df
:010e130000de
:010e140000dd
:010e150000dc
:010e160000db
:010e170000da
:010e180000d9
:010e190000d8
:010e1a0000d7
:010e1b0000d6
:010e1c0000d5
:010e1d0000d4
:010e1e0000d3
:010e1f0000d2
:010e200000d1
:010e210000d0
:010e220000cf
:010e230000ce
:010e240000cd
:010e250000cc
:010e260000cb
:010e270000ca
:010e280000c9
:010e290000c8
:010e2a0000c7
:010e2b0000c6
:010e2c0000c5
:010e2d0000c4
:010e2e0000c3
:010e2f0000c2
:010e300000c1
:010e310000c0
:010e320000bf
:010e330000be
:010e340000bd
:010e350000bc
:010e360000bb
:010e370000ba
:010e380000b9
:010e390000b8
:010e3a0000b7
:010e3b0000b6
:010e3c0000b5
:010e3d0000b4
:010e3e0000b3
:010e3f0000b2
:010e400000b1
:010e410000b0
:010e420000af
:010e430000ae
:010e440000ad
:010e450000ac
:010e460000ab
:010e470000aa
:010e480000a9
:010e490000a8
:010e4a0000a7
:010e4b0000a6
:010e4c0000a5
:010e4d0000a4
:010e4e0000a3
:010e4f0000a2
:010e500000a1
:010e510000a0
:010e5200009f
:010e5300009e
:010e5400009d
:010e5500009c
:010e5600009b
:010e5700009a
:010e58000099
:010e59000098
:010e5a000097
:010e5b000096
:010e5c000095
:010e5d000094
:010e5e000093
:010e5f000092
:010e60000091
:010e61000090
:010e6200008f
:010e6300008e
:010e6400008d
:010e6500008c
:010e6600008b
:010e6700008a
:010e68000089
:010e69000088
:010e6a000087
:010e6b000086
:010e6c000085
:010e6d000084
:010e6e000083
:010e6f000082
:010e70000081
:010e71000080
:010e7200007f
:010e7300007e
:010e7400007d
:010e7500007c
:010e7600007b
:010e7700007a
:010e78000178
:010e79000177
:010e7a00096e
:010e7b00096d
:010e7c000174
:010e7d000173
:010e7e000073
:010e7f000072
:010e80000071
:010e81000070
:010e8200006f
:010e8300006e
:010e8400006d
:010e8500006c
:010e8600006b
:010e8700006a
:010e88000069
:010e89000068
:010e8a000067
:010e8b000066
:010e8c000065
:010e8d000064
:010e8e000063
:010e8f000062
:010e90000061
:010e91000060
:010e9200005f
:010e9300005e
:010e9400005d
:010e9500005c
:010e9600005b
:010e9700005a
:010e98000059
:010e99000058
:010e9a000057
:010e9b000056
:010e9c000055
:010e9d000054
:010e9e000053
:010e9f000052
:010ea0000051
:010ea1000050
:010ea200004f
:010ea300004e
:010ea400004d
:010ea500004c
:010ea600004b
:010ea700004a
:010ea8000049
:010ea9000048
:010eaa000047
:010eab000046
:010eac000045
:010ead000044
:010eae000043
:010eaf000042
:010eb0000041
:010eb1000040
:010eb200003f
:010eb300003e
:010eb400003d
:010eb500003c
:010eb600003b
:010eb700003a
:010eb8000039
:010eb9000038
:010eba000037
:010ebb000036
:010ebc000035
:010ebd000034
:010ebe000033
:010ebf000032
:010ec0000031
:010ec1000030
:010ec200002f
:010ec300002e
:010ec400002d
:010ec500002c
:010ec600002b
:010ec700002a
:010ec8000029
:010ec9000028
:010eca000027
:010ecb000026
:010ecc000025
:010ecd000024
:010ece000023
:010ecf000022
:010ed0000021
:010ed1000020
:010ed200001f
:010ed300001e
:010ed400001d
:010ed500001c
:010ed600001b
:010ed700001a
:010ed8000019
:010ed9000018
:010eda000017
:010edb000016
:010edc000015
:010edd000014
:010ede000013
:010edf000012
:010ee0000011
:010ee1000010
:010ee200000f
:010ee300000e
:010ee400000d
:010ee500000c
:010ee600000b
:010ee700000a
:010ee8000009
:010ee9000008
:010eea000007
:010eeb000006
:010eec000005
:010eed000004
:010eee000003
:010eef000002
:010ef0000001
:010ef1000000
:010ef20000ff
:010ef30000fe
:010ef40000fd
:010ef50000fc
:010ef60000fb
:010ef70000fa
:010ef80000f9
:010ef90000f8
:010efa0000f7
:010efb0000f6
:010efc0000f5
:010efd0000f4
:010efe0000f3
:010eff0000f2
:010f000000f0
:010f010000ef
:010f020000ee
:010f030000ed
:010f040000ec
:010f050000eb
:010f060000ea
:010f070000e9
:010f080000e8
:010f090000e7
:010f0a0000e6
:010f0b0000e5
:010f0c0000e4
:010f0d0000e3
:010f0e0000e2
:010f0f0000e1
:010f100000e0
:010f110000df
:010f120000de
:010f130000dd
:010f140000dc
:010f150000db
:010f160000da
:010f170000d9
:010f180000d8
:010f190000d7
:010f1a0000d6
:010f1b0000d5
:010f1c0000d4
:010f1d0000d3
:010f1e0000d2
:010f1f0000d1
:010f200000d0
:010f210000cf
:010f220000ce
:010f230000cd
:010f240000cc
:010f250000cb
:010f260000ca
:010f270000c9
:010f280000c8
:010f290000c7
:010f2a0000c6
:010f2b0000c5
:010f2c0000c4
:010f2d0000c3
:010f2e0000c2
:010f2f0000c1
:010f300000c0
:010f310000bf
:010f320000be
:010f330000bd
:010f340000bc
:010f350000bb
:010f360000ba
:010f370000b9
:010f380000b8
:010f390000b7
:010f3a0000b6
:010f3b0000b5
:010f3c0000b4
:010f3d0000b3
:010f3e0000b2
:010f3f0000b1
:010f400000b0
:010f410000af
:010f420000ae
:010f430000ad
:010f440000ac
:010f450000ab
:010f460000aa
:010f470000a9
:010f480000a8
:010f490000a7
:010f4a0000a6
:010f4b0000a5
:010f4c0000a4
:010f4d0000a3
:010f4e0000a2
:010f4f0000a1
:010f500000a0
:010f5100009f
:010f5200019d
:010f5300019c
:010f54000993
:010f55000992
:010f56000199
:010f57000198
:010f58000098
:010f59000097
:010f5a000096
:010f5b000095
:010f5c000094
:010f5d000093
:010f5e000092
:010f5f000091
:010f60000090
:010f6100008f
:010f6200008e
:010f6300008d
:010f6400008c
:010f6500008b
:010f6600008a
:010f67000089
:010f68000088
:010f69000087
:010f6a000086
:010f6b000085
:010f6c000084
:010f6d000083
:010f6e000082
:010f6f000081
:010f70000080
:010f7100007f
:010f7200007e
:010f7300007d
:010f7400007c
:010f7500007b
:010f7600007a
:010f77000079
:010f78000078
:010f79000077
:010f7a000076
:010f7b000075
:010f7c000074
:010f7d000073
:010f7e000072
:010f7f000071
:010f80000070
:010f8100006f
:010f8200006e
:010f8300006d
:010f8400006c
:010f8500006b
:010f8600006a
:010f87000069
:010f88000068
:010f89000067
:010f8a000066
:010f8b000065
:010f8c000064
:010f8d000063
:010f8e000062
:010f8f000061
:010f90000060
:010f9100005f
:010f9200005e
:010f9300005d
:010f9400005c
:010f9500005b
:010f9600005a
:010f97000059
:010f98000058
:010f99000057
:010f9a000056
:010f9b000055
:010f9c000054
:010f9d000053
:010f9e000052
:010f9f000051
:010fa0000050
:010fa100004f
:010fa200004e
:010fa300004d
:010fa400004c
:010fa500004b
:010fa600004a
:010fa7000049
:010fa8000048
:010fa9000047
:010faa000046
:010fab000045
:010fac000044
:010fad000043
:010fae000042
:010faf000041
:010fb0000040
:010fb100003f
:010fb200003e
:010fb300003d
:010fb400003c
:010fb500003b
:010fb600003a
:010fb7000039
:010fb8000038
:010fb9000037
:010fba000036
:010fbb000035
:010fbc000034
:010fbd000033
:010fbe000032
:010fbf000031
:010fc0000030
:010fc100002f
:010fc200002e
:010fc300002d
:010fc400002c
:010fc500002b
:010fc600002a
:010fc7000029
:010fc8000028
:010fc9000027
:010fca000026
:010fcb000025
:010fcc000024
:010fcd000023
:010fce000022
:010fcf000021
:010fd0000020
:010fd100001f
:010fd200001e
:010fd300001d
:010fd400001c
:010fd500001b
:010fd600001a
:010fd7000019
:010fd8000018
:010fd9000017
:010fda000016
:010fdb000015
:010fdc000014
:010fdd000013
:010fde000012
:010fdf000011
:010fe0000010
:010fe100000f
:010fe200000e
:010fe300000d
:010fe400000c
:010fe500000b
:010fe600000a
:010fe7000009
:010fe8000008
:010fe9000007
:010fea000006
:010feb000005
:010fec000004
:010fed000003
:010fee000002
:010fef000001
:010ff0000000
:010ff10000ff
:010ff20000fe
:010ff30000fd
:010ff40000fc
:010ff50000fb
:010ff60000fa
:010ff70000f9
:010ff80000f8
:010ff90000f7
:010ffa0000f6
:010ffb0000f5
:010ffc0000f4
:010ffd0000f3
:010ffe0000f2
:010fff0000f1
:0110000000ef
:0110010000ee
:0110020000ed
:0110030000ec
:0110040000eb
:0110050000ea
:0110060000e9
:0110070000e8
:0110080000e7
:0110090000e6
:01100a0000e5
:01100b0000e4
:01100c0000e3
:01100d0000e2
:01100e0000e1
:01100f0000e0
:0110100000df
:0110110000de
:0110120000dd
:0110130000dc
:0110140000db
:0110150000da
:0110160000d9
:0110170000d8
:0110180000d7
:0110190000d6
:01101a0000d5
:01101b0000d4
:01101c0000d3
:01101d0000d2
:01101e0000d1
:01101f0000d0
:0110200000cf
:0110210000ce
:0110220000cd
:0110230000cc
:0110240000cb
:0110250000ca
:0110260000c9
:0110270000c8
:0110280000c7
:0110290000c6
:01102a0000c5
:01102b0000c4
:01102c0001c2
:01102d0001c1
:01102e0009b8
:01102f0009b7
:0110300001be
:0110310001bd
:0110320000bd
:0110330000bc
:0110340000bb
:0110350000ba
:0110360000b9
:0110370000b8
:0110380000b7
:0110390000b6
:01103a0000b5
:01103b0000b4
:01103c0000b3
:01103d0000b2
:01103e0000b1
:01103f0000b0
:0110400000af
:0110410000ae
:0110420000ad
:0110430000ac
:0110440000ab
:0110450000aa
:0110460000a9
:0110470000a8
:0110480000a7
:0110490000a6
:01104a0000a5
:01104b0000a4
:01104c0000a3
:01104d0000a2
:01104e0000a1
:01104f0000a0
:01105000009f
:01105100009e
:01105200009d
:01105300009c
:01105400009b
:01105500009a
:011056000099
:011057000098
:011058000097
:011059000096
:01105a000095
:01105b000094
:01105c000093
:01105d000092
:01105e000091
:01105f000090
:01106000008f
:01106100008e
:01106200008d
:01106300008c
:01106400008b
:01106500008a
:011066000089
:011067000088
:011068000087
:011069000086
:01106a000085
:01106b000084
:01106c000083
:01106d000082
:01106e000081
:01106f000080
:01107000007f
:01107100007e
:01107200007d
:01107300007c
:01107400007b
:01107500007a
:011076000079
:011077000078
:011078000077
:011079000076
:01107a000075
:01107b000074
:01107c000073
:01107d000072
:01107e000071
:01107f000070
:01108000006f
:01108100006e
:01108200006d
:01108300006c
:01108400006b
:01108500006a
:011086000069
:011087000068
:011088000067
:011089000066
:01108a000065
:01108b000064
:01108c000063
:01108d000062
:01108e000061
:01108f000060
:01109000005f
:01109100005e
:01109200005d
:01109300005c
:01109400005b
:01109500005a
:011096000059
:011097000058
:011098000057
:011099000056
:01109a000055
:01109b000054
:01109c000053
:01109d000052
:01109e000051
:01109f000050
:0110a000004f
:0110a100004e
:0110a200004d
:0110a300004c
:0110a400004b
:0110a500004a
:0110a6000049
:0110a7000048
:0110a8000047
:0110a9000046
:0110aa000045
:0110ab000044
:0110ac000043
:0110ad000042
:0110ae000041
:0110af000040
:0110b000003f
:0110b100003e
:0110b200003d
:0110b300003c
:0110b400003b
:0110b500003a
:0110b6000039
:0110b7000038
:0110b8000037
:0110b9000036
:0110ba000035
:0110bb000034
:0110bc000033
:0110bd000032
:0110be000031
:0110bf000030
:0110c000002f
:0110c100002e
:0110c200002d
:0110c300002c
:0110c400002b
:0110c500002a
:0110c6000029
:0110c7000028
:0110c8000027
:0110c9000026
:0110ca000025
:0110cb000024
:0110cc000023
:0110cd000022
:0110ce000021
:0110cf000020
:0110d000001f
:0110d100001e
:0110d200001d
:0110d300001c
:0110d400001b
:0110d500001a
:0110d6000019
:0110d7000018
:0110d8000017
:0110d9000016
:0110da000015
:0110db000014
:0110dc000013
:0110dd000012
:0110de000011
:0110df000010
:0110e000000f
:0110e100000e
:0110e200000d
:0110e300000c
:0110e400000b
:0110e500000a
:0110e6000009
:0110e7000008
:0110e8000007
:0110e9000006
:0110ea000005
:0110eb000004
:0110ec000003
:0110ed000002
:0110ee000001
:0110ef000000
:0110f00000ff
:0110f10000fe
:0110f20000fd
:0110f30000fc
:0110f40000fb
:0110f50000fa
:0110f60000f9
:0110f70000f8
:0110f80000f7
:0110f90000f6
:0110fa0000f5
:0110fb0000f4
:0110fc0000f3
:0110fd0000f2
:0110fe0000f1
:0110ff0000f0
:0111000000ee
:0111010000ed
:0111020000ec
:0111030000eb
:0111040000ea
:0111050000e9
:0111060001e7
:0111070001e6
:0111080009dd
:0111090009dc
:01110a0001e3
:01110b0001e2
:01110c0000e2
:01110d0000e1
:01110e0000e0
:01110f0000df
:0111100000de
:0111110000dd
:0111120000dc
:0111130000db
:0111140000da
:0111150000d9
:0111160000d8
:0111170000d7
:0111180000d6
:0111190000d5
:01111a0000d4
:01111b0000d3
:01111c0000d2
:01111d0000d1
:01111e0000d0
:01111f0000cf
:0111200000ce
:0111210000cd
:0111220000cc
:0111230000cb
:0111240000ca
:0111250000c9
:0111260000c8
:0111270000c7
:0111280000c6
:0111290000c5
:01112a0000c4
:01112b0000c3
:01112c0000c2
:01112d0000c1
:01112e0000c0
:01112f0000bf
:0111300000be
:0111310000bd
:0111320000bc
:0111330000bb
:0111340000ba
:0111350000b9
:0111360000b8
:0111370000b7
:0111380000b6
:0111390000b5
:01113a0000b4
:01113b0000b3
:01113c0000b2
:01113d0000b1
:01113e0000b0
:01113f0000af
:0111400000ae
:0111410000ad
:0111420000ac
:0111430000ab
:0111440000aa
:0111450000a9
:0111460000a8
:0111470000a7
:0111480000a6
:0111490000a5
:01114a0000a4
:01114b0000a3
:01114c0000a2
:01114d0000a1
:01114e0000a0
:01114f00009f
:01115000009e
:01115100009d
:01115200009c
:01115300009b
:01115400009a
:011155000099
:011156000098
:011157000097
:011158000096
:011159000095
:01115a000094
:01115b000093
:01115c000092
:01115d000091
:01115e000090
:01115f00008f
:01116000008e
:01116100008d
:01116200008c
:01116300008b
:01116400008a
:011165000089
:011166000088
:011167000087
:011168000086
:011169000085
:01116a000084
:01116b000083
:01116c000082
:01116d000081
:01116e000080
:01116f00007f
:01117000007e
:01117100007d
:01117200007c
:01117300007b
:01117400007a
:011175000079
:011176000078
:011177000077
:011178000076
:011179000075
:01117a000074
:01117b000073
:01117c000072
:01117d000071
:01117e000070
:01117f00006f
:01118000006e
:01118100006d
:01118200006c
:01118300006b
:01118400006a
:011185000069
:011186000068
:011187000067
:011188000066
:011189000065
:01118a000064
:01118b000063
:01118c000062
:01118d000061
:01118e000060
:01118f00005f
:01119000005e
:01119100005d
:01119200005c
:01119300005b
:01119400005a
:011195000059
:011196000058
:011197000057
:011198000056
:011199000055
:01119a000054
:01119b000053
:01119c000052
:01119d000051
:01119e000050
:01119f00004f
:0111a000004e
:0111a100004d
:0111a200004c
:0111a300004b
:0111a400004a
:0111a5000049
:0111a6000048
:0111a7000047
:0111a8000046
:0111a9000045
:0111aa000044
:0111ab000043
:0111ac000042
:0111ad000041
:0111ae000040
:0111af00003f
:0111b000003e
:0111b100003d
:0111b200003c
:0111b300003b
:0111b400003a
:0111b5000039
:0111b6000038
:0111b7000037
:0111b8000036
:0111b9000035
:0111ba000034
:0111bb000033
:0111bc000032
:0111bd000031
:0111be000030
:0111bf00002f
:0111c000002e
:0111c100002d
:0111c200002c
:0111c300002b
:0111c400002a
:0111c5000029
:0111c6000028
:0111c7000027
:0111c8000026
:0111c9000025
:0111ca000024
:0111cb000023
:0111cc000022
:0111cd000021
:0111ce000020
:0111cf00001f
:0111d000001e
:0111d100001d
:0111d200001c
:0111d300001b
:0111d400001a
:0111d5000019
:0111d6000018
:0111d7000017
:0111d8000016
:0111d9000015
:0111da000014
