:0100000000ff
:0100010000fe
:0100020000fd
:0100030000fc
:0100040000fb
:0100050000fa
:0100060000f9
:0100070000f8
:0100080000f7
:0100090000f6
:01000a0000f5
:01000b0000f4
:01000c0000f3
:01000d0000f2
:01000e0000f1
:01000f0000f0
:0100100000ef
:0100110000ee
:0100120000ed
:0100130000ec
:0100140000eb
:0100150000ea
:0100160000e9
:0100170000e8
:0100180000e7
:0100190000e6
:01001a0000e5
:01001b0000e4
:01001c0000e3
:01001d0000e2
:01001e0000e1
:01001f0000e0
:0100200000df
:0100210000de
:0100220000dd
:0100230000dc
:0100240000db
:0100250000da
:0100260000d9
:0100270000d8
:0100280000d7
:0100290000d6
:01002a0000d5
:01002b0000d4
:01002c0000d3
:01002d0000d2
:01002e0000d1
:01002f0000d0
:0100300000cf
:0100310000ce
:0100320000cd
:0100330000cc
:0100340000cb
:0100350000ca
:0100360000c9
:0100370000c8
:0100380000c7
:0100390000c6
:01003a0000c5
:01003b0000c4
:01003c0000c3
:01003d0000c2
:01003e0000c1
:01003f0000c0
:0100400000bf
:0100410000be
:0100420000bd
:0100430000bc
:0100440000bb
:0100450000ba
:0100460000b9
:0100470000b8
:0100480000b7
:0100490000b6
:01004a0000b5
:01004b0000b4
:01004c0000b3
:01004d0000b2
:01004e0000b1
:01004f0000b0
:0100500000af
:0100510000ae
:0100520000ad
:0100530000ac
:0100540000ab
:0100550000aa
:0100560000a9
:0100570000a8
:0100580000a7
:0100590000a6
:01005a0000a5
:01005b0000a4
:01005c0000a3
:01005d0000a2
:01005e0000a1
:01005f0000a0
:01006000009f
:01006100009e
:01006200009d
:01006300009c
:01006400009b
:01006500009a
:010066000099
:010067000098
:010068000097
:010069000096
:01006a000095
:01006b000094
:01006c000093
:01006d000092
:01006e000091
:01006f000090
:01007000008f
:01007100008e
:01007200008d
:01007300008c
:01007400008b
:01007500008a
:010076000089
:010077000088
:010078000087
:010079000086
:01007a000085
:01007b000084
:01007c000083
:01007d000082
:01007e000081
:01007f000080
:01008000007f
:01008100007e
:01008200007d
:01008300007c
:01008400007b
:01008500007a
:010086000079
:010087000078
:010088000077
:010089000076
:01008a000075
:01008b000074
:01008c000073
:01008d000072
:01008e000071
:01008f000070
:01009000006f
:01009100006e
:01009200006d
:01009300006c
:01009400006b
:01009500006a
:010096000069
:010097000068
:010098000067
:010099000066
:01009a000065
:01009b000064
:01009c000063
:01009d000062
:01009e000061
:01009f000060
:0100a000005f
:0100a100005e
:0100a200005d
:0100a300005c
:0100a400005b
:0100a500005a
:0100a6000059
:0100a7000058
:0100a8000057
:0100a9000056
:0100aa000055
:0100ab000054
:0100ac000053
:0100ad000052
:0100ae000051
:0100af000050
:0100b000004f
:0100b100004e
:0100b200004d
:0100b300004c
:0100b400004b
:0100b500004a
:0100b6000049
:0100b7000048
:0100b8000047
:0100b9000046
:0100ba000045
:0100bb000044
:0100bc000043
:0100bd000042
:0100be000041
:0100bf000040
:0100c000003f
:0100c100003e
:0100c200003d
:0100c300003c
:0100c400003b
:0100c500003a
:0100c6000039
:0100c7000038
:0100c8000037
:0100c9000036
:0100ca000035
:0100cb000034
:0100cc000033
:0100cd000032
:0100ce000031
:0100cf000030
:0100d000002f
:0100d100002e
:0100d200002d
:0100d300002c
:0100d400002b
:0100d500002a
:0100d6000029
:0100d7000028
:0100d8000027
:0100d9000026
:0100da000025
:0100db000024
:0100dc000023
:0100dd000022
:0100de000021
:0100df000020
:0100e000001f
:0100e100001e
:0100e200001d
:0100e300001c
:0100e400001b
:0100e500001a
:0100e6000019
:0100e7000018
:0100e8000017
:0100e9000016
:0100ea000015
:0100eb000014
:0100ec000013
:0100ed000012
:0100ee000011
:0100ef000010
:0100f000000f
:0100f100010d
:0100f200010c
:0100f300010b
:0100f400010a
:0100f5000109
:0100f6000108
:0100f7000107
:0100f8000106
:0100f9000105
:0100fa000104
:0100fb000103
:0100fc000102
:0100fd000101
:0100fe000100
:0100ff0001ff
:0101000001fd
:0101010001fc
:0101020001fb
:0101030001fa
:0101040001f9
:0101050001f8
:0101060001f7
:0101070001f6
:0101080001f5
:0101090001f4
:01010a0001f3
:01010b0001f2
:01010c0001f1
:01010d0001f0
:01010e0001ef
:01010f0001ee
:0101100001ed
:0101110001ec
:0101120001eb
:0101130001ea
:0101140001e9
:0101150001e8
:0101160001e7
:0101170001e6
:0101180001e5
:0101190001e4
:01011a0001e3
:01011b0001e2
:01011c0001e1
:01011d0001e0
:01011e0001df
:01011f0001de
:0101200001dd
:0101210001dc
:0101220001db
:0101230001da
:0101240001d9
:0101250001d8
:0101260001d7
:0101270001d6
:0101280001d5
:0101290001d4
:01012a0001d3
:01012b0000d3
:01012c0000d2
:01012d0000d1
:01012e0000d0
:01012f0000cf
:0101300000ce
:0101310000cd
:0101320000cc
:0101330000cb
:0101340000ca
:0101350000c9
:0101360000c8
:0101370000c7
:0101380000c6
:0101390000c5
:01013a0000c4
:01013b0000c3
:01013c0000c2
:01013d0000c1
:01013e0000c0
:01013f0000bf
:0101400000be
:0101410000bd
:0101420000bc
:0101430000bb
:0101440000ba
:0101450000b9
:0101460000b8
:0101470000b7
:0101480000b6
:0101490000b5
:01014a0000b4
:01014b0000b3
:01014c0000b2
:01014d0000b1
:01014e0000b0
:01014f0000af
:0101500000ae
:0101510000ad
:0101520000ac
:0101530000ab
:0101540000aa
:0101550000a9
:0101560000a8
:0101570000a7
:0101580000a6
:0101590000a5
:01015a0000a4
:01015b0000a3
:01015c0000a2
:01015d0000a1
:01015e0000a0
:01015f00009f
:01016000009e
:01016100009d
:01016200009c
:01016300009b
:01016400009a
:010165000099
:010166000098
:010167000097
:010168000096
:010169000095
:01016a000094
:01016b000093
:01016c000092
:01016d000091
:01016e000090
:01016f00008f
:01017000008e
:01017100008d
:01017200008c
:01017300008b
:01017400008a
:010175000089
:010176000088
:010177000087
:010178000086
:010179000085
:01017a000084
:01017b000083
:01017c000082
:01017d000081
:01017e000080
:01017f00007f
:01018000007e
:01018100007d
:01018200007c
:01018300007b
:01018400007a
:010185000079
:010186000078
:010187000077
:010188000076
:010189000075
:01018a000074
:01018b000073
:01018c000072
:01018d000071
:01018e000070
:01018f00006f
:01019000006e
:01019100006d
:01019200006c
:01019300006b
:01019400006a
:010195000069
:010196000068
:010197000067
:010198000066
:010199000065
:01019a000064
:01019b000063
:01019c000062
:01019d000061
:01019e000060
:01019f00005f
:0101a000005e
:0101a100005d
:0101a200005c
:0101a300005b
:0101a400005a
:0101a5000059
:0101a6000058
:0101a7000057
:0101a8000056
:0101a9000055
:0101aa000054
:0101ab000053
:0101ac000052
:0101ad000051
:0101ae000050
:0101af00004f
:0101b000004e
:0101b100004d
:0101b200004c
:0101b300004b
:0101b400004a
:0101b5000049
:0101b6000048
:0101b7000047
:0101b8000046
:0101b9000045
:0101ba000044
:0101bb000043
:0101bc000042
:0101bd000041
:0101be000040
:0101bf00003f
:0101c000003e
:0101c100003d
:0101c200003c
:0101c300003b
:0101c400003a
:0101c5000039
:0101c6000038
:0101c7000037
:0101c8000036
:0101c9000035
:0101ca000034
:0101cb000033
:0101cc000032
:0101cd000031
:0101ce000030
:0101cf00002f
:0101d000002e
:0101d100002d
:0101d200002c
:0101d300002b
:0101d400002a
:0101d5000029
:0101d6000028
:0101d7000027
:0101d8000026
:0101d9000025
:0101da000024
:0101db000023
:0101dc000022
:0101dd000021
:0101de000020
:0101df00001f
:0101e000001e
:0101e100001d
:0101e200001c
:0101e300001b
:0101e400001a
:0101e5000019
:0101e6000018
:0101e7000017
:0101e8000016
:0101e9000015
:0101ea000014
:0101eb000013
:0101ec000012
:0101ed000011
:0101ee000010
:0101ef00000f
:0101f000000e
:0101f100000d
:0101f200000c
:0101f300000b
:0101f400000a
:0101f5000108
:0101f6000107
:0101f7000106
:0101f8000105
:0101f9000104
:0101fa000103
:0101fb000102
:0101fc000101
:0101fd000100
:0101fe0001ff
:0101ff0001fe
:0102000001fc
:0102010001fb
:0102020001fa
:0102030001f9
:0102040001f8
:0102050001f7
:0102060001f6
:0102070001f5
:0102080001f4
:0102090001f3
:01020a0001f2
:01020b0001f1
:01020c0001f0
:01020d0001ef
:01020e0001ee
:01020f0001ed
:0102100001ec
:0102110001eb
:0102120001ea
:0102130001e9
:0102140001e8
:0102150001e7
:0102160001e6
:0102170001e5
:0102180001e4
:0102190001e3
:01021a0001e2
:01021b0001e1
:01021c0001e0
:01021d0001df
:01021e0001de
:01021f0008d6
:0102200001dc
:0102210008d4
:0102220001da
:0102230008d2
:0102240001d8
:0102250008d0
:0102260001d6
:0102270008ce
:0102280001d4
:0102290008cc
:01022a0001d2
:01022b0008ca
:01022c0001d0
:01022d0008c8
:01022e0001ce
:01022f0008c6
:0102300001cc
:0102310008c4
:0102320001ca
:0102330008c2
:0102340001c8
:0102350008c0
:0102360001c6
:0102370008be
:0102380001c4
:0102390008bc
:01023a0001c2
:01023b0008ba
:01023c0001c0
:01023d0008b8
:01023e0001be
:01023f0008b6
:0102400001bc
:0102410008b4
:0102420001ba
:0102430008b2
:0102440001b8
:0102450005b3
:0102460005b2
:0102470005b1
:0102480005b0
:0102490005af
:01024a0005ae
:01024b0005ad
:01024c0005ac
:01024d0005ab
:01024e0005aa
:01024f0005a9
:0102500005a8
:0102510005a7
:0102520005a6
:0102530005a5
:0102540005a4
:0102550005a3
:0102560005a2
:0102570005a1
:0102580001a4
:0102590000a4
:01025a0001a2
:01025b0001a1
:01025c0001a0
:01025d00019f
:01025e00019e
:01025f00019d
:01026000019c
:01026100019b
:01026200019a
:010263000199
:010264000198
:010265000197
:010266000196
:010267000195
:010268000194
:010269000193
:01026a000192
:01026b000191
:01026c000190
:01026d00018f
:01026e00018e
:01026f00018d
:01027000018c
:01027100018b
:01027200018a
:010273000189
:010274000188
:010275000187
:010276000186
:010277000185
:010278000184
:010279000183
:01027a000182
:01027b000181
:01027c000180
:01027d00017f
:01027e00017e
:01027f00017d
:01028000017c
:01028100017b
:01028200017a
:010283000179
:010284000178
:010285000177
:010286000176
:010287000175
:010288000174
:010289000173
:01028a000172
:01028b000171
:01028c000170
:01028d00016f
:01028e00016e
:01028f00016d
:01029000016c
:01029100016b
:01029200016a
:010293000169
:010294000168
:010295000167
:010296000166
:010297000165
:010298000164
:010299000163
:01029a000162
:01029b000161
:01029c000160
:01029d00015f
:01029e00015e
:01029f00015d
:0102a000015c
:0102a100015b
:0102a200015a
:0102a3000159
:0102a4000158
:0102a5000157
:0102a6000156
:0102a7000155
:0102a8000154
:0102a9000153
:0102aa000152
:0102ab000151
:0102ac000150
:0102ad00014f
:0102ae00014e
:0102af00014d
:0102b000014c
:0102b100014b
:0102b200014a
:0102b3000149
:0102b4000148
:0102b5000147
:0102b6000146
:0102b7000145
:0102b8000144
:0102b9000143
:0102ba000142
:0102bb000141
:0102bc000140
:0102bd00013f
:0102be00013e
:0102bf00013d
:0102c000013c
:0102c100013b
:0102c200013a
:0102c3000139
:0102c4000138
:0102c5000137
:0102c6000136
:0102c7000135
:0102c8000134
:0102c9000133
:0102ca000132
:0102cb000131
:0102cc000130
:0102cd00012f
:0102ce00012e
:0102cf00012d
:0102d000012c
:0102d100012b
:0102d200012a
:0102d3000129
:0102d4000128
:0102d5000127
:0102d6000126
:0102d7000125
:0102d8000124
:0102d9000123
:0102da000122
:0102db000121
:0102dc000120
:0102dd00011f
:0102de00011e
:0102df00011d
:0102e000011c
:0102e100011b
:0102e200011a
:0102e3000119
:0102e4000118
:0102e5000117
:0102e6000116
:0102e7000115
:0102e8000114
:0102e9000113
:0102ea000112
:0102eb000111
:0102ec000110
:0102ed00010f
:0102ee00010e
:0102ef00010d
:0102f000010c
:0102f100010b
:0102f200010a
:0102f3000109
:0102f4000108
:0102f5000107
:0102f6000106
:0102f7000105
:0102f8000104
:0102f9000103
:0102fa000102
:0102fb000101
:0102fc000100
:0102fd0001ff
:0102fe0001fe
:0102ff0001fd
:0103000001fb
:0103010001fa
:0103020001f9
:0103030001f8
:0103040001f7
:0103050001f6
:0103060001f5
:0103070001f4
:0103080001f3
:0103090001f2
:01030a0001f1
:01030b0001f0
:01030c0001ef
:01030d0001ee
:01030e0001ed
:01030f0001ec
:0103100001eb
:0103110001ea
:0103120001e9
:0103130001e8
:0103140001e7
:0103150001e6
:0103160001e5
:0103170001e4
:0103180001e3
:0103190001e2
:01031a0001e1
:01031b0001e0
:01031c0001df
:01031d0001de
:01031e0001dd
:01031f0001dc
:0103200001db
:0103210001da
:0103220001d9
:0103230005d4
:0103240005d3
:0103250005d2
:0103260005d1
:0103270005d0
:0103280005cf
:0103290005ce
:01032a0005cd
:01032b0005cc
:01032c0005cb
:01032d0005ca
:01032e0005c9
:01032f0005c8
:0103300005c7
:0103310005c6
:0103320005c5
:0103330005c4
:0103340005c3
:0103350005c2
:0103360005c1
:0103370005c0
:0103380005bf
:0103390005be
:01033a0005bd
:01033b0005bc
:01033c0005bb
:01033d0005ba
:01033e0005b9
:01033f0005b8
:0103400005b7
:0103410005b6
:0103420005b5
:0103430005b4
:0103440005b3
:0103450005b2
:0103460005b1
:0103470005b0
:0103480005af
:0103490005ae
:01034a0005ad
:01034b0001b0
:01034c0008a8
:01034d0001ae
:01034e0008a6
:01034f0001ac
:0103500008a4
:0103510001aa
:0103520008a2
:0103530001a8
:0103540008a0
:0103550001a6
:01035600089e
:0103570001a4
:01035800089c
:0103590001a2
:01035a00089a
:01035b0001a0
:01035c000898
:01035d00019e
:01035e000896
:01035f00019c
:010360000894
:01036100019a
:010362000892
:010363000198
:010364000890
:010365000196
:01036600088e
:010367000194
:01036800088c
:010369000192
:01036a00088a
:01036b000190
:01036c000888
:01036d00018e
:01036e000886
:01036f00018c
:010370000884
:01037100018a
:010372000585
:010373000584
:010374000583
:010375000582
:010376000581
:010377000580
:01037800057f
:01037900057e
:01037a00057d
:01037b00057c
:01037c00057b
:01037d00057a
:01037e000579
:01037f000578
:010380000577
:010381000576
:010382000575
:010383000574
:010384000573
:010385000176
:010386000175
:010387000174
:010388000173
:010389000271
:01038a000270
:01038b00026f
:01038c00026e
:01038d00026d
:01038e00016d
:01038f000964
:010390000963
:010391000962
:010392000961
:010393000960
:01039400095f
:01039500095e
:01039600095d
:01039700095c
:01039800095b
:01039900095a
:01039a000959
:01039b000958
:01039c000957
:01039d000956
:01039e000955
:01039f000954
:0103a0000953
:0103a1000952
:0103a2000951
:0103a3000950
:0103a400094f
:0103a500094e
:0103a600094d
:0103a700094c
:0103a800094b
:0103a900094a
:0103aa000949
:0103ab000948
:0103ac000947
:0103ad000946
:0103ae000945
:0103af000944
:0103b0000943
:0103b1000942
:0103b2000941
:0103b3000940
:0103b400093f
:0103b500093e
:0103b600093d
:0103b700093c
:0103b800093b
:0103b900093a
:0103ba000939
:0103bb000938
:0103bc000937
:0103bd000936
:0103be000935
:0103bf000934
:0103c0000933
:0103c1000932
:0103c2000931
:0103c3000930
:0103c400092f
:0103c500092e
:0103c600092d
:0103c700092c
:0103c800092b
:0103c900092a
:0103ca000929
:0103cb000928
:0103cc000927
:0103cd000926
:0103ce000925
:0103cf000924
:0103d0000923
:0103d1000922
:0103d2000921
:0103d3000920
:0103d400091f
:0103d500091e
:0103d600091d
:0103d700091c
:0103d800091b
:0103d900091a
:0103da000919
:0103db000918
:0103dc000917
:0103dd000916
:0103de000915
:0103df000914
:0103e0000913
:0103e1000912
:0103e2000911
:0103e3000910
:0103e400090f
:0103e500090e
:0103e600090d
:0103e700090c
:0103e800090b
:0103e900090a
:0103ea000909
:0103eb000908
:0103ec000907
:0103ed000906
:0103ee000905
:0103ef000904
:0103f0000903
:0103f1000902
:0103f2000901
:0103f3000900
:0103f40009ff
:0103f50009fe
:0103f60009fd
:0103f70009fc
:0103f80009fb
:0103f90009fa
:0103fa0009f9
:0103fb0009f8
:0103fc0009f7
:0103fd0009f6
:0103fe0009f5
:0103ff0009f4
:0104000009f2
:0104010009f1
:0104020009f0
:0104030009ef
:0104040009ee
:0104050009ed
:0104060009ec
:0104070009eb
:0104080009ea
:0104090009e9
:01040a0009e8
:01040b0009e7
:01040c0009e6
:01040d0009e5
:01040e0009e4
:01040f0009e3
:0104100009e2
:0104110009e1
:0104120009e0
:0104130009df
:0104140009de
:0104150009dd
:0104160009dc
:0104170009db
:0104180009da
:0104190009d9
:01041a0009d8
:01041b0009d7
:01041c0009d6
:01041d0009d5
:01041e0009d4
:01041f0009d3
:0104200009d2
:0104210009d1
:0104220009d0
:0104230009cf
:0104240009ce
:0104250009cd
:0104260009cc
:0104270009cb
:0104280009ca
:0104290009c9
:01042a0009c8
:01042b0009c7
:01042c0009c6
:01042d0009c5
:01042e0009c4
:01042f0009c3
:0104300009c2
:0104310009c1
:0104320009c0
:0104330009bf
:0104340009be
:0104350009bd
:0104360009bc
:0104370009bb
:0104380009ba
:0104390009b9
:01043a0009b8
:01043b0009b7
:01043c0009b6
:01043d0009b5
:01043e0009b4
:01043f0009b3
:0104400009b2
:0104410009b1
:0104420009b0
:0104430009af
:0104440009ae
:0104450009ad
:0104460009ac
:0104470009ab
:0104480009aa
:0104490009a9
:01044a0009a8
:01044b0009a7
:01044c0009a6
:01044d0009a5
:01044e0009a4
:01044f0001ab
:0104500005a6
:0104510005a5
:0104520005a4
:0104530005a3
:0104540005a2
:0104550005a1
:0104560005a0
:01045700059f
:01045800059e
:01045900059d
:01045a00059c
:01045b00059b
:01045c00059a
:01045d000599
:01045e000598
:01045f000597
:010460000596
:010461000595
:010462000594
:010463000593
:010464000592
:010465000591
:010466000590
:01046700058f
:01046800058e
:01046900058d
:01046a00058c
:01046b00058b
:01046c00058a
:01046d000589
:01046e000588
:01046f000587
:010470000586
:010471000585
:010472000584
:010473000583
:010474000582
:010475000581
:010476000580
:01047700057f
:010478000182
:01047900087a
:01047a000180
:01047b000878
:01047c00017e
:01047d000876
:01047e00017c
:01047f000874
:01048000017a
:010481000872
:010482000178
:010483000870
:010484000176
:01048500086e
:010486000174
:01048700086c
:010488000172
:01048900086a
:01048a000170
:01048b000868
:01048c00016e
:01048d000866
:01048e00016c
:01048f000864
:01049000016a
:010491000862
:010492000168
:010493000860
:010494000166
:01049500085e
:010496000164
:01049700085c
:010498000162
:01049900085a
:01049a000160
:01049b000858
:01049c00015e
:01049d000856
:01049e00015c
:01049f000557
:0104a0000556
:0104a1000555
:0104a2000554
:0104a3000553
:0104a4000552
:0104a5000551
:0104a6000550
:0104a700054f
:0104a800054e
:0104a900054d
:0104aa00054c
:0104ab00054b
:0104ac00054a
:0104ad000549
:0104ae000548
:0104af000547
:0104b0000546
:0104b1000545
:0104b2000148
:0104b3000147
:0104b4000146
:0104b5000145
:0104b6000243
:0104b7000242
:0104b8000241
:0104b9000240
:0104ba00023f
:0104bb000d33
:0104bc000936
:0104bd000935
:0104be000934
:0104bf000933
:0104c0000932
:0104c1000931
:0104c2000930
:0104c300092f
:0104c400092e
:0104c500092d
:0104c600092c
:0104c700092b
:0104c800092a
:0104c9000929
:0104ca000928
:0104cb000927
:0104cc000926
:0104cd000925
:0104ce000924
:0104cf000923
:0104d0000922
:0104d1000921
:0104d2000920
:0104d300091f
:0104d400091e
:0104d500091d
:0104d600091c
:0104d700091b
:0104d800091a
:0104d9000919
:0104da000918
:0104db000917
:0104dc000916
:0104dd000915
:0104de000914
:0104df000913
:0104e0000912
:0104e1000911
:0104e2000910
:0104e300090f
:0104e400090e
:0104e500090d
:0104e600090c
:0104e700090b
:0104e800090a
:0104e9000909
:0104ea000908
:0104eb000907
:0104ec000906
:0104ed000905
:0104ee000904
:0104ef000903
:0104f0000902
:0104f1000901
:0104f2000900
:0104f30009ff
:0104f40009fe
:0104f50009fd
:0104f60009fc
:0104f70009fb
:0104f80009fa
:0104f90009f9
:0104fa0009f8
:0104fb0009f7
:0104fc0009f6
:0104fd0009f5
:0104fe0009f4
:0104ff0009f3
:0105000009f1
:0105010009f0
:0105020009ef
:0105030009ee
:0105040009ed
:0105050009ec
:0105060009eb
:0105070009ea
:0105080009e9
:0105090009e8
:01050a0009e7
:01050b0009e6
:01050c0009e5
:01050d0009e4
:01050e0009e3
:01050f0009e2
:0105100009e1
:0105110009e0
:0105120009df
:0105130009de
:0105140009dd
:0105150009dc
:0105160009db
:0105170009da
:0105180009d9
:0105190009d8
:01051a0009d7
:01051b0009d6
:01051c0009d5
:01051d0009d4
:01051e0009d3
:01051f0009d2
:0105200009d1
:0105210009d0
:0105220009cf
:0105230009ce
:0105240009cd
:0105250009cc
:0105260009cb
:0105270009ca
:0105280009c9
:0105290009c8
:01052a0009c7
:01052b0009c6
:01052c0009c5
:01052d0009c4
:01052e0009c3
:01052f0009c2
:0105300009c1
:0105310009c0
:0105320009bf
:0105330009be
:0105340009bd
:0105350009bc
:0105360009bb
:0105370009ba
:0105380009b9
:0105390009b8
:01053a0009b7
:01053b0009b6
:01053c0009b5
:01053d0009b4
:01053e0009b3
:01053f0009b2
:0105400009b1
:0105410009b0
:0105420009af
:0105430009ae
:0105440009ad
:0105450009ac
:0105460009ab
:0105470009aa
:0105480009a9
:0105490009a8
:01054a0009a7
:01054b0009a6
:01054c0009a5
:01054d0009a4
:01054e0009a3
:01054f0009a2
:0105500009a1
:0105510009a0
:01055200099f
:01055300099e
:01055400099d
:01055500099c
:01055600099b
:01055700099a
:010558000999
:010559000998
:01055a000997
:01055b000996
:01055c000995
:01055d000994
:01055e000993
:01055f000992
:010560000991
:010561000990
:01056200098f
:01056300098e
:01056400098d
:01056500098c
:01056600098b
:01056700098a
:010568000989
:010569000988
:01056a000987
:01056b000986
:01056c000985
:01056d000984
:01056e000983
:01056f000982
:010570000981
:010571000980
:01057200097f
:01057300097e
:01057400097d
:01057500097c
:01057600097b
:01057700097a
:010578000979
:010579000978
:01057a000977
:01057b000976
:01057c00017d
:01057d000578
:01057e000577
:01057f000576
:010580000575
:010581000574
:010582000573
:010583000572
:010584000571
:010585000570
:01058600056f
:01058700056e
:01058800056d
:01058900056c
:01058a00056b
:01058b00056a
:01058c000569
:01058d000568
:01058e000567
:01058f000566
:010590000565
:010591000564
:010592000563
:010593000562
:010594000561
:010595000560
:01059600055f
:01059700055e
:01059800055d
:01059900055c
:01059a00055b
:01059b00055a
:01059c000559
:01059d000558
:01059e000557
:01059f000556
:0105a0000555
:0105a1000554
:0105a2000553
:0105a3000552
:0105a4000551
:0105a5000154
:0105a600084c
:0105a7000152
:0105a800084a
:0105a9000150
:0105aa000848
:0105ab00014e
:0105ac000846
:0105ad00014c
:0105ae000844
:0105af00014a
:0105b0000842
:0105b1000148
:0105b2000840
:0105b3000146
:0105b400083e
:0105b5000144
:0105b600083c
:0105b7000142
:0105b800083a
:0105b9000140
:0105ba000838
:0105bb00013e
:0105bc000836
:0105bd00013c
:0105be000834
:0105bf00013a
:0105c0000832
:0105c1000138
:0105c2000830
:0105c3000136
:0105c400082e
:0105c5000134
:0105c600082c
:0105c7000132
:0105c800082a
:0105c9000130
:0105ca000828
:0105cb00012e
:0105cc000529
:0105cd000528
:0105ce000527
:0105cf000526
:0105d0000525
:0105d1000524
:0105d2000523
:0105d3000522
:0105d4000521
:0105d5000520
:0105d600051f
:0105d700051e
:0105d800051d
:0105d900051c
:0105da00051b
:0105db00051a
:0105dc000519
:0105dd000518
:0105de000517
:0105df00011a
:0105e0000119
:0105e1000118
:0105e2000117
:0105e3000116
:0105e4000115
:0105e5000114
:0105e6000113
:0105e7000112
:0105e8000111
:0105e9000110
:0105ea00010f
:0105eb00010e
:0105ec00010d
:0105ed00010c
:0105ee00010b
:0105ef00010a
:0105f0000109
:0105f1000108
:0105f2000107
:0105f3000106
:0105f4000105
:0105f5000104
:0105f6000103
:0105f7000102
:0105f8000101
:0105f9000100
:0105fa0001ff
:0105fb0001fe
:0105fc0001fd
:0105fd0001fc
:0105fe0001fb
:0105ff0001fa
:0106000001f8
:0106010001f7
:0106020001f6
:0106030001f5
:0106040001f4
:0106050001f3
:0106060001f2
:0106070001f1
:0106080001f0
:0106090001ef
:01060a0001ee
:01060b0001ed
:01060c0001ec
:01060d0001eb
:01060e0001ea
:01060f0001e9
:0106100001e8
:0106110001e7
:0106120001e6
:0106130001e5
:0106140001e4
:0106150001e3
:0106160001e2
:0106170001e1
:0106180001e0
:0106190001df
:01061a0001de
:01061b0001dd
:01061c0001dc
:01061d0001db
:01061e0001da
:01061f0001d9
:0106200001d8
:0106210001d7
:0106220001d6
:0106230001d5
:0106240001d4
:0106250001d3
:0106260001d2
:0106270001d1
:0106280001d0
:0106290001cf
:01062a0001ce
:01062b0001cd
:01062c0001cc
:01062d0001cb
:01062e0001ca
:01062f0001c9
:0106300001c8
:0106310001c7
:0106320001c6
:0106330001c5
:0106340001c4
:0106350001c3
:0106360001c2
:0106370001c1
:0106380001c0
:0106390001bf
:01063a0001be
:01063b0001bd
:01063c0001bc
:01063d0001bb
:01063e0001ba
:01063f0001b9
:0106400001b8
:0106410001b7
:0106420001b6
:0106430001b5
:0106440001b4
:0106450001b3
:0106460001b2
:0106470001b1
:0106480001b0
:0106490001af
:01064a0001ae
:01064b0001ad
:01064c0001ac
:01064d0001ab
:01064e0001aa
:01064f0001a9
:0106500001a8
:0106510001a7
:0106520001a6
:0106530001a5
:0106540001a4
:0106550001a3
:0106560001a2
:0106570001a1
:0106580001a0
:01065900019f
:01065a00019e
:01065b00019d
:01065c00019c
:01065d00019b
:01065e00019a
:01065f000199
:010660000198
:010661000197
:010662000196
:010663000195
:010664000194
:010665000193
:010666000192
:010667000191
:010668000190
:01066900018f
:01066a00018e
:01066b00018d
:01066c00018c
:01066d00018b
:01066e00018a
:01066f000189
:010670000188
:010671000187
:010672000186
:010673000185
:010674000184
:010675000183
:010676000182
:010677000181
:010678000180
:01067900017f
:01067a00017e
:01067b00017d
:01067c00017c
:01067d00017b
:01067e00017a
:01067f000179
:010680000178
:010681000177
:010682000176
:010683000175
:010684000174
:010685000173
:010686000172
:010687000171
:010688000170
:01068900016f
:01068a00016e
:01068b00016d
:01068c00016c
:01068d00016b
:01068e00016a
:01068f000169
:010690000168
:010691000167
:010692000166
:010693000165
:010694000164
:010695000163
:010696000162
:010697000161
:010698000160
:01069900015f
:01069a00015e
:01069b00015d
:01069c00015c
:01069d00015b
:01069e00015a
:01069f000159
:0106a0000158
:0106a1000157
:0106a2000156
:0106a3000155
:0106a4000154
:0106a5000153
:0106a6000152
:0106a7000151
:0106a8000150
:0106a900014f
:0106aa00054a
:0106ab000549
:0106ac000548
:0106ad000547
:0106ae000546
:0106af000545
:0106b0000544
:0106b1000543
:0106b2000542
:0106b3000541
:0106b4000540
:0106b500053f
:0106b600053e
:0106b700053d
:0106b800053c
:0106b900053b
:0106ba00053a
:0106bb000539
:0106bc000538
:0106bd000537
:0106be000536
:0106bf000535
:0106c0000534
:0106c1000533
:0106c2000532
:0106c3000531
:0106c4000530
:0106c500052f
:0106c600052e
:0106c700052d
:0106c800052c
:0106c900052b
:0106ca00052a
:0106cb000529
:0106cc000528
:0106cd000527
:0106ce000526
:0106cf000525
:0106d0000524
:0106d1000523
:0106d2000126
:0106d300081e
:0106d4000124
:0106d500081c
:0106d6000122
:0106d700081a
:0106d8000120
:0106d9000818
:0106da00011e
:0106db000816
:0106dc00011c
:0106dd000814
:0106de00011a
:0106df000812
:0106e0000118
:0106e1000810
:0106e2000116
:0106e300080e
:0106e4000114
:0106e500080c
:0106e6000112
:0106e700080a
:0106e8000110
:0106e9000808
:0106ea00010e
:0106eb000806
:0106ec00010c
:0106ed000804
:0106ee00010a
:0106ef000802
:0106f0000108
:0106f1000800
:0106f2000106
:0106f30008fe
:0106f4000104
:0106f50008fc
:0106f6000102
:0106f70008fa
:0106f8000100
:0106f90005fb
:0106fa0005fa
:0106fb0005f9
:0106fc0005f8
:0106fd0005f7
:0106fe0005f6
:0106ff0005f5
:0107000005f3
:0107010005f2
:0107020005f1
:0107030005f0
:0107040005ef
:0107050005ee
:0107060005ed
:0107070005ec
:0107080005eb
:0107090005ea
:01070a0005e9
:01070b0005e8
:01070c0001eb
:01070d0001ea
:01070e0000ea
:01070f0000e9
:0107100000e8
:0107110000e7
:0107120000e6
:0107130000e5
:0107140000e4
:0107150000e3
:0107160000e2
:0107170000e1
:0107180000e0
:0107190000df
:01071a0000de
:01071b0000dd
:01071c0000dc
:01071d0000db
:01071e0000da
:01071f0000d9
:0107200000d8
:0107210000d7
:0107220000d6
:0107230000d5
:0107240000d4
:0107250000d3
:0107260000d2
:0107270000d1
:0107280000d0
:0107290000cf
:01072a0000ce
:01072b0000cd
:01072c0000cc
:01072d0000cb
:01072e0000ca
:01072f0000c9
:0107300000c8
:0107310000c7
:0107320000c6
:0107330000c5
:0107340000c4
:0107350000c3
:0107360000c2
:0107370000c1
:0107380000c0
:0107390000bf
:01073a0000be
:01073b0000bd
:01073c0000bc
:01073d0000bb
:01073e0000ba
:01073f0000b9
:0107400000b8
:0107410000b7
:0107420000b6
:0107430000b5
:0107440000b4
:0107450000b3
:0107460000b2
:0107470000b1
:0107480000b0
:0107490000af
:01074a0000ae
:01074b0000ad
:01074c0000ac
:01074d0000ab
:01074e0000aa
:01074f0000a9
:0107500000a8
:0107510000a7
:0107520000a6
:0107530000a5
:0107540000a4
:0107550000a3
:0107560000a2
:0107570000a1
:0107580000a0
:01075900009f
:01075a00009e
:01075b00009d
:01075c00009c
:01075d00009b
:01075e00009a
:01075f000099
:010760000098
:010761000097
:010762000096
:010763000095
:010764000094
:010765000093
:010766000092
:010767000091
:010768000090
:01076900008f
:01076a00008e
:01076b00008d
:01076c00008c
:01076d00008b
:01076e00008a
:01076f000089
:010770000088
:010771000087
:010772000086
:010773000085
:010774000084
:010775000083
:010776000082
:010777000081
:010778000080
:01077900007f
:01077a00007e
:01077b00007d
:01077c00007c
:01077d00007b
:01077e00007a
:01077f000079
:010780000078
:010781000077
:010782000076
:010783000075
:010784000074
:010785000073
:010786000072
:010787000071
:010788000070
:01078900006f
:01078a00006e
:01078b00006d
:01078c00006c
:01078d00006b
:01078e00006a
:01078f000069
:010790000068
:010791000067
:010792000066
:010793000065
:010794000064
:010795000063
:010796000062
:010797000061
:010798000060
:01079900005f
:01079a00005e
:01079b00005d
:01079c00005c
:01079d00005b
:01079e00005a
:01079f000059
:0107a0000058
:0107a1000057
:0107a2000056
:0107a3000055
:0107a4000054
:0107a5000053
:0107a6000052
:0107a7000051
:0107a8000050
:0107a900004f
:0107aa00004e
:0107ab00004d
:0107ac00004c
:0107ad00004b
:0107ae00004a
:0107af000049
:0107b0000048
:0107b1000047
:0107b2000046
:0107b3000045
:0107b4000044
:0107b5000043
:0107b6000042
:0107b7000041
:0107b8000040
:0107b900003f
:0107ba00003e
:0107bb00003d
:0107bc00003c
:0107bd00003b
:0107be00003a
:0107bf000039
:0107c0000038
:0107c1000037
:0107c2000036
:0107c3000035
:0107c4000034
:0107c5000033
:0107c6000032
:0107c7000031
:0107c8000030
:0107c900002f
:0107ca00002e
:0107cb00002d
:0107cc00002c
:0107cd00002b
:0107ce00002a
:0107cf000029
:0107d0000028
:0107d1000027
:0107d2000026
:0107d3000025
:0107d4000024
:0107d5000023
:0107d6000121
:0107d7000120
:0107d800011f
:0107d900011e
:0107da00011d
:0107db00011c
:0107dc00011b
:0107dd00011a
:0107de000119
:0107df000118
:0107e0000117
:0107e1000116
:0107e2000115
:0107e3000114
:0107e4000113
:0107e5000112
:0107e6000111
:0107e7000110
:0107e800010f
:0107e900010e
:0107ea00010d
:0107eb00010c
:0107ec00010b
:0107ed00010a
:0107ee000109
:0107ef000108
:0107f0000107
:0107f1000106
:0107f2000105
:0107f3000104
:0107f4000103
:0107f5000102
:0107f6000101
:0107f7000100
:0107f80001ff
:0107f90001fe
:0107fa0001fd
:0107fb0001fc
:0107fc0001fb
:0107fd0001fa
:0107fe0001f9
:0107ff0001f8
:0108000008ef
:0108010001f5
:0108020008ed
:0108030001f3
:0108040008eb
:0108050001f1
:0108060008e9
:0108070001ef
:0108080008e7
:0108090001ed
:01080a0008e5
:01080b0001eb
:01080c0008e3
:01080d0001e9
:01080e0008e1
:01080f0001e7
:0108100008df
:0108110001e5
:0108120008dd
:0108130001e3
:0108140008db
:0108150001e1
:0108160008d9
:0108170001df
:0108180008d7
:0108190001dd
:01081a0008d5
:01081b0001db
:01081c0008d3
:01081d0001d9
:01081e0008d1
:01081f0001d7
:0108200008cf
:0108210001d5
:0108220008cd
:0108230001d3
:0108240008cb
:0108250001d1
:0108260005cc
:0108270005cb
:0108280005ca
:0108290005c9
:01082a0005c8
:01082b0005c7
:01082c0005c6
:01082d0005c5
:01082e0005c4
:01082f0005c3
:0108300005c2
:0108310005c1
:0108320005c0
:0108330005bf
:0108340005be
:0108350005bd
:0108360005bc
:0108370005bb
:0108380005ba
:0108390001bd
:01083a0000bd
:01083b0000bc
:01083c0000bb
:01083d0000ba
:01083e0000b9
:01083f0000b8
:0108400000b7
:0108410000b6
:0108420000b5
:0108430000b4
:0108440000b3
:0108450000b2
:0108460000b1
:0108470000b0
:0108480000af
:0108490000ae
:01084a0000ad
:01084b0000ac
:01084c0000ab
:01084d0000aa
:01084e0000a9
:01084f0000a8
:0108500000a7
:0108510000a6
:0108520000a5
:0108530000a4
:0108540000a3
:0108550000a2
:0108560000a1
:0108570000a0
:01085800009f
:01085900009e
:01085a00009d
:01085b00009c
:01085c00009b
:01085d00009a
:01085e000099
:01085f000098
:010860000097
:010861000096
:010862000095
:010863000094
:010864000093
:010865000092
:010866000091
:010867000090
:01086800008f
:01086900008e
:01086a00008d
:01086b00008c
:01086c00008b
:01086d00008a
:01086e000089
:01086f000088
:010870000087
:010871000086
:010872000085
:010873000084
:010874000083
:010875000082
:010876000081
:010877000080
:01087800007f
:01087900007e
:01087a00007d
:01087b00007c
:01087c00007b
:01087d00007a
:01087e000079
:01087f000078
:010880000077
:010881000076
:010882000075
:010883000074
:010884000073
:010885000072
:010886000071
:010887000070
:01088800006f
:01088900006e
:01088a00006d
:01088b00006c
:01088c00006b
:01088d00006a
:01088e000069
:01088f000068
:010890000067
:010891000066
:010892000065
:010893000064
:010894000063
:010895000062
:010896000061
:010897000060
:01089800005f
:01089900005e
:01089a00005d
:01089b00005c
:01089c00005b
:01089d00005a
:01089e000059
:01089f000058
:0108a0000057
:0108a1000056
:0108a2000055
:0108a3000054
:0108a4000053
:0108a5000052
:0108a6000051
:0108a7000050
:0108a800004f
:0108a900004e
:0108aa00004d
:0108ab00004c
:0108ac00004b
:0108ad00004a
:0108ae000049
:0108af000048
:0108b0000047
:0108b1000046
:0108b2000045
:0108b3000044
:0108b4000043
:0108b5000042
:0108b6000041
:0108b7000040
:0108b800003f
:0108b900003e
:0108ba00003d
:0108bb00003c
:0108bc00003b
:0108bd00003a
:0108be000039
:0108bf000038
:0108c0000037
:0108c1000036
:0108c2000035
:0108c3000034
:0108c4000033
:0108c5000032
:0108c6000031
:0108c7000030
:0108c800002f
:0108c900002e
:0108ca00002d
:0108cb00002c
:0108cc00002b
:0108cd00002a
:0108ce000029
:0108cf000028
:0108d0000027
:0108d1000026
:0108d2000025
:0108d3000024
:0108d4000023
:0108d5000022
:0108d6000021
:0108d7000020
:0108d800001f
:0108d900001e
:0108da00001d
:0108db00001c
:0108dc00001b
:0108dd00001a
:0108de000019
:0108df000018
:0108e0000017
:0108e1000016
:0108e2000015
:0108e3000014
:0108e4000013
:0108e5000012
:0108e6000011
:0108e7000010
:0108e800000f
:0108e900000e
:0108ea00000d
:0108eb00000c
:0108ec00000b
:0108ed00000a
:0108ee000009
:0108ef000008
:0108f0000007
:0108f1000006
:0108f2000005
:0108f3000004
:0108f4000003
:0108f5000002
:0108f6000001
:0108f7000000
:0108f80000ff
:0108f90000fe
:0108fa0000fd
:0108fb0000fc
:0108fc0000fb
:0108fd0000fa
:0108fe0000f9
:0108ff0000f8
:0109000000f6
:0109010000f5
:0109020000f4
:0109030000f3
:0109040000f2
:0109050000f1
:0109060000f0
:0109070000ef
:0109080000ee
:0109090000ed
:01090a0000ec
:01090b0000eb
:01090c0000ea
:01090d0000e9
:01090e0000e8
:01090f0000e7
:0109100000e6
:0109110000e5
:0109120000e4
:0109130000e3
:0109140000e2
:0109150000e1
:0109160000e0
:0109170000df
:0109180000de
:0109190000dd
:01091a0000dc
:01091b0000db
:01091c0000da
:01091d0000d9
:01091e0000d8
:01091f0000d7
:0109200000d6
:0109210000d5
:0109220000d4
:0109230000d3
:0109240000d2
:0109250000d1
:0109260000d0
:0109270000cf
:0109280000ce
:0109290000cd
:01092a0000cc
:01092b0000cb
:01092c0001c9
:01092d0001c8
:01092e0001c7
:01092f0001c6
:0109300001c5
:0109310001c4
:0109320001c3
:0109330001c2
:0109340001c1
:0109350001c0
:0109360001bf
:0109370001be
:0109380001bd
:0109390001bc
:01093a0001bb
:01093b0001ba
:01093c0001b9
:01093d0001b8
:01093e0001b7
:01093f0001b6
:0109400001b5
:0109410001b4
:0109420001b3
:0109430001b2
:0109440001b1
:0109450001b0
:0109460001af
:0109470001ae
:0109480001ad
:0109490001ac
:01094a0001ab
:01094b0001aa
:01094c0001a9
:01094d0001a8
:01094e0001a7
:01094f0001a6
:0109500001a5
:0109510001a4
:0109520001a3
:0109530001a2
:0109540001a1
:0109550001a0
:01095600019f
:01095700019e
:01095800019d
:01095900019c
:01095a00019b
:01095b00019a
:01095c000199
:01095d000198
:01095e000197
:01095f000196
:010960000195
:010961000194
:010962000193
:010963000192
:010964000191
:010965000190
:010966000090
:01096700008f
:00000001ff